:020000040800F2
:10000000800A0020910100080F2E00080B24000830
:100010000D2E000897050008B1340008000000000C
:10002000000000000000000000000000632F000836
:100030009905000800000000612F0008652F0008E6
:10004000AB010008AB010008AB010008AB010008E0
:10005000AB010008AB010008AB010008AB010008D0
:10006000AB010008AB010008AB010008AB010008C0
:10007000AB010008AB010008AB010008AB010008B0
:10008000AB010008AB010008AB010008AB010008A0
:10009000AB010008AB010008AB010008AB01000890
:1000A000AB010008AB010008AB010008AB01000880
:1000B000AB010008AB010008C92F0008AB01000824
:1000C000AB010008AB010008AB010008AB01000860
:1000D000AB01000899340008AB010008A534000802
:1000E000AB010008AB010008AB01000800F002F80A
:1000F00000F03FF80AA090E8000C82448344AAF183
:100100000107DA4501D100F034F8AFF2090EBAE880
:100110000F0013F0010F18BFFB1A43F0010318473B
:100120005072000070720000103A24BF78C878C185
:10013000FAD8520724BF30C830C144BF04680C60ED
:10014000704700000023002400250026103A28BF35
:1001500078C1FBD8520728BF30C148BF0B60704739
:10016000642900F07D80002070471FB51FBD10B5C9
:1001700010BD00F0DBF91146FFF7F7FF04F03AF984
:1001800000F0F9F903B4FFF7F2FF03BC00F0FCF94B
:100190000948804709480047FEE7FEE7FEE7FEE71B
:1001A000FEE7FEE7FEE7FEE7FEE7FEE70448054957
:1001B000054A064B70470000C72F0008ED000008F5
:1001C00080040020800A0020800600208006002095
:1001D0000FB41CB5074B06AA7B44694600900598EE
:1001E00000F061F90020694600F070F91CBC5DF870
:1001F00014FB0000F10200002DE9F0410E46044618
:10020000002020622046E168884730B3252805D0C9
:10021000D4E901219047206A401CF2E7E1682046BA
:1002200000278847050018D0A5F14100192802D8F9
:1002300020354FF400673246294620462760FFF7F5
:100240008FFF40B1012804D0F61D26F007060836BE
:10025000D8E7361DD6E72846DAE7206ABDE8F08100
:100260002DE9F0410646002410687529314616A58F
:1002700010D0AFF30080002802DA404213A507E057
:1002800031688A0701D512A502E0490704D511A5F6
:10029000012401E0AFF3008000210A2206F12407C7
:1002A00009E0B0FBF2FCB0FBF2F302FB1C003030C3
:1002B00078541846491C0028F3D123462A46304674
:1002C000BDE8F04100F090B8000000002D000000F3
:1002D0002B0000002000000040EA010310B59B073E
:1002E0000FD1042A0DD310C808C9121F9C42F8D0A0
:1002F00020BA19BA884201D9012010BD4FF0FF3051
:1003000010BD1AB1D30703D0521C07E0002010BD66
:1003100010F8013B11F8014B1B1B07D110F8013BF2
:1003200011F8014B1B1B01D1921EF1D1184610BDD3
:1003300010B5431C02E010F8011B71B18107FAD11E
:100340004FF0013202C88C1A8C4314EAC211F9D062
:10035000C01A0A0603D0C01E10BDC01A10BD0A0480
:1003600001D0801E10BD0902FCD0401E10BD02F05D
:10037000FF0343EA032242EA024200F0AEB84FF024
:10038000000200B5134694469646203922BFA0E8E5
:100390000C50A0E80C50B1F12001BFF4F7AF0907F1
:1003A00028BFA0E80C5048BF0CC05DF804EB8900E2
:1003B00028BF40F8042B08BF704748BF20F8022B25
:1003C00011F0804F18BF00F8012B7047704770473D
:1003D000704710B500F0A2F8006810BD10B50446D3
:1003E00000F09CF8046010BD2DE9F0470D469946D9
:1003F0009246044600F124080168880604D5E069A5
:1004000021F01001216000E00120A84201DD471B1E
:1004100000E00027A1697A1902EB0900081AA0611F
:100420002078C00602D42046AFF30080002608E002
:10043000D4E901211AF806009047206A401C761C76
:1004400020624E45F4DB2078C0060AD52046AFF383
:10045000008006E0D4E9012130209047206A401C4A
:100460002062381EA7F10107F4DC07E0D4E901217E
:1004700018F805009047206A401C2062281EA5F14C
:100480000105F3DC2046AFF300802078000602D59A
:100490000220BDE8F0870120FBE7000001694A1C4B
:1004A00002610878704700B58FB0CDE901310021B5
:1004B000059105497944CDE9031011466846FFF7D7
:1004C0009BFE0FB000BD0000E5FFFFFF0A6802F8C9
:1004D000010B0A6070474FF000020429C0F012803F
:1004E00010F0030C3FF44DAFCCF1040CBCF1020F43
:1004F00018BF00F8012BA8BF20F8022BA1EB0C01BC
:10050000FFF73FBF5FEAC17C24BF00F8012B00F872
:10051000012B48BF00F8012B7047000000487047CE
:100520001C040020004870471C0400207546FFF79B
:10053000F9FFAE4605006946534620F007008546A0
:1005400018B020B5FFF732FEBDE820404FF000069E
:100550004FF000074FF000084FF0000B21F00701AB
:10056000AC46ACE8C009ACE8C009ACE8C009ACE8EE
:10057000C0098D46704710B50446AFF30080204691
:10058000BDE81040FFF7FEBD01491820ABBEFEE7F5
:10059000260002007047FEE7704772B6FEE710B50E
:1005A00090F821100022022905D00421816380F8EF
:1005B0002020012010BD01680B6823F00E030B60A2
:1005C00001680B6823F001030B6090F84030C46BA6
:1005D000012101FA03F3636080F8211080F82020E4
:1005E000104610BD10B590F821100024022903D048
:1005F0000421816301243DE001680A6822F00E02B3
:100600000A6001680A6822F001020A601A4A016859
:10061000914201D1012121E0174A1432914201D1C6
:1006200010211BE0144A2832914201D1891515E0AE
:10063000114A3C32914201D189140FE00E4A5032E6
:10064000914202D14FF4803108E00B4A643291426A
:1006500002D14FF4801101E04FF08071064A083A50
:100660005160012180F82110002180F82010416B99
:1006700001B18847204610BD0800024070B504460D
:1006800000F004F90546601C02D0044800780444D8
:1006900000F0FCF8401BA042FAD370BD58000020C7
:1006A0002DE9F84FDFF8B8910024A9F1040B234697
:1006B0000F2709F1040AABF1040EC9E00125A5409A
:1006C0002A40AA427DD1674ED1F804C0ACEB06089F
:1006D000B44532D014DCBCF1030F3AD009DCBCF1D4
:1006E000000F2AD0BCF1010F1CD0BCF1020F31D198
:1006F0001DE0BCF1110F17D0BCF1120F2AD119E087
:10070000B8F5881F19D006DCB8F5803F15D0B8F5CC
:10071000801F1FD111E0B8F5001F0ED0B8F5041FDF
:1007200018D10AE0CB6815E0CB681B1D12E0CB683E
:1007300008330FE0CB680C330CE08B682BB1012B36
:100740004FF0080303D0456104E0042302E0056193
:1007500000E00023FF2A01D8064601E000F104066C
:100760004FEA840501D9A5F12005D6F8008007FAE3
:1007700005FC28EA0C0803FA05F548EA0508C6F85E
:1007800000804D68ED0062D5374DAE6946F0010638
:10079000AE61AD6924F0030605F001050095334D07
:1007A00006EB050CDCF80850A607360F07FA06F82A
:1007B00025EA0805DFF8B880404503D14FF000086E
:1007C00017E044E0DFF8AC80404502D14FF001086B
:1007D0000FE0DFF8A480404502D14FF0020808E0A6
:1007E000DFF89880404502D14FF0030801E04FF058
:1007F000040808FA06F848EA0508CCF808804D68AD
:10080000D9F80060ED024D4601D5164300E096434D
:100810002E604D68DAF80060AD02554601D51643EA
:1008200000E096432E604D68DBF80060AD035D4646
:1008300001D5164300E096432E604D68DEF8006057
:10084000ED03754601D5164300E096432E60641C07
:100850000D682A46E5407FF431AFBDE8F88F00000F
:100860000804014000001110001002400000014087
:1008700000080140000C014000100140001401403C
:100880000AB1016170470904FBE700000148806874
:10089000704700005800002070B5040025D094F87F
:1008A0003D00002520B984F83C50204600F07EFA37
:1008B000242084F83D002068016821F001010160D6
:1008C0002068016841F4004101602068016821F45A
:1008D0000041016000F0D0FB4D4A6168914201D8AF
:1008E0004C4900E04C49884201D2012070BD4B497F
:1008F0002368B0FBF1F15E6826F03F060E435E60B0
:100900006368934206D94FF4967359434FF47A7350
:10091000B1FBF3F12368491C1E6A26F03F06314300
:1009200019626168914210D84900401EB0FBF1F293
:10093000521CC2F30B02042A01D2042022E0B0FBB5
:10094000F1F0401CC0F30B001CE0A268F2B301EB15
:10095000C10303EB0116431EB3FBF6F35B1C43F428
:1009600080431B0549D092B301EBC10202EB011198
:10097000401EB0FBF1F0401CC0F30B0040F480407F
:1009800040F400402168CA694CF6FF739A43104353
:10099000C861D4E9071001432068026822F0C00250
:1009A00011430160D4E9030101432068826848F2E1
:1009B000FF339A4311438160D4E90501084321685C
:1009C000CA6822F0FF021043C86001E00EE016E0A2
:1009D0002068016841F0010101602564202084F84D
:1009E0003D00256384F83E50002070BD01EB4106B8
:1009F000431EB3FBF6F35B1CB3E70120C2E701EB38
:100A00004101401EB0FBF1F0401CC0F30B00B7E702
:100A1000A086010080841E0000093D0040420F00B6
:100A20002DE9FF4F83B00025DDE910799A46934602
:100A30000446DDF848800095FFF728FF064694F845
:100A40003D0020287CD119230122884920460096A8
:100A500001F0F2FD0028F5D194F83C0001286FD098
:100A6000012084F83C0020680168C90703D10168AF
:100A700041F0010101602068016821F4006101601A
:100A8000222084F83D00402084F83E0025646762FF
:100A9000A4F82A90608D20857548E062CDE9008633
:100AA00053465A462046049901F0C8FC00287CD1E0
:100AB000208DDFF8C091202768B1012814D00228CA
:100AC000206801681ED041F480610160206841699E
:100AD00080690090BCE020684169816900910168EB
:100AE00041F400710160B3E02068016821F4806185
:100AF000016072B62068416981690091016841F422
:100B000000710AE041F40061016072B62068416939
:100B100081690091016821F48061016062B697E00B
:100B2000032865D801280CD0022843464FF0000264
:100B30004946204600960BD001F07EFDA8BB0CE094
:100B400091E032464146204601F01CFE68BB72E04F
:100B500001F072FD48BB72B633E02068016821F4F1
:100B60008061016072B620680069616A0870606A1D
:100B7000401C6062208D401E2085608D401E608577
:100B80003D4846F2A8110068B0FBF1F0C0EBC00090
:100B900000EB80000090401E009007D02068406964
:100BA000C04340070DD50098F5E727E044F8305FD3
:100BB0006773A573206940F02000206162B6257339
:100BC0001CE02068016841F4007101602068006940
:100BD000616A0870606A401C6062218D491E21852F
:100BE000618D491E618562B621680969017026E040
:100BF00032464146204601F0C5FD18B1012007B03C
:100C0000BDE8F08F20680069616A0870606A401C66
:100C10006062208D401E81B22185608D401E6085FE
:100C200020684269D243520712D4032903D10168D4
:100C300021F48061016020680069616A0870606A5F
:100C4000401C6062208D401E2085608D401E6085A6
:100C5000208D00287FF464AF84F83D7084F83E5006
:100C600084F83C50CBE70220C9E7000002001000E6
:100C70000000FFFF04000100640000202DE9FF4F89
:100C800083B09A46DDE9119793460446DDF840802B
:100C9000FFF7FCFD054694F83D0020287FD119237D
:100CA000012240492046009501F0C6FC002876D17B
:100CB00094F83C00012872D0012084F83C002068A0
:100CC0000168C90703D1016841F001010160206892
:100CD000016821F400610160212084F83D0040207A
:100CE00084F83E0000262664C4F82480A4F82A90E4
:100CF000608D20852C48E062CDE9007553465A4648
:100D00002046049901F018FC70B930E02A463946B3
:100D1000204601F06FFD58B1206C042804D12068F2
:100D2000016841F400710160012007B0BDE8F08F57
:100D3000606A216800780861606A401C6062218DE9
:100D4000491E89B22185628D521E628522685369CF
:100D5000DB435B070BD469B100781061606A401C0B
:100D60006062208D401E2085608D401E6085208D34
:100D70000028CBD12A463946204601F031FC002814
:100D8000CAD154F83D0B016841F400710160202084
:100D900004F81E09E67766770020C6E7FFE7022021
:100DA000C3E70000020010000000FFFF10B586B08E
:100DB000002100910191029103910068134988423A
:100DC00022D1134CA06940F00800A061A0696946D7
:100DD00000F0080004904FF4407000901220019041
:100DE000032003900B48FFF75BFC0B48416841F080
:100DF000E06141F002014160E06940F40010E0610F
:100E0000E06900F40010049006B010BD00540040EA
:100E100000100240000C01400000014002488168BF
:100E2000027811448160704758000020074810B5CF
:100E3000016841F010010160032000F075F80F20F7
:100E400000F006F800F024F8002010BD0020024059
:100E500070B50D4D04464FF47A712878B1FBF0F06F
:100E60000A490968B1FBF0F000F0DCFA48B9102C2F
:100E700007D200222146501E00F036F800206C6098
:100E800070BD012070BD00005800002064000020EB
:100E90000C4808B5816941F001018161816901F067
:100EA00001010091C16941F08051C161C06900F048
:100EB000805000900448416821F0E06141F00071E9
:100EC000416008BD0010024000000140002809DB1D
:100ED00000F01F02012191404009800000F1E02054
:100EE000C0F8001170470000F0B40E4B1B680C46B0
:100EF000C3F30223C3F10705042D00D90425191DEE
:100F0000072901D2002300E0DB1E012606FA05F1C5
:100F1000491E214099409E40761E16403143F0BC48
:100F200002F0DBBA0CED00E0064900F007020868A9
:100F30004FF6FF03184040EA0220034A10430860BE
:100F4000704700000CED00E00000FA052DE9F047C5
:100F50000F46050061D0434E306800F00700B842EC
:100F600009D2306820F0070038433060306800F064
:100F70000700B84251D128683B4C810712D5400781
:100F800003D5606840F4E06060602878000703D50E
:100F9000606840F4605060606068A96820F0F0000C
:100FA000084360602878C00728D06868012810D0FE
:100FB0002168022810D0890700292EDA616821F003
:100FC000030101436160FFF761FC804641F288390B
:100FD0000DE021688903EFE78901EDE7FFF756FC93
:100FE000A0EB0801494502D90320BDE8F0876068FD
:100FF000696800F00C00B0EB810FEFD1306800F0B1
:101000000700B8420BD9306820F007003843306041
:10101000306800F00700B84201D00120E5E72878E9
:10102000400705D56068E96820F4E0600843606027
:101030002878000706D56068296920F4605040EAE6
:10104000C100606000F038F86168084AC1F303111C
:10105000515CC8400649086006480068FFF7F8FE82
:101060000020C2E700200240001002401E66000877
:10107000640000205C0000200448054900684968BD
:10108000044AC1F30221515CC8407047640000204B
:10109000001002402E6600080448054900684968AF
:1010A000044AC1F3C221515CC8407047640000206B
:1010B000001002402E6600080E4A51680E4801F0EA
:1010C0000C03042B11D0082B0FD10C48C1F3834320
:1010D000C903C05C0AD55168084AC1F34041921E59
:1010E000515C054A5043B0FBF1F070470449484356
:1010F000704700000010024000127A000E660008DF
:1011000000093D002DE9F84F040070D02078C04D53
:10111000C00749D06868C0F38100012807D068681B
:10112000C0F38100022809D16868C00306D5286889
:10113000800339D560680028E7D035E06068B0F5F5
:10114000803F0BD010B1B0F5A02F11D0286820F44B
:1011500080302860286820F4802002E0286840F46D
:1011600080302860606890B1FFF790FB06460AE087
:10117000286840F480202860F0E700BFFFF786FB76
:10118000801B642873D828688003F7D50CE0FFF72C
:101190007DFB064605E000BFFFF778FB801B642857
:1011A000F0D828688003F7D420789A4E80074FF053
:1011B00001094FF0000839D5686810F00C0F07D00E
:1011C0006868C0F38100022809D16868C00306D4AA
:1011D0002868800714D52069012808D110E020690B
:1011E000B0B1C6F80090FFF751FB074605E00AE1F1
:1011F000FFF74CFBC01B0228C4D828688007F7D52E
:101200002868616920F0F80040EAC10028600DE01C
:10121000C6F80080FFF73AFB074604E0FFF736FB0D
:10122000C01B022823D828688007F7D4207800073D
:101230002CD57948A169D9B1C0F80090FFF726FBF9
:10124000074604E0FFF722FBC01B02280FD8686A9C
:101250008007F7D571484FF4FA510068B0FBF1F000
:10126000009000BF0098411E0091FAD20EE080E08D
:10127000C0F80080FFF70AFB074604E0FFF706FB13
:10128000C01B022875D8686A8007F7D42078400709
:1012900060D5E8690027C00008D4E86940F08050B4
:1012A000E861E869012700F0805000905C4801681F
:1012B000C90513D40168834641F480710160FFF7CA
:1012C000E5FA824606E000BFFFF7E0FAA0EB0A006D
:1012D00064284ED8DBF80000C005F5D5E068012889
:1012E0000AD008B1052813D0286A20F0010028622E
:1012F000286A20F0040002E0286A40F00100286219
:10130000E06841F2883B98B1FFF7C0FA82460BE0F3
:10131000286A40F004002862EEE700BFFFF7B6FA43
:10132000A0EB0A0159455AD8286A8007F6D50CE087
:10133000FFF7ACFA824605E0FFF7A8FAA0EB0A0136
:1013400059454CD8286A8007F6D41FB1E86920F0C7
:101350008050E861E06988B36968C1F381010229BE
:1013600044D00228C6F8608004D0FFF78FFA044604
:1013700038E034E0FFF78AFA074604E0FFF786FA20
:10138000C01B02282BD828688001F7D4206AB0F54A
:10139000803F05D16868A16820F400300843686088
:1013A000D4E908010843696821F4741108436860AE
:1013B000C6F86090FFF76AFA044606E025E000BF31
:1013C000FFF764FA001B022809D828688001F7D5C6
:1013D0001BE000BFFFF75AFA001B022802D90320C6
:1013E000BDE8F88F28688001F4D40EE00128F7D01A
:1013F0006868226A00F48031914204D1616A00F485
:101400007010884201D00120EAE70020E8E70000E0
:10141000001002400000424280044242640000206A
:101420000070004010B5401EB0F1807F01D3012054
:1014300010BD4FF0E02460610F21601702F04DF8FD
:101440000020A06107202061002010BD7047704778
:1014500010B590F83C20012A22D0012280F83C20CF
:10146000CA688C6822F4407222434C6822F480627D
:1014700022430C6822F4006222430C6922F4805259
:1014800022434C6922F400522243C969002322F40A
:1014900080420A4301684A6480F83C30002010BD55
:1014A000022010BD70B590F83C20012A26D00124FE
:1014B00080F83C40022280F83D2003685A689D680D
:1014C00022F070060A6832435A600D4B02689A4255
:1014D00008D0B2F1804F05D00A4B9A4202D00A4B95
:1014E0009A4204D1496825F080031943916080F83D
:1014F0003D40002180F83C10084670BD022070BDC0
:10150000002C0140000400400008004010B5040019
:1015100003D094F83D0010B107E0012010BD002079
:1015200084F83C00204600F01FF8022084F83D00BB
:10153000211D206801F04EFD012084F8460084F84A
:101540003E0084F83F0084F8400084F8410084F8AD
:10155000420084F8430084F8440084F8450084F88D
:101560003D00002010BD000008B5114A0168114877
:10157000914208D1816941F400618161806900F480
:101580000060009008BD0C4A9142FBD1C16941F056
:101590000401C161C069002200F0040000901146FE
:1015A0001E20FFF7A1FCBDE808401E20FFF78EBCFF
:1015B000002C0140001002400008004090F83D104F
:1015C000012901D001207047022180F83D100168F7
:1015D000CA6842F00102CA6000680B49884208D01C
:1015E000B0F1804F05D00949884202D008498842AD
:1015F00004D1816801F00701062903D0016841F098
:101600000101016000207047002C014000040040EF
:101610000008004070B5044690F83C000025012801
:1016200017D0012684F83C60022084F83D00206831
:10163000826822F0770222F47F4282600868502894
:1016400038D00DDC20284FD005DC90B3102811D104
:101650004AE0022070BD302846D040280AD13BE045
:1016600060282FD070280DD0B0F5805F03D0B0F582
:10167000005F12D0012584F83D60002084F83C0012
:10168000284670BDCB68D1E90121206801F0EBFC50
:101690002068816841F0770109E0CB68D1E9012138
:1016A000206801F0E0FC2068816841F4804181609D
:1016B000E1E719E0CA684968206801F089FD502116
:1016C000206806E0CA684968206801F092FD602140
:1016D000206801F0D2FCCEE7CA684968206801F0B2
:1016E00077FD40212068F4E7226801461046F0E7C4
:1016F0002DE9F0410D46040003D094F83D0018B1E7
:1017000008E00120BDE8F081002084F83C0020467C
:1017100000F040F8022084F83D002068816844F21F
:10172000070291438160211D206801F053FC22686B
:1017300090689169166A2B68AF69034340F20330E1
:10174000814341EA0721A868EF6908434FF6FC414D
:101750008843E96840EA0720014328692F6A0001AD
:1017600040EA0730084369686D6926F0220646EAB8
:101770000515294393602268906154F8460B016275
:10178000012004F81F09E0752076E0762077A07527
:101790000020B7E700B585B00021009101910291CA
:1017A0000391026820480121B2F1804F24D01F4BE1
:1017B0009A421FD1C26942F00202C261C26902F0BC
:1017C00002020492826942F00802826180690291F9
:1017D00000F0080004903020009069461448FEF79D
:1017E0005FFF1448416821F4406141F0E06141F439
:1017F0000061416005B000BDC26942F00102C261F2
:10180000C26902F001020492826942F0040282611C
:101810008069029100F00400049003200090694662
:101820000548FEF73DFFE5E70010024000040040D8
:10183000000C0140000001400008014070B590F824
:101840003E60044690F83F5090F8423090F84320B4
:10185000022021B104290ED0012E1BD114E0012E4B
:1018600018D1012B16D184F83E0084F842000122E1
:101870000021206820E0012D0CD1012A0AD184F832
:101880003F0084F8430014E0012D03D1012B01D166
:10189000012A01D0012070BD84F83E0084F83F0089
:1018A00084F8420084F8430001220021206801F0FE
:1018B000CDFB01220421206801F0C8FB20680168EB
:1018C00041F001010160002070BD70472DE9F04139
:1018D00004460068C66805694FF00007A90713D5DC
:1018E000B10711D5F91E01610120207720688069B8
:1018F0008007204602D0FFF7E8FF04E000F0A6F8DA
:10190000204600F038F92777680716D5700714D5F8
:1019100021686FF004000861022020772068806948
:1019200010F4407F204602D0FFF7CFFF04E000F024
:101930008DF8204600F01FF92777280715D53007C6
:1019400013D521686FF00800086104202077206813
:10195000C0698007204602D0FFF7B7FF04E000F01F
:1019600075F8204600F007F92777E80616D5F00647
:1019700014D521686FF010000861082020772068D6
:10198000C06910F4407F204602D0FFF79EFF04E0BC
:1019900000F05CF8204600F0EEF82777E80708D062
:1019A000F00706D021686FF001000861204600F0C2
:1019B00031F9280608D5300606D521686FF0800079
:1019C00008612046FFF742FD680608D5700606D577
:1019D00021686FF040000861204600F099FAA806DF
:1019E0000AD5B00608D521686FF0200008612046AE
:1019F000BDE8F041FFF72BBDBDE8F08100B585B033
:101A00000021009101910291039100680C498842E4
:101A100013D10C48816941F00401816180696946F4
:101A200000F0040004904FF44070009002200190F8
:101A3000032003900448FEF733FE05B000BD00000C
:101A4000002C01400010024000080140704770B5B2
:101A5000044690F83C0000260D4601280FD00120D6
:101A600084F83C006AB1042A1DD0082A2FD00C2A21
:101A70003FD00126002084F83C00304670BD022093
:101A800070BD206801F002FB2068816941F0080107
:101A900081612068816921F0040181612068816988
:101AA0002A69114311E0206801F018FB2068816960
:101AB00041F4006181612068816921F48061816164
:101AC000206881692A6941EA02218161D2E72068A0
:101AD00001F030FB2068C16941F00801C161206854
:101AE000C16921F00401C1612068C1692A691143FB
:101AF00011E0206801F04AFB2068C16941F40061EF
:101B0000C1612068C16921F48061C1612068C16937
:101B10002A6941EA0221C161ACE710B5040003D093
:101B200094F83D0010B107E0012010BD002084F8BA
:101B30003C00204600F01EF8022084F83D00211DE4
:101B4000206801F047FA012084F8460084F83E003E
:101B500084F83F0084F8400084F8410084F8420093
:101B600084F8430084F8440084F8450084F83D007C
:101B7000002010BD7047704710B50446022249B1DD
:101B800004290ED0082913D094F84100012816D05A
:101B9000012010BD94F83E000128F9D184F83E20C0
:101BA0000FE094F83F000128F2D184F83F2008E0CC
:101BB00094F840000128EBD184F8402001E084F83B
:101BC00041200122206801F041FA0F492068884233
:101BD00003D1426C42F4004242642068884208D03B
:101BE000B0F1804F05D00949884202D008498842A7
:101BF00004D1816801F00701062903D0016841F092
:101C000001010160002010BD002C014000040040D3
:101C1000000800402DE9F04F0068B04991B08842BB
:101C20007DD1DFF8BCA2DAF80000406AAD4CDFF8E5
:101C3000B8B26062DBF800104D6A47F23058A56216
:101C4000404503DBA0F57F40FF38606248F6A041C5
:101C500048434FF4DD6990FBF9F004F043FA20614A
:101C600004F004FAE062019003F0ADFD9F4AA04B3E
:101C700003F0C0FD06460F46E06B03F0A4FD3B46B3
:101C8000324603F021FB03F06FFDE0630090454511
:101C900003DBA5F57F45FF3DA562A06A48F6A0419C
:101CA000484390FBF9F004F01DFA606104F0DEF99E
:101CB000206403F088FD8D4A8D4B03F09BFD0646A2
:101CC0000D46206D03F07FFD32462B4603F0FCFAF3
:101CD00003F04AFD2065606D0025864E864F03287F
:101CE00004D0022821D0012879D094E06563A5644E
:101CF000E563256525630022802130466564FEF793
:101D0000BFFD002240213046FEF7BAFD002220210F
:101D10003046FEF7B5FD00221021304600E095E088
:101D2000FEF7AEFD3868456345E0E069801C042895
:101D300002D8386845633AE0206B04F0D3F9804656
:101D4000009804F0CFF9014642466C4801F060F873
:101D500004F08CF9606304F0C5F98046E06A04F091
:101D6000C1F9014665484246483001F051F804F097
:101D70007DF9A06300280BDD012280213046FEF7AB
:101D80007FFD002240213046FEF77AFDA06B0CE07B
:101D9000002280213046FEF773FD012240213046AB
:101DA000FEF76EFDA06B4042A06339684863206A6D
:101DB000801C042802D8386885632CE0606C04F02D
:101DC00091F98046206D04F08DF901464B4842465A
:101DD000903001F01DF804F049F9A0646BE038E0A0
:101DE000012220213046FEF74BFD00221021304613
:101DF000FEF746FDE06C0CE0002220213046FEF7A5
:101E00003FFD012210213046FEF73AFDE06C4042D2
:101E1000E06439688863DAF800004562DBF80000A6
:101E20004562206C002811D0E06C009034A101A81C
:101E3000236CA26CFEF7CCF901A8FEF779FA82B206
:101E40004FF0FF3301A9314800F08EFA11B0BDE820
:101E5000F08FE563256525636564606B04F042F9E6
:101E60008046019804F03EF9014624484246483035
:101E700000F0CEFF04F0FAF8A06300280BDD012289
:101E800080213046FEF7FCFC002240213046FEF760
:101E9000F7FCA06B0CE0002280213046FEF7F0FC3E
:101EA000012240213046FEF7EBFCA06B4042A063CC
:101EB00039684863A06C04F015F98046206C04F082
:101EC00011F901460D484246D83000F0A1FF04F058
:101ED000CDF8E06400288FDD82E7000000080040B4
:101EE0005C02002000000020A40200207B14AE470A
:101EF000E17A843F0008014014020020A000002085
:101F000025642C25642C25640A0000007C03002035
:101F10007047704770470000F8B5016804460868CC
:101F2000CA684B6910F00F0F4FF0000559D003F04D
:101F3000010602F49077374365D0C10705D0D1057B
:101F400003D5616C41F001016164410705D5D907F2
:101F500003D0616C41F002016164810705D5D907A6
:101F600003D0616C41F004016164010707D502F000
:101F70002001314303D0616C41F008016164616C60
:101F800000293AD0800604D5900602D5204601F0FB
:101F900071F920684069616CC0F38010090700D4B2
:101FA00060B3204601F03FF920684069400621D522
:101FB0002068143050E8001F21F0400140E8001272
:101FC000002AF5D1E06BA8B16D494163E06BFEF7E3
:101FD00009FB002811D0E06B416B01B0BDE8F04077
:101FE000084783060FD593060DD52046BDE8F84077
:101FF00001F040B92046FFF78DFFF8BD2046FFF7FE
:1020000089FF6564F8BD266B2023012E7CD1C606AE
:102010007AD5D60678D508684868009048694FF0A8
:102020000206400640D5E16B086840680004000CD9
:10203000E8D0A28D8242E5D9E085886920282DD09C
:1020400020680C3050E8001F21F4807140E8001235
:10205000002AF5D12068143050E8001F21F001015A
:1020600040E80012002AF5D12068143050E8001F23
:1020700021F0400140E80012002AF5D184F84230F6
:10208000256320680C3050E8001F21F0100140E863
:102090000012002AF5D1E06BFEF781FA6663A08D8D
:1020A000E18D401A81B22AE0A08DE18D401A81B203
:1020B000E08D0028A6D00029A4D022680C3252E876
:1020C000000F20F4907042E80007002FF5D120683F
:1020D000143050E8002F22F0010240E80027002FC2
:1020E000F5D184F84230256320680C3050E8002F89
:1020F00022F0100240E80023002BF5D16663204651
:10210000FFF707FFF8BDFFE705062BD5150629D514
:1021100094F841002128F5D1A068B0F5805F01D185
:102120002069B0B1206A411C2162216800784860B2
:10213000E08C401E0004000CE084E3D12068C168FC
:1021400021F08001C1602068C16841F04001C16098
:10215000D8E7206A0088C0F308004860206A801C25
:102160002062E5E74006CDD55006CBD5CA682046AB
:1021700022F04002CA6084F8413000F045F9C1E71E
:102180001732000870B5040004D094F8410000250F
:1021900010B106E0012070BD84F84050204600F0E8
:1021A00023F8242084F841002068C16821F40051FC
:1021B000C160204601F0C0F82068016921F4904117
:1021C00001612068416921F02A0141612068C168EC
:1021D00041F40051C1606564202084F8410084F816
:1021E00042006563002070BD70B586B00024009485
:1021F000019402940394444E03684449022003224C
:10220000434DB3422DD18B6943F480438B618B697D
:1022100003F4804304938B6943F008038B6189695D
:10222000039201F0080104914021CDE900106946B4
:102230002846FEF735FA8020CDE900046946284695
:102240000294FEF72DFA3348416841F0E06141F015
:1022500004014160002211462520FEF745FE25209D
:102260004EE02D4EB34222D1CB6943F40033CB6113
:10227000CB6903F4003304938B6943F004038B614F
:102280008969264D01F0040104910421CDE9001073
:10229000039269462846FEF703FA0820CDE90004B8
:1022A000694628460294FEF7FBF906B070BD1C4E45
:1022B000B342FAD1CB6943F48023CB61CB6903F4F9
:1022C000802304938B6943F008038B61896903922F
:1022D00001F0080104913115CDE900106946284646
:1022E000FEF7DEF9F014CDE90004694628460294B1
:1022F000FEF7D6F9002211462720FEF7F5FD27202C
:10230000FEF7E4FDD1E70000003801400010024074
:10231000000C014000000140004400400008014062
:102320000048004090F84230202B01D00220704736
:1023300021B11AB10023036301F05AB8012070479C
:1023400000680649884207D1054901200870024605
:10235000491C0448FFF7E6BF704700000038014001
:1023600000000020340300202DE9F843044690F8D3
:102370004100984616460D46202802D00220BDE8AE
:10238000F88385B17EB100206064212084F841008B
:10239000FEF77CFAA6848146E684A0682027B0F583
:1023A000805F02D003E00120E9E7206910B12E46EA
:1023B00000250EE000260CE08021204601F033F8D5
:1023C000A8B9C6B116F8010B21684860E08C401E20
:1023D000E084E08C4B464FF00002CDF800800028EE
:1023E000EAD14FF04001204601F01DF840B184F8D9
:1023F00041700320C3E735F8020BC0F30800E3E7A0
:1024000084F841700020BAE77047FEE701684A6926
:10241000D24352050FD46FF480624A61002140F824
:10242000301F202242738173026942F0040202616C
:102430000173012070470020704700002DE9F84F1C
:102440000446006889460B9D01689846174641F48A
:10245000806101602068016841F48071016000952D
:102460004FF0011B0022594620460A9B00F0E4F879
:102470004FF4007A40B120680068C00501D5C4F867
:1024800040A00320BDE8F88F216809F0FE00086134
:102490002B46284920460A9A00F016F9F0BB20681E
:1024A0004169806900902A4620460A9900F0A2F905
:1024B00040B1206C04283AD12068016841F40071D1
:1024C000016034E0FEB2B8F1010F09D02168380A8A
:1024D00008612A4620460A9900F08CF90028E8D1C4
:1024E000206806612A4620460A9900F083F90028F0
:1024F000DFD12068016841F48071016000950022FD
:10250000594620460A9B00F097F80028B3D121686D
:1025100009F0FF0040F00100086100E007E02B46F1
:10252000044920460A9A00F0CFF80028AAD00120DA
:10253000A8E70000020001002DE9F8430446006806
:102540000D46DDE9089701689846164641F480710A
:1025500001604B4600224FF001112046009700F029
:102560006BF848B120680068C00502D54FF40070D0
:1025700020640320BDE8F883216805F0FE000861AF
:102580003B464A461549204600F09EF888B9206827
:102590004169806900903A464946204600F02AF990
:1025A00048B1206C042804D12068016841F400710E
:1025B00001600120DEE7F5B2B8F1010F09D0216812
:1025C000300A08613A464946204600F013F90028CF
:1025D000E7D1206805610020CCE70000020001007F
:1025E00070B516460D4604461EE02046FFF70EFF66
:1025F00008B1012070BD681C16D0FEF747F9801B9A
:10260000A84200D885B920684069C04340070BD56F
:10261000002044F8300F20216173A073216941F03C
:10262000200121612073E4E720684069C04340072E
:10263000DBD4002070BD00002DE9F0479846174616
:102640000D460446C1F30746DDF820902AE000BF9E
:10265000B8F1FF3F26D0FEF719F9A0EB090141457B
:1026600002D8B8F1000F1DD12068012E16D0806964
:1026700025EA00000004000C12D00020B84211D15D
:10268000002044F8300F20216173A073216941F0CC
:102690002001216120730120BDE8F0874069E7E750
:1026A0000120EBE72068012E0AD0806925EA0000AE
:1026B0000004000C06D00020B842C9D00020EBE78F
:1026C0004069F3E70120F7E72DE9F0479846164601
:1026D0000D4604464FF000094FF0200AC1F30747AA
:1026E00023E020684069C043400515D42068016894
:1026F00041F40071016021686FF480604861C4F8A2
:10270000309084F83DA084F83E90216C41F00401A3
:10271000216484F83C9021E0701C06D0FEF7B6F8E6
:10272000A0EB0800B04203D816B1012F1FD021E062
:102730002068012F15D0806925EA00000004000CF4
:1027400018D000BF44F8309F84F80DA084F80E9094
:10275000216941F02001216184F80C900120BDE83D
:10276000F087406925EA00000004000CEAD12068E7
:10277000406901E02068806925EA00000004000C3F
:10278000AFD1ECE72DE9F041002590460E46044616
:10279000202728E04069C043C0060CD454F8301B01
:1027A0006FF01000486144F810596777A577206AE8
:1027B0002062257714E0FEF769F8A0EB0800B0422C
:1027C00000D886B920684069C04340060BD544F85C
:1027D000305F6773A573206940F020002061257386
:1027E0000120BDE8F08120684169C9434906D1D480
:1027F0000020F6E770B516460D4604461EE020465A
:10280000FFF704FE08B1012070BD681C16D0FEF76A
:102810003DF8801BA84200D885B920684069C043B4
:1028200000060BD5002044F8300F20216173A073FF
:10283000216941F0200121612073E4E720684069AB
:10284000C0430006DBD4002070BD00002DE9F74F27
:102850008EB00CA902A8CDE900010BAB03AA09A90F
:1028600007A801F019FB20B14FF0FF3011B0BDE80F
:10287000F08FBDF80800C0057ED5039803F032FC48
:102880006FF01D04214603F06AFE8246049803F0AF
:1028900029FC214603F063FE8146059803F022FCE3
:1028A000214603F05CFE8046069803F01BFC21469F
:1028B00003F055FE05460121504603F050FE064642
:1028C000414603F06FFC07464FF04041484603F095
:1028D00069FC0446294603F065FC394603F090FA8A
:1028E00003F062FA00F072FE4FF0663B5A463D4B31
:1028F00002F080FF02F0B6FC0E990860012140460C
:1029000003F02DFE4146009003F04CFC07462046A4
:10291000494603F047FC394603F04CFD4FF07E5129
:1029200003F06EFA03F040FA07460C46304649467B
:1029300003F038FC06462946009803F033FC314684
:1029400003F05EFA03F030FA3A46234601F086F8C7
:102950005A46244B02F04EFF02F084FC0F990860A7
:102960002946084603F01EFC07464146084603F088
:1029700019FC0646494600E031E0084603F012FC27
:1029800004465146084603F00DFC214603F038FA90
:10299000314603F00FFD394603F00CFD03F004FA55
:1029A00006460C464146484603F0FCFB07462946CE
:1029B000504603F0F7FB394603F022FA012103F0F9
:1029C000CEFD03F0F1F93246234601F047F85A46AE
:1029D000044B02F00FFF02F045FC10990860002044
:1029E00044E7000066A64C4038B5684601F05CFE3E
:1029F00010B14FF0FF3038BD782002F027FB10B146
:102A00006FF0010038BD782001F006FE10B16FF0C4
:102A1000020038BD642002F0CDFA10B16FF003005F
:102A200038BD01F02FFA10B16FF0040038BD164820
:102A3000044601F0BBFC0546E01C01F0B7FC45EA8A
:102A4000C005A01D01F0B2FC45EA801080B201F083
:102A500009FB10B16FF0050038BD40F2731001F0B2
:102A6000E9F810B16FF0060038BD642001F0C8FA33
:102A700010B16FF0070038BD012002F097F900286F
:102A8000F9D06FF0090038BD9400002030B585B052
:102A9000002000900190029003901B48816941F052
:102AA00020018161816901F020010491816941F077
:102AB00004018161816901F004010491816941F09F
:102AC000080181618069114D00F008000490012225
:102AD000F0212846FDF7D4FE30200124CDE9000482
:102AE0000220CDE9024069462846FDF7D9FDC02005
:102AF000CDE900040320CDE9024069462846FDF7F0
:102B0000CFFD05B030BD00000010024000080140BC
:102B10000D4810B50B4901600C49416000214FF48C
:102B200080428160C0E9031241618161C16101623B
:102B3000FDF7B2FE002803D0BDE81040FDF72DBD23
:102B400010BD000000540040C0010020801A0600A3
:102B500010B596B000240F9410941194129413940D
:102B60001C2168461494FDF70AFC202107A8FDF7F4
:102B700006FC2C482A4901604721C0E90114632161
:102B8000C0E9031444618461FEF7C0FC08B1FDF79D
:102B900004FD4FF480500F900FA92248FEF73AFD34
:102BA00008B1FDF7FAFC1F48FEF7B7FF08B1FDF7C3
:102BB000F4FC139413A91B481494FEF773FC08B19A
:102BC000FDF7EBFC6020CDE900040294039404942B
:102BD00005940022694613480694FEF738FF08B1B1
:102BE000FDF7DBFC042269460E48FEF730FF08B112
:102BF000FDF7D3FC0794089409944FF400500A940D
:102C0000CDE90B4007A907480E94FEF721FC08B157
:102C1000FDF7C3FC0348FEF7F1FE16B010BD00003F
:102C2000002C01401402002010B58CB0242168460D
:102C3000FDF7A5FB0024154809944FF080410A9444
:102C4000C0E900144FF6FF71C0E9024104618461DC
:102C50000320CDE900040120CDE902040494CDE96C
:102C600005400794694609480894FEF741FD08B1FC
:102C7000FDF793FC099409A904480A94FEF712FC95
:102C8000002801D0FDF789FC0CB010BD5C020020CB
:102C900010B58CB024216846FDF771FB002416485E
:102CA000099414490A94C0E900144FF6FF71C0E971
:102CB0000241046184610320CDE900040120CDE9D3
:102CC00002040494CDE90540079469460A48089433
:102CD000FEF70EFD08B1FDF760FC099409A906484E
:102CE0000A94FEF7DFFB002801D0FDF756FC0CB07C
:102CF00010BD000000040040A402002010B586B002
:102D000000241748009401940294039404941349F6
:102D10000594016041F61F41C0E901146321C0E937
:102D200003148461FEF7F2FB08B1FDF736FC4FF4A3
:102D30008050009069460A48FEF76CFC08B1FDF728
:102D40002CFC049404A906480594FEF7ABFB00286C
:102D500001D0FDF722FC06B010BD000000080040C5
:102D6000EC0200200C4810B50A4901604FF41651DE
:102D70004160002181600C22C160C0E904128161C0
:102D8000C161FFF7FFF9002803D0BDE81040FDF74F
:102D900004BC10BD00380140340300200C4810B5BD
:102DA0000A4901604FF4E1314160002181600C2249
:102DB000C160C0E904128161C161FFF7E3F9002835
:102DC00003D0BDE81040FDF7E8BB10BD0044004053
:102DD0007C0300200C4810B50A4901604FF4E13132
:102DE0004160002181600C22C160C0E90412816150
:102DF000C161FFF7C7F9002803D0BDE81040FDF717
:102E0000CCBB10BD00480040C4030020FEE7FEE735
:102E10002DE9F047040011D0206C60648146E06B1E
:102E20002064C4E906218046104603F0C3FA054633
:102E3000E063207828B101283BD038E00020BDE8CD
:102E4000F0872946606803F0ADF960622946A06802
:102E500003F0A8F9A16A02F0D3FF0646A062606BF6
:102E6000A063206B60634146284603F0A3FA014645
:102E70002063E06803F096F9E0623046616903F090
:102E80005DFA606908D380F00040A16A03F056FA49
:102E900003D2606980F00040A062D4E9090102F029
:102EA000AFFFE16A31E0206980F000402062206AD3
:102EB000C5E74146284603F07DFA616803F072F9E0
:102EC000074660622946A06803F06CF90646A062D6
:102ED000606BA063206B60630121404603F03FFB01
:102EE000294603F05CFA494602F08AFF0146206356
:102EF000E06803F057F90546E0623146384602F0D3
:102F00007FFF294602F07CFF216A02F079FF2062F0
:102F1000216903F013FA2069C8D380F00040216AC8
:102F200003F00CFAC3D2BEE710B50028029C16D0FD
:102F3000002A14D00170116841605168816000F16D
:102F40000C0C91688CE81A000021816341630163D5
:102F50000162C1628162416241640164C16310BD6A
:102F600070477047FDF75ABF30B58FB028216846CB
:102F7000FDF705FA14210AA8FDF701FA012108045A
:102F8000CDE900100024029402250491CDE90750F8
:102F90004FF4E01009906846FEF7B4F808B172B635
:102FA000FEE70F20CDE90A054FF48060CDE90C4023
:102FB00002210AA80E94FDF7C9FF002801D072B6BD
:102FC000FEE70FB030BD70470148FEF77FBC000040
:102FD000EC020020F0B50268194B1A4C1A4D4FF064
:102FE0008047984205D0B84203D0A04201D0A84201
:102FF00003D122F070064A683243984205D0B842A5
:1030000003D0A04201D0A84203D122F44074CA6880
:1030100022434C6922F08002224302608A68C26225
:103020000A688262984201D1096901630121416104
:103030000169C90703D0016921F001010161F0BDF7
:10304000002C0140000400400008004010B501F0D1
:103050001F030121046A99408C430462016A9A406B
:103060001143016210BD10B5846842EA032224F4C2
:103070007F440A432243826010BD826822F07002BE
:103080000A4342F0070181607047000030B5036ACF
:10309000026A22F0010202624268846924F0730528
:1030A0000C682C4323F002058B682B430A4DA84281
:1030B0000BD123F00805CB6822F440722B434D69F5
:1030C00023F0040315438A692A43426084614968F6
:1030D0004163036230BD0000002C014030B5026A3C
:1030E000036A23F010030362436884690D6824F4C3
:1030F000E64444EA05248D6822F0200242EA0512E3
:103100000B4DA8420ED1CD6822F0800242EA051292
:103110004D6923F4406343EA85038D6922F0400240
:1031200043EA85034360846149688163026230BD7C
:10313000002C014030B5036A026A22F480720262F8
:103140004268C46923F4007324F073050C682C43AF
:103150008D6843EA05230C4DA8420ED1CD6823F4B7
:10316000006343EA05234D6922F4405242EA051206
:103170008D6923F4806342EA05124260C4614968A4
:10318000C163036230BD0000002C014030B5046A09
:10319000026A22F4805202624268C3690D6823F415
:1031A000E64343EA05238D6824F4005444EA0534D9
:1031B000064DA84204D14D6922F4804242EA8512AC
:1031C0004260C36149680164046230BD002C014063
:1031D00010B5036A046A24F001040462846924F0CF
:1031E000F00444EA021423F00A020A4384610262F2
:1031F00010BD10B5036A046A24F0100404628469E7
:1032000023F0A00324F4704444EA023243EA01119B
:103210008261016210BD10B5406A0021C185C18480
:10322000FEF778FE10BD01680C3151E8002F22F442
:10323000907241E80023002BF5D10168143151E868
:10324000002F22F0010241E80023002BF5D1016B91
:10325000012909D101680C3151E8002F22F0100238
:1032600041E80023002BF5D1202180F842100021F5
:103270000163704708B590F84210222901D002205E
:1032800008BD82684FF480539A4201D1016921B18F
:10329000816A9A421BD04AB10AE00268816A526888
:1032A000C2F308020A80816A891C08E0026972B1CF
:1032B0000268526802F07F020A70816A491C8162CA
:1032C000C18D491E0904090CC18503D01BE00268A9
:1032D0005268F1E70168CA6822F02002CA600168FA
:1032E000CA6822F48072CA6001684A6922F0010249
:1032F0004A61202180F8421000214163026B012ABB
:1033000003D0FFF71DF8002008BD016301680C31F0
:1033100051E8002F22F0100241E80023002BF5D1E4
:1033200001680A68D20602D50A6849680091818D51
:10333000FEF7EFFDE7E7000070B50446006801699D
:10334000E26821F44051114301612169A0680843FA
:10335000616908432168CA6841F20C639A430243D9
:10336000CA6020684169A26921F44071114341613A
:103370001E492068884202D1FDF78EFE01E0FDF76C
:103380007BFE00EBC00101EB00126068642180004D
:10339000B2FBF0F3B3FBF1F36FF018067343B2FB2B
:1033A000F0F5B2FBF0F605EB8305322303EB0515D0
:1033B000B5FBF1F5B6FBF1F605F0F00505EB0615EA
:1033C000B2FBF0F6B2FBF0F0B0FBF1F06FF01802D8
:1033D000504306EB800003EB0010B0FBF1F02168D6
:1033E00000F00F002844886070BD000000380140E4
:1033F00081628285C28500214164222180F84210C9
:10340000016921B10168CA6842F48072CA6001682A
:103410004A6942F001024A610068C16841F0200136
:10342000C160002070472DE9F843984617460D46C5
:103430000446089E24E0701C22D0FDF727FAA0EB7A
:103440000800B0421AD8CEB12068C168490717D524
:10345000802D15D0402D13D00168C94309070FD422
:1034600001680025406800902046FFF7DCFE082038
:10347000606484F840500120BDE8F8830320FBE736
:103480002068006835EA000004D00020B842D2D09D
:103490000020F1E70120F9E70148FEF73DBD0000FB
:1034A000340300200148FEF737BD0000C4030020AC
:1034B000FEE7490050EAC12018BF04204A0D18BF9A
:1034C00040F0010040F2FF72B2EB515F08BF40F0E4
:1034D0000200012808BF052070470907090E0028CF
:1034E00004DB00F1E02080F80014704700F00F00CA
:1034F00000F1E02080F8141D70472DE9F0414F1EC7
:1035000000EBC7010446D1E9000115461E4637F01D
:1035100006020DD02A46334602F06CF97F1E04EBFA
:10352000C703D3E9002301F0CFFE37F00602F1D143
:10353000022F25D0042F13D0062F18BFBDE8F0812D
:103540002A46334602F056F9D4E90A2301F0BCFEBC
:103550002A46334602F04EF9D4E9082301F0B4FEBE
:103560002A46334602F046F9D4E9062301F0ACFEC0
:103570002A46334602F03EF9D4E9042301F0A4FEC2
:103580002A46334602F036F9D4E9022301F09CFEC4
:103590002A46334602F02EF9D4E90023BDE8F04173
:1035A00001F092BE012202F0ACBF01F08DBE0022FC
:1035B00013461046114601F043BF0000024A0020A6
:1035C000110702F09EBF000001FDFFFF2DE9F04D45
:1035D0008D4F21F0004A86B005460C46BA452ADBDD
:1035E000AAEB070028430AD08848824501DC1AD19B
:1035F000CDB106B02846BDE8F04DFFF7D3BF844AF1
:10360000844B284602F0F6F807460E46824A834B62
:103610002846214602F0EEF806B03A463346BDE8A9
:10362000F04D01F051BE0120FCF7D8FE06B0BDE818
:10363000F04DFFF7BCBF7A48824542DABAF1795FB4
:103640000BDA2846FFF735FF042808BFFFF7B6FF5F
:10365000284606B02146BDE8F08D2A460B461046A6
:1036600002F0C8F8834602466E480E460B46062115
:103670007844FFF742FF5A46334602F0BBF88046D3
:1036800069488A465A46334604217844FFF735FF95
:103690005A46334602F0AEF800223B4601F014FED3
:1036A00002460B464046514601F0CAFE2A462346D2
:1036B00002F0A0F806B02A462346BDE8F04D01F01E
:1036C00003BE284624F0004100223D463B4602F05E
:1036D0008FF94FF0FF3202F014FF064602465348BE
:1036E0000F460B4606217844FFF707FF32463B465C
:1036F00002F080F8CDE900014D4832463B460421F6
:103700007844FFF7FAFE32463B4602F073F8002297
:103710002B4601F0D9FD834602913046394601F02F
:103720007BFD804643480D46504517DCDDE900012E
:103730005A46029B01F084FE42462B4602F05AF89C
:1037400042462B4601F0C0FD012202F0DAFE304A6B
:10375000304B02F03FFA304A304B4CE04FF0000A59
:1037600052460B46404601F0AFFDCDE903105246EC
:103770002B461046194602F03DF832463B4602F011
:1037800037F9DDE9033201F05BFE06460F46DDE95D
:1037900000015A46029B01F053FE8346009101222C
:1037A0003046394602F0ADFE194A1A4B02F020F9B4
:1037B00006460F4601224046294602F0A2FE5A461E
:1037C000009B02F017F832463B4602F003FA064629
:1037D0000F4601225046294602F093FE0E4DDFF8B7
:1037E00058802A46434602F003F932463B4602F02F
:1037F000FFF82A46434602F0FBF8002CD8BF81F0C0
:10380000004106B0BDE8F08D0000F03F0000F07F01
:10381000075C143326A6913C182D4454FB21F93F34
:103820000000E03F0C3C0000223C0000963B000002
:10383000AC3B00003333EF3FFB21E93F2DE9F84F6C
:1038400004460D4621F0004000917349814211DC8D
:103850007249884201DC06D12CB120462946BDE8D8
:10386000F84FFFF79FBE6E48002DCCBF6D496E49E3
:10387000BDE8F88F6D49814211DD6D498142D8BFA5
:103880004FF0FF366DDD20462946FFF712FE042873
:1038900008BFFFF793FE20462946BDE8F88F65492B
:1038A000654F25F00045814233DD6449814219DDD1
:1038B000002632464FF080432046294601F004FDA1
:1038C00080468A4601222046294602F01AFE00223E
:1038D0003B4602F07FF94246534601F0B1FD0446F3
:1038E0000D463EE001260022BA463B4620462946C8
:1038F00001F0EAFC80460F46002253462046294646
:1039000002F068F942463B4601F09AFD04460D4636
:1039100027E04B4981421BDDDFF828A10226002267
:1039200053462046294601F065FF00223B4601F040
:10393000CBFC80460F46002253462046294602F023
:1039400049F942463B4601F07BFD04460D4608E03E
:10395000032622462B4600203B4901F071FD044618
:103960000D4622462B461046194601F043FF8B4672
:10397000824602460B4601F03DFF074602463348A9
:1039800088460B4606217844FFF7B7FD52465B4652
:1039900001F030FF82462E488B463A4643460521C9
:1039A0007844FFF7AAFD3A46434601F023FF02465A
:1039B0000B46002E504659460CDA01F085FC224693
:1039C0002B4601F017FF01B022462B46BDE8F04F11
:1039D00002F00EB801F078FC22462B4601F00AFFF7
:1039E0001C4A7A4402EBC603D3E9002302F0F2F842
:1039F00022462B4602F0EEF8174A7A4402EBC60341
:103A0000D3E9002301F0F4FF009A002AB8BF81F047
:103A10000041BDE8F88F0000000010440000F07F76
:103A2000182D4454FB21F93FFB21F9BF0000DC3F76
:103A30000000203E0000F33F0000F03F0000E63FA2
:103A4000008003400000F83F0000F0BFAE390000E6
:103A50006C3900000A390000D23800002DE9F04D21
:103A60009446CCF1000423F000464CEA0404594F7C
:103A700046EAD4749A46884621F00042BC4206D8F1
:103A8000454240EA050442EAD474BC4204D9BDE888
:103A9000F04D6246FFF789BDAAF14055A5F17F655B
:103AA00055EA0C040BD0022404EAAA744A4DDFF84C
:103AB0002CE144EAD87452EA000B04D00CE0BDE8D3
:103AC000F04DFFF7BBBE002C14BF012CBDE8F08DFC
:103AD000022C30D0032C32D056EA0C0B0AD0BE4256
:103AE00020D1BA4209D126F0804622F080423346E6
:103AF000114617E000291ADB25E0DFF8E4B0FB44AB
:103B0000002C04BFDBE90001BDE8F08D012C02BFF1
:103B1000DBE9000181F00041BDE8F08D022C0AD004
:103B2000032C0CD0BA4212D1B8F1000F0BDA2A489C
:103B30002C49BDE8F08D28462B49BDE8F08D28467C
:103B40007146BDE8F08D24482849BDE8F08D921BF0
:103B500012153C2AC4BF204F244E10DCBAF1000FCE
:103B6000BEBF12F13C0F00273E4608DB624601F063
:103B700067FC21F00041FFF761FE07460E4694B155
:103B8000012C08BF86F000460DD0194A194B022CB3
:103B90003846314615D002F01DF82A46BDE8F04DF2
:103BA000114B02F017B8002213463846314601F097
:103BB0009FFD04BF0220FCF711FC38463146BDE8EA
:103BC000F08D02F007F82A46BDE8F04D064B01F0F3
:103BD0000FBF00000000F07F182D4454FB2109C0E6
:103BE00066380000FB21F9BFFB210940FB21F93FAA
:103BF000075C143326A6A13C08B560B120208DF8DF
:103C0000000028208DF8010030208DF802003820B7
:103C10008DF8030004E0A32204216846FCF7A7FB0B
:103C20006A46042140F69E2001F07EFA00F006FF6D
:103C300008BD00003EB5044602208DF80000CA20F1
:103C40008DF80100E3208DF8020009208DF80300B3
:103C50006A460421682001F067FAA3208DF800006D
:103C6000610609D5C0218DF80110C8218DF8021018
:103C7000C2218DF8031005E08DF801008DF80200D7
:103C80008DF8030014F4C07F09D0C4218DF804100E
:103C9000CC218DF80510C6218DF8061005E08DF8B1
:103CA00004008DF805008DF806008DF808008DF8E9
:103CB00007008DF809006A460A2140F6A72001F0A6
:103CC00033FAA0074FF0D80503D020208DF800006C
:103CD00001E08DF800506A46012140F6B62001F05F
:103CE00023FAA00601D5012000E0002000F08EF8A4
:103CF00014F4C07F1ED0E0050AD5B2208DF8000074
:103D00008B208DF80100B6208DF802009B2009E081
:103D1000B0208DF8000080208DF80100B4208DF8CF
:103D2000020090208DF803006A46042140F6A2208C
:103D300001F0FAF9E1074FF40B6022D0F8218DF879
:103D400000106A46012101F0EFF9FA21072000F086
:103D500079FA072000F044FA012000F061FA6420AB
:103D600000F004FB4FF4FA7000F010FBC821254866
:103D700000F0FEF9282000F013FA0A2000F020FAE3
:103D800005E08DF800506A46012101F0CDF9A00749
:103D900003D5D9208DF8000001E08DF800506A4667
:103DA000012140F23D7001F0BFF9600701D501200B
:103DB00000E0002000F048F8E00601D5012000E016
:103DC0000020FFF719FF104D44F00800688100F053
:103DD00035FE0020A873600601D50620A87314F4F0
:103DE000C07F02D0A87B801DA87314F0140F02D0EE
:103DF000A87B1030A873A00702D0A87B001DA87371
:103E000000203EBD09E3CA020C0400200EB54FF4A9
:103E1000976310B106A107C901E008A207CA8DE89F
:103E200007006A460921184601F07EF90EBD000020
:103E3000B8AAB38DB4980D355D000000B8AAAAAA3F
:103E4000B088C3C5C700000008B560B1C0208DF8B8
:103E50000000C2208DF80100C4208DF80200C620A9
:103E60008DF8030004E08B2204216846FCF77FFAFA
:103E70006A46042140F6982001F056F900F0DEFD74
:103E800008BD0000C8234FF48062024940F6F630B6
:103E900000F078BC886600082DE9FF4F89B017460E
:103EA000DDE916520024554E884681462C80A246F4
:103EB000B07B694600F028FD4FF0FF3B18B1584633
:103EC0000DB0BDE8F08F708910F0140F4CD0BDF824
:103ED00000109DF8022049BA090441EA02239DF826
:103EE00003100B433B60BDF804109DF8062049BA4F
:103EF000090441EA02229DF807101B140A437A6064
:103F0000BDF808109DF80A4049BA090441EA0421A5
:103F10009DF80B4012142143B960BDF80C409DF888
:103F20000EC064BA240444EA0C2C9DF80F40091416
:103F30004CEA040CC7F80CC04FEA2C475B434943DA
:103F400002FB023207FB071111441024A1F170613A
:103F5000B1F1007F04D900F071FDA5F800A0AEE733
:103F6000298841F4807129804206694611D50A19D1
:103F7000A41D13885BBAA8F8003053885BBAA8F870
:103F80000230928852BAA8F804202A8842F0080227
:103F90002A8010F4C07F11D00A19A41D13885BBABF
:103FA000A9F8003053885BBAA9F80230928852BA57
:103FB000A9F804202A8842F070022A80800716D0CF
:103FC0000C44E07800F0C00500F03F016078C007C5
:103FD00006D0C80801F007013268491C02B19047B9
:103FE0006078000703D5716809B1A8098847FCF714
:103FF0004DFC0C990860002062E700000C040020D2
:1040000030B5044613A285B007CA8DE807004FF00B
:10401000FF35C82C16D8C820B0FBF4F1491E080A99
:104020008DF80C008DF80D1003AA022140F2162025
:1040300001F07AF830B96A460C2140F6C12001F04F
:1040400073F810B1284605B030BD054884810020C2
:10405000F9E70000FEF2ABC4AAF1DFDFBBAFDFDFA0
:104060000C0400202DE9FF4104463CA004F00303AA
:10407000006802903AA0006803903AA006683AA04F
:10408000056802A8C15C8DF80010C4F3C101425C50
:104090008DF80120C4F38112805C8DF8020003A822
:1040A000C35C8DF80430415C8DF80510805C8DF8A0
:1040B00006006A46032140F2264001F035F84FF031
:1040C000FF37E0BB01AA032140F22A4001F02CF89F
:1040D000A8BBCDE9006560070BD59DF8000040F056
:1040E00001008DF800009DF8040040F001008DF8FB
:1040F0000400A0060BD59DF8010040F001008DF8EA
:1041000001009DF8050040F001008DF80500E00574
:104110000BD59DF8020040F001008DF802009DF8DB
:10412000060040F001008DF806006A4603214FF4B6
:10413000886000F0F9FF10B901AA032100E004E053
:1041400040F2314000F0F0FF18B1384604B0BDE84D
:10415000F081064804810020F8E700004CCD6C0097
:104160000CC92C0036567600264666000C0400204A
:104170004FF47A7290FBF2F008B54843010E8DF8C7
:104180000010010C8DF80110010A8DF802108DF855
:1041900003006A4604214FF4AE7000F0C5FF08BD6D
:1041A0000521B0FBF1F008B5010A8DF800108DF87B
:1041B00001006A4602214FF4AD7000F0B5FF08BD62
:1041C0000521B0FBF1F008B5010A8DF800108DF85B
:1041D00001006A4602214FF4AC7000F0A5FF08BD53
:1041E00008B500218DF80010C10702D030218DF8EC
:1041F0000010810705D59DF8001041F00C018DF8E5
:104200000010400705D59DF8000040F003008DF830
:1042100000006A4601214FF4A47000F085FF08BD3C
:1042200008B560B1042800D90420401E8DF80000B4
:104230006A46012140F24F1000F076FF08BD0120D0
:10424000F3E700002DE9FC41054640074FF0FF363B
:104250007CD0B1F5C86F79D8084601F05BFF3E49C4
:1042600001F042FE074601A800F000FA9DF80400A4
:10427000022806D004280DD008282ED0102865D199
:1042800034E00E21384602F06AF901F00BFF84B2E7
:10429000324907E00D21384602F061F901F002FFD2
:1042A0002F4984B2384601F07DFF01F0FBFE210A60
:1042B0008DF8001080B28DF80140010A8DF80210CF
:1042C0008DF80300E8076C4620D0224602214FF407
:1042D000EA7000F029FFC8BB11E00C21384602F05B
:1042E0003EF901F0DFFE84B21E49DBE70B213846C0
:1042F00002F035F901F0D6FE84B21B49D2E7A21CC8
:1043000002214FF4927000F00FFFF8B9A8070DD505
:104310006A4602214FF4EC7000F006FFB0B9A21C0F
:1043200002214FF4947000F0FFFE78B9680710D5B1
:104330006A4602214FF4EE7000F0F6FE30B9A21C7E
:1043400002214FF4967000F0EFFE10B13046BDE848
:10435000FC810020FBE700000000484300004046CD
:104360000000C045000040450000C0440521B0FBEE
:10437000F1F008B5010A8DF800108DF801006A46C9
:1043800002214FF4EF7000F0CFFE08BD0521B0FB15
:10439000F1F008B5010A8DF800108DF801006A46A9
:1043A00002214FF4ED7000F0BFFE08BD90F900103F
:1043B000002902DD4FF00000704702DA4FF00400E0
:1043C000704790F90110002902DD4FF0010070479D
:1043D00002DA4FF00500704790F90200002802DD74
:1043E0004FF00200704702DA4FF0060070474FF0BE
:1043F0000700704708B5FCF719FDFEF7B5FDFEF79D
:1044000045FBFEF785FBFEF7A3FBFEF70DFCFEF771
:104410003FFCFEF773FCFEF7A5FCFEF7DBFCFEF7A6
:10442000BDFC6D4CFEF7E0FAA0610028FAD1002136
:104430006A48FDF7A1FB04216848FDF79DFB3C217C
:104440006748FDF7FBF93C216648FDF7F7F9664838
:10445000FDF7B4F8624800250068456261480068CD
:104460004562634F614E3B46624A29466248009668
:10447000FEF75AFDDFF884815E4A5F4843460C3AF6
:10448000002148300096FEF74FFD5A4A5A483B46F5
:104490001832002190300096FEF746FD554A5648E6
:1044A00043460C320021D8300096FEF73DFD4A49C4
:1044B0000122491C5248FDF735FF524F4FF48E79C7
:1044C00003264FF00108C9F1000A4FF0020B424ADF
:1044D0000C32111F081FFEF7B9F9E068B84203D388
:1044E000494901F08DFCE0602078D0B325706078F8
:1044F000002867D0607801285DD06078F12831D03D
:104500006078022860D06078F22830D06078032884
:1045100051D06078F32825D06078042854D0607892
:10452000F42824D06078052825D06078062825D086
:10453000607807283FD06078F72813D06078082883
:1045400040D06078F8283DD0607809283AD060786B
:10455000F92837D06078102836D06078F02806D057
:1045600012E01FE04FF4B4602063404208E02748A7
:104570002063404204E04FF4347000E0244820639C
:10458000E5636064C4E9145B134964230122491C98
:104590001B48FDF7E9FE104964230122491C1D4810
:1045A000FDF7E2FEE16B206B401AE061216D606C6B
:1045B000401A20628BE7C4F848A0C4F83490C4F8CD
:1045C0005480E1E76665DFE7C4F834A0C4F848909A
:1045D000C4F85480D8E70000000000201402002036
:1045E0005C020020A4020020EC02002000007A44BB
:1045F0000000FA43E8650008A00000200000A04188
:1046000034030020000080800000B44360FAFFFF04
:1046100030FDFFFFC40300202DE9F041124C20F0D3
:104620000101002594F8240010B10020BDE8F081BC
:10463000A07A4FF0FF3668B10840277C207488428A
:1046400000D0354641B1012000F0A8FD00F0F6F998
:1046500038B127743046E9E7207D00B1012000F031
:104660009DFD2846E2E70000680000200D494A7AD7
:1046700042B1012A08D0022A0FD0032A0FD04FF0EE
:10468000FF307047022200E004220270C97C11B1A1
:104690001106C90D0170002070470822F5E71022AD
:1046A000F3E70000680000202DE9F04385B080208A
:1046B0008DF80C0047000DF10C08012640462F4CE8
:1046C0008DE8C10020683346427D606801782C483F
:1046D000FCF7D4FA4FF0FF39F0BB6420FBF7CEFFB4
:1046E00000258DF80C50CDF80080CDE901672068D9
:1046F0000123427D606801782148FCF7BFFA58BB6E
:10470000E574FF2004F80A0F4FF6FF7104F8020C5D
:1047100004F8010C6070A180A0712072A67026764A
:104720006576E572A572E56025616561A576E57639
:10473000A5834FF4FA6000F083FB68B9022000F013
:104740005DFA48B92A2000F0F5FB28B9322000F0C4
:1047500031FC08B9002000E006E0FFF75DFF18B962
:10476000002000F087FA18B1484605B0BDE8F08394
:10477000002000F06BFC0020F7E70000680000203C
:10478000C00100202DE9FF4FDFF8A080064689B068
:1047900098F8250015460F464FF0FF39E0BBDFB310
:1047A000002420E0301B102800DD102080B283465A
:1047B0003A1901469246204600F0B6FC60BB03AAB7
:1047C0005946204600F000F930BB50465A4603A92E
:1047D000FBF782FD20B16FF001000DB0BDE8F08F56
:1047E00004EB0B0084B2B442DCD3280A8DF81C0021
:1047F0008DF81D504FF48072022107A88DE8070044
:10480000D8F8000044460123427FD8F8040001781C
:104810000748FCF733FA08B14846DEE7012084F880
:1048200025000C98E0840020D7E7000068000020F5
:10483000C00100202DE9FF5F0546282851D8002639
:104840002F4C0DF10C094FF007084FF4807A022726
:104850007DB1012000F034FB20208DF80C004FF0DA
:10486000010B012D1BD0052D1CD88DF80DB0052096
:1048700022E0002000F024FBCDE900978DF80C60C9
:104880008DF80D80CDF808A020680123427D606876
:1048900001781C48FCF7F2F918BB26752EE08DF85C
:1048A0000D60E4E7142D03D88DF80D700A2003E0A5
:1048B00003208DF80D00142000F03CFB9DF80D1036
:1048C000CDE9009708EB81108DF80D00CDF808A018
:1048D00020680123427D606801780A48FCF7CEF920
:1048E00020B14FF0FF3004B0BDE8F09F0820A07267
:1048F000267384F814B00020FFF78EFE0020F2E744
:1049000068000020C00100202DE9FF5F2C4C064606
:10491000904694F824008B464FF0FF3AC0B3A07A3B
:10492000B0B30DF10C094FF48077022148468DE8B1
:10493000830020680123027B606801782148FCF72E
:104940006FF828BBBDF80C0045BAB54203D2002170
:1049500088F800102AE060684188B5EB510F18D93B
:104960000122CDF80090CDE9012721680123CA7CFE
:1049700001781448FCF754F850B99DF80C00C006B3
:1049800007D500F05BF86FF0010004B0BDE8F09FC0
:104990000CE0CDF800B0CDE9016720680123427B2F
:1049A000606801780748FCF73BF808B15046ECE72F
:1049B000B5FBF6F0401E88F800000020E5E7000097
:1049C00068000020C00100202DE9FF4115000E46BF
:1049D0004FF0FF3729D0174CA17A31B3010A8DF877
:1049E0000C10C0B28DF80D008119606842899142A7
:1049F0001BD8022203ABCDE900324FF48078CDF80A
:104A0000088021680123CA7E01780B48FCF736F93B
:104A100058B98DE8600120680123027E6068017842
:104A20000548FBF7FDFF002800D0384604B0BDE87C
:104A3000F081000068000020C00100202DE9FF4740
:104A40006C4C4FF0FF3AA07A00287CD000270DF183
:104A50000C088DF80C704FF48076012540468DE8E7
:104A6000610020682B46427C606801786248FCF750
:104A700005F9002867D1CDF80080CDE901562168FD
:104A8000606801234A7901785B48FCF7F7F8002851
:104A900059D1CDF80080CDE9015621686068012325
:104AA0000A7901785448FCF7E9F800284BD194F8CA
:104AB000240088B30C208DF80C00CDF80080CDE9DF
:104AC0000156206801230279606801784A48FCF7A2
:104AD000D5F8002837D13220FBF7D0FDC0208DF863
:104AE0000C00A07AC00702D0E0208DF80C00CDF8B1
:104AF0000080CDE901562068C14601230279606833
:104B000001783D48FCF7BAF800286ED1607C20B1EE
:104B100002208DF80C0002E019E08DF80C70CDE950
:104B20000095B046CDF8088020684E460123427CAF
:104B3000606801783048FCF7A1F820B98DF80C7056
:104B4000CDF8088000E050E0CDE9006543E00420A6
:104B50008DF80C00CDF80080CDE9015620680123C6
:104B60000279606801782448FCF788F8E8BBA07CEB
:104B7000A0B9A07AC00711D05FF060008DF80C00DA
:104B8000CDF80080CDE901562068012302796068E4
:104B900001781948FCF772F838BB01E04020EDE7D6
:104BA0003220FBF76BFD607C10B18DF80C5001E0FA
:104BB0008DF80C70CDF80080CDE9015620680123F6
:104BC000427C606801780C48FCF758F868B90948DD
:104BD00010308DE861002068012342796068017817
:104BE0000548FCF74BF8002800D0504604B0BDE85B
:104BF000F087000068000020C00100207FB51B4C3A
:104C00004FF0FF35A17A51B3022806D0042806D010
:104C100008280ED0102822D10DE0002000E0082046
:104C20008DF80C00607A9DF80C10B0EBD10F04D019
:104C300006E01020F4E71820F2E7002004B070BD71
:104C40004FF48072012103A88DE80700206801233A
:104C5000C279606801780648FCF710F808B1284668
:104C6000ECE79DF80C00C0086072E6E768000020E1
:104C7000C00100202DE9FF474A4C0746A07CB842FE
:104C800003D1002004B0BDE8F08746484FF0FF3A5A
:104C90004FF48075D0E900104FF0010803AECFB398
:104CA0000096CDE901850A79017801233E48FBF79A
:104CB000B7FE002871D19DF80C00CDE9006820F006
:104CC0002000A9468DF80C00CDF8089020684546D4
:104CD00001230279606801783348FBF7CFFFE8BB16
:104CE0000320FBF7CBFC02208DF80C0094F8220087
:104CF00010B182208DF80C0094F8230028B19DF8A3
:104D00000C0040F030008DF80C00CDE90065CDF8C6
:104D1000089039E0FFE7CDE9006802950A7901784B
:104D200001232148FBF77CFEC0B9A07AC0079DF89B
:104D30000C0002D040F0200001E020F02000A94645
:104D40008DF80C0035468DE8200320680123027998
:104D5000606801781448FBF791FF00E01DE0E0B9BE
:104D60000320FBF78BFC94F8220000B180208DF823
:104D70000C0094F8230028B19DF80C0040F030009E
:104D80008DF80C008DE8200320680123C27D606847
:104D900001780548FBF772FF08B1504672E7A77427
:104DA0006FE7000068000020C00100202DE9FF41EE
:104DB000214C94F82410814224D000264FF48077AF
:104DC000012530B394F8250000B3002000F0E6F987
:104DD0000020FFF74FFFE08C00F0ECF88DF80C603E
:104DE00003A88DE8A10060680123232201781348FD
:104DF000FBF744FF84F82450012000F0CFF900BFF6
:104E0000FFF71CFE002004B0BDE8F0814FF0FF303A
:104E1000F9E7002000F0C2F9207C8DF80C0003A80F
:104E20008DE8A10060680123232201780348FBF785
:104E300025FF84F82460E3E768000020C00100201B
:104E40007FB51D4C4FF0FF35A17A69B3FA2809D020
:104E5000B0F5FA7F08D0B0F57A7F0FD0B0F5FA6FD1
:104E600022D10DE0002000E008208DF80C00207A0F
:104E70009DF80C10B0EBD10F04D006E01020F4E741
:104E80001820F2E7002004B070BD4FF480720121B9
:104E900003A88DE807002068012382796068017803
:104EA0000648FBF7EBFE08B12846ECE79DF80C003E
:104EB000C0082072E6E7000068000020C001002062
:104EC0007FB51A4C054694F82300A84202D1002071
:104ED00004B070BD0DB1302000E000208DF80C0052
:104EE000A07C28B19DF80C0040F002008DF80C0069
:104EF00094F8220028B19DF80C0040F080008DF855
:104F00000C004FF48072012103A88DE8070020688F
:104F10000123C27D606801780548FBF7AFFE10B140
:104F20004FF0FF30D4E784F82350D0E7680000202A
:104F3000C00100207FB51D4C4FF0FF35A17A79B339
:104F40000121BC2802D38DF80C1012E0622801D395
:104F500002200CE02A2801D3032008E0142801D302
:104F6000042004E00A2801D3052000E006208DF883
:104F70000C00E07A9DF80C20904202D1002004B091
:104F800070BD03AA4FF480700092CDE90110206833
:104F900001238278606801780548FBF76FFE08B14D
:104FA0002846ECE79DF80C00E072E7E76800002077
:104FB000C00100202DE9FF41224D04464FF0FF378C
:104FC000A87A78B395F8240060BB287D4FF47A76F0
:104FD00048B164B1282C03D82046FFF72BFC2EE003
:104FE0000020FFF727FC042C05D2042406E0002053
:104FF000FFF720FCF9E7B44200D93446B6FBF4F0E1
:10500000401E8DF80C004FF48072012103A88DE83A
:105010000700286801234278686801780A48FBF78E
:105020002DFE18B1384604B0BDE8F0819DF80C00A3
:10503000401CB6FBF0F0E8814008FFF77BFF002042
:10504000F1E7000068000020C00100202DE9FF47C3
:10505000054610F0700F4FF001074FF0000602D028
:105060008DF80C7006E015B18DF80C6002E0402060
:105070008DF80C000DF10C094FF480784946284C4E
:105080008DE8820120680123427D6068017825480F
:10509000FBF7F4FD4FF0FF3A80BB9DF80C0020F0C9
:1050A000400020738DF80C60680602D404208DF84F
:1050B0000C00A80605D49DF80C0040F002008DF805
:1050C0000C00E80605D49DF80C0040F001008DF8B6
:1050D0000C00280705D49DF80C0040F038008DF82E
:1050E0000C00CDF80090CDE9017820680123827D85
:1050F000606801780B48FBF7C1FD20B1A6725046ED
:1051000004B0BDE8F08725B1082D02D00020FFF7DC
:10511000D7FEA57226753220FBF7B0FA0020EFE724
:1051200068000020C00100202DE9FF4115000E4657
:105130004FF0FF3729D0174CA17A31B3010A8DF80F
:105140000C10C0B28DF80D0081196068428991423F
:105150001BD8022203ABCDE900324FF48078CDF8A2
:10516000088021680123CA7E01780B48FBF786FD81
:1051700058B98DE8600120680123027E60680178DB
:105180000548FBF77BFD002800D0384604B0BDE899
:10519000F081000068000020C00100202DE9FF41DF
:1051A0001B4C0346214694F824C00026D1E9000197
:1051B000751E01224FF48077BCF1000F0FD0BBB1F8
:1051C00002238DF80C3003ABCDE900320297427C0C
:1051D000097801230F48FBF751FD78B912E094F8E4
:1051E0000AC0BCF1000F09D013B1637C6BB902E0B7
:1051F0008DF80C60E7E78DF80C20E4E7284604B052
:10520000BDE8F0819DF80C0060740020F7E7000015
:1052100068000020C00100202DE9F04106460F463D
:1052200000F0F2FB041E0D4618BF0120284320F0B9
:105230000040C0F17F6000F1E040C00F0ED0301C94
:1052400018BF0120384320F00040C0F17F6000F11A
:10525000E040C00F04BF0120FBF7C0F820462946FC
:10526000BDE8F08121F00042A2F16052B2F5801F4A
:1052700001F0004328BFD2F17F6C0BD95FEA001C1C
:1052800043EAC20242EB507018BF704728BF20F0BB
:1052900001007047B2F5801FBCBF184670474FEA47
:1052A000410C1CF5001F02D2084601F042B870B54F
:1052B00000F04AFB00000089FFF7F6BF4FF0004006
:1052C000A0F580007047000010B591EA030F48BFB9
:1052D00083F0004300F18684841A71EB030C05D23D
:1052E000121943EB0C03001B61EB0C01DFF824E106
:1052F0004FEA1154A4EB135C1EEA430F18BF9EEA59
:10530000445F73D023EA0E03DCF1200E21EA04513E
:1053100043F4801332D322FA0CFE10EB0E0023FA72
:105320000CFE41EB0E01CCF1200E03FA0EFE10EB49
:105330000E0051F10001B1F5801FCCF1200E32D2E8
:1053400001EB045112FA0EF2BDE8104058BF70474D
:10535000401C38BF5FEA420218BF7047002814BFE4
:1053600020F0010041F100014FEA410313F5001F55
:1053700038BF7047A1F1C04100F034BB012A43EBB4
:105380000302ACF1200CDCF11F0E32BF4FF0000E17
:1053900023FA0CF310EB030041EB0451B4EB115F63
:1053A000D0D0A1EB045101F5801149085FEA30002B
:1053B00001EB04510ED350F1000038BF12FA0EFE7B
:1053C00008D1BDE81040C9E7401C38BF5FEA42027F
:1053D000CAD1C3E7BDE810404FEA410313F5001FEF
:1053E00038BF7047A1F1C04100F0FCBA9EEA445FAB
:1053F00008D011EA5E0FBDE8104004BF01F0004183
:1054000000207047BDE8104070B500F09DFA00BF65
:1054100064FBBE3E0000E0FF02494FF0000001F0D7
:105420003EB800BF0000F87F491058BFC1F14041AD
:105430005B1058BFC3F140438B42EFF300807047CD
:105440002DE9C04130B4DFF8A0C23CEA111418BF06
:105450003CEA131400F0EC8081EA03051CEA111405
:1054600044EAD57418BF1CEA131500F0C780A4EBFA
:1054700005044FF0004545EAC12145EAC32341EA4E
:10548000505143EA525304F17F74994204F50034B9
:105490004FEAC0204FEAC22208BF904200F09C8031
:1054A0004FEA13650FF24016765D4FEA134506FB8F
:1054B00005F7C7F1807706FB07F74FEAD737A7FB59
:1054C00003687642C8F58038A7FB06CE38BFA8F13E
:1054D000010807FB08E64FF0000EA6FB028CE6FB76
:1054E00003CEDCF1000CCEF1004E38BFAEF1010E60
:1054F000A6FB0C584FF000074FF00005E6FB0E87A7
:10550000A1FB08C6A0FB07CE16EB0E0645F1000571
:10551000E1FB076515F1E04E7EBFA4F580345FEA3C
:1055200046066D4116F1800745F100054FEA172741
:105530004FEA066647EA0567A6F1DE46B6F1805FE8
:105540004FEA15251FD9384624F0010C05EBC4712C
:10555000BCF1FE6F01EB0C1102D8F0BCBDE800817C
:1055600024425CBF01F5801E9EEAC47F02D4F0BCD9
:10557000BDE80081244238D4F0BCA1F1C041BDE8AF
:10558000004100F02FBA4FEAD22242EA43524FEADA
:10559000D323A7FB02864FEAD02040EA415007FB05
:1055A00003661EEA0E0F4FEAD12105FB026658BFC3
:1055B000A6EB0056B6EB00564FEA520E4EEAC37EFB
:1055C00018EB0E0E56EB530EBDD518EB02085E41DC
:1055D0007F1C55F10005B6E74FF480154FF000072A
:1055E0004FF000064FF00008ADE7F0BC4FF00000B0
:1055F00001F1C04101F00041BDE8008111EA0C1F3A
:105600000CEA131500D00CE013EA0C1F00F0258003
:105610004FF00000F0BC81EA030101F00041BDE859
:105620000081F0BCBDE8004181EA030100F0DAB975
:10563000F0BCBDE8004170B500F086F9097EFC3E83
:1056400000F007B881EA03014FF0000001F00041CB
:10565000704781EA030100F0C5B9F0BCBDE8004124
:105660004FF0000021497047FFFDFBF9F7F5F4F218
:10567000F0EEEDEBE9E8E6E4E3E1E0DEDDDBDAD8ED
:10568000D7D5D4D3D1D0CFCDCCCBCAC8C7C6C5C44B
:10569000C2C1C0BFBEBDBCBBBAB9B8B7B6B5B4B362
:1056A000B2B1B0AFAEADACABAAA9A8A8A7A6A5A44D
:1056B000A3A3A2A1A09F9F9E9D9C9C9B9A99999811
:1056C0009797969595949393929191908F8F8E8EB4
:1056D0008D8C8C8B8B8A8989888887878685858441
:1056E00084838382828181800000FF070000F87F2D
:1056F00051EA030C17D41CF5801F58BFBCF5801F5E
:1057000000F10680994218BF704708BF9042704769
:1057100007D711F5801F58BF13F5801F19D4994280
:105720007047894270471CF5801F08D5BCF5801F63
:10573000F7D58B4218BF704708BF824270474FF4BD
:10574000001C1CEB410F38BF1CEB430F01D28B42F6
:10575000704770B500F0F8F8922449004FF00051FE
:105760004FF08053FFF760BE4FEA41034FEA5353B7
:10577000A3F58063D3F11E03C8BFD3F1210C0CDD68
:105780004FF0004242EAC12242EA505232FA03FC90
:105790008CEAE17CACEBE1707047102BC4BF0020B9
:1057A000704703F5787CBCF1FF3F04D06FF00042F6
:1057B00082EA2100704770B500F0C6F84992248053
:1057C00000207047F2E710F0004248BF4042B0FAB4
:1057D00080F310FA03F10AD0C3F11D0303F58063CF
:1057E0004FEA415002EB035202EBD12170474FF0D8
:1057F00000007047DFF848C170B51CEA111E1EBFDB
:105800001CEA13159EEA0C0F95EA0C0F00F06F804E
:1058100081EA030423EA4C134EEAD47E21EA4C11B8
:1058200041F4801143F48013AE44A1FB024CA0FB71
:105830000365AEF17F7E361955EB0C05A1FB034CD9
:105840004CF10003A0FB021C16EB0C06654153F162
:105850000003094218BF46F0010613F4007F0BD184
:105860004FEA03314FEA0530340341EA155140EA6B
:1058700016506FF003020AE04FEAC3214FEAC52039
:10588000F40241EA555140EA56506FF0020202EB31
:105890002E4201EB025585EACE710AD05FEA440C34
:1058A00018BF24F0004450F1000041F1000120EA4B
:1058B000D47040F2FE7C624500D270BDA84214BF95
:1058C0004FF080444FF04044002E08BF0024BEF14A
:1058D000806FA8BFA1F1C041BDE8704080F2828016
:1058E0004FF0000001F1C04101F0004170479EEA15
:1058F0000C0F0CEA131518BF95EA0C0F06D04FF0E9
:10590000000081EA030E0EF0004170BD00F01CF8AB
:105910008900013E00F007B800F009B84FEA430CD7
:105920005FEA5C5C08D081EA030100F05BB84FEAF3
:10593000410C5FEA5C5CF6D14FF000000149704712
:105940000000FF070000F87F0EF1020E2EF0030E9C
:105950005EF8046B364205D4012A43EB030515F5C6
:10596000001F12D8012841EB010C1CF5001F0CD8B8
:105970000ED14FEAD17C15F5001F0CEB4C0C0CF14D
:10598000020C08BF4CEBD37C04E04FF0080C01E0A4
:105990004FEAD37C0CEB4C0526FA05F606F0070619
:1059A000B6F1040C06D20EEB860CBDE870404CF04C
:1059B000010C6047DFE80CF0090B02024FF00041D8
:1059C0004FF00000A1F5002170BD194610460128D6
:1059D00051EB010418BFD4F5001484BF002001F07E
:1059E000004170BD0808A0F500114FEA3101704771
:1059F00091EA030F10B581F000413FF56DAC83F0E3
:105A0000004300F0EFB800002DE9F04101F5801CE3
:105A1000BCF5001FC0F2C3804FEA115C21EA0C51B3
:105A20000CF1FD0C41F480115FEA5C0C0CF5C07CBC
:105A300001D3400049413DA4890241EA90518702C7
:105A40008E0E0A0CA45D04FB04F602FB06F6C6F1FA
:105A50004046A4FB0662F60D46EA422606FB06F423
:105A6000A4FB01235242C3F1404338BF5B1EA6FB97
:105A700002420024E6FB0324D20B42EA4446A6FB82
:105A80000623A1FB02E2A3FB07E4A4184FF00002E7
:105A900052F10002E3FB01426442C2F1404E38BFC2
:105AA000AEF1010EA6FB04234FF00002E6FB0E321E
:105AB000A2FB03464FF00004B61954F10004E2FBC8
:105AC0000264A1FB06E6A4FB07E816EB08064FF00C
:105AD000000858F10008E4FB01687642C8F140581C
