:020000040800F2
:10000000800A002089010008C72A0008C3200008D0
:10001000C52A00085B0300086931000800000000E1
:100020000000000000000000000000001B2C000881
:100030005D03000800000000192C00081D2C0008BA
:10004000A3010008A3010008A3010008A301000800
:10005000A3010008A3010008A3010008A3010008F0
:10006000A3010008A3010008A3010008A3010008E0
:10007000A3010008A3010008A3010008A3010008D0
:10008000A3010008A3010008A3010008A3010008C0
:10009000A3010008A3010008A3010008A3010008B0
:1000A000A3010008A3010008A3010008A3010008A0
:1000B000A3010008A3010008812C0008A301000887
:1000C000A3010008A3010008A3010008A301000880
:1000D000A301000851310008A30100085D310008A8
:1000E000A3010008A3010008A301000800F002F822
:1000F00000F03AF80AA090E8000C82448344AAF188
:100100000107DA4501D100F02FF8AFF2090EBAE885
:100110000F0013F0010F18BFFB1A43F0010318473B
:10012000506F0000706F0000103A24BF78C878C18B
:10013000FAD8520724BF30C830C144BF04680C60ED
:10014000704700000023002400250026103A28BF35
:1001500078C1FBD8520728BF30C148BF0B60704739
:100160001FB51FBD10B510BD00F0C2F81146FFF756
:10017000F7FF03F09BFF00F0E0F803B4FFF7F2FF96
:1001800003BC00F0E3F80000094880470948004735
:10019000FEE7FEE7FEE7FEE7FEE7FEE7FEE7FEE737
:1001A000FEE7FEE704480549054A064B7047000094
:1001B0007F2C0008ED00000880040020800A002049
:1001C000800600208006002040EA010310B59B074E
:1001D0000FD1042A0DD310C808C9121F9C42F8D0B1
:1001E00020BA19BA884201D9012010BD4FF0FF3062
:1001F00010BD1AB1D30703D0521C07E0002010BD78
:1002000010F8013B11F8014B1B1B07D110F8013B03
:1002100011F8014B1B1B01D1921EF1D1184610BDE4
:1002200002F0FF0343EA032242EA024200F037B839
:100230004FF0000200B5134694469646203922BF7F
:10024000A0E80C50A0E80C50B1F12001BFF4F7AFCA
:10025000090728BFA0E80C5048BF0CC05DF804EBAC
:10026000890028BF40F8042B08BF704748BF20F81A
:10027000022B11F0804F18BF00F8012B7047704718
:100280007047704710B500F02BF8006810BD10B52E
:10029000044600F025F8046010BD4FF00002042968
:1002A000C0F0128010F0030C3FF4C4AFCCF1040C8A
:1002B000BCF1020F18BF00F8012BA8BF20F8022BD9
:1002C000A1EB0C01FFF7B6BF5FEAC17C24BF00F8C9
:1002D000012B00F8012B48BF00F8012B70470000EC
:1002E0000048704720040020004870472004002088
:1002F0007546FFF7F9FFAE4605006946534620F004
:100300000700854618B020B5FFF74CFFBDE8204038
:100310004FF000064FF000074FF000084FF0000BC1
:1003200021F00701AC46ACE8C009ACE8C009ACE874
:10033000C009ACE8C0098D46704710B50446AFF35C
:1003400000802046BDE81040FFF717BF0149182084
:10035000ABBEFEE7260002007047FEE7704772B6AC
:10036000FEE710B590F821100022022905D00421E3
:10037000816380F82020012010BD01680B6823F004
:100380000E030B6001680B6823F001030B6090F80B
:100390004030C46B012101FA03F3636080F821103F
:1003A00080F82020104610BD10B590F821100024D0
:1003B000022903D00421816301243DE001680A6819
:1003C00022F00E020A6001680A6822F001020A6047
:1003D0001A4A0168914201D1012121E0174A1432E1
:1003E000914201D110211BE0144A2832914201D1DF
:1003F000891515E0114A3C32914201D189140FE070
:100400000E4A5032914202D14FF4803108E00B4A3B
:100410006432914202D14FF4801101E04FF08071BB
:10042000064A083A5160012180F82110002180F825
:100430002010416B01B18847204610BD08000240E2
:1004400070B5044600F004F90546601C02D004486B
:100450000078044400F0FCF8401BA042FAD370BDC1
:100460005C0000202DE9F84FDFF8B8910024A9F1D5
:10047000040B23460F2709F1040AABF1040EC9E06F
:100480000125A5402A40AA427DD1674ED1F804C07B
:10049000ACEB0608B44532D014DCBCF1030F3AD003
:1004A00009DCBCF1000F2AD0BCF1010F1CD0BCF15B
:1004B000020F31D11DE0BCF1110F17D0BCF1120FAA
:1004C0002AD119E0B8F5881F19D006DCB8F5803FAD
:1004D00015D0B8F5801F1FD111E0B8F5001F0ED060
:1004E000B8F5041F18D10AE0CB6815E0CB681B1DD6
:1004F00012E0CB6808330FE0CB680C330CE08B685C
:100500002BB1012B4FF0080303D0456104E0042315
:1005100002E0056100E00023FF2A01D8064601E061
:1005200000F104064FEA840501D9A5F12005D6F8AB
:10053000008007FA05FC28EA0C0803FA05F548EAEA
:100540000508C6F800804D68ED0062D5374DAE69EC
:1005500046F00106AE61AD6924F0030605F0010521
:100560000095334D06EB050CDCF80850A607360F56
:1005700007FA06F825EA0805DFF8B880404503D1F8
:100580004FF0000817E044E0DFF8AC80404502D1AE
:100590004FF001080FE0DFF8A480404502D14FF092
:1005A000020808E0DFF89880404502D14FF00308C8
:1005B00001E04FF0040808FA06F848EA0508CCF80C
:1005C00008804D68D9F80060ED024D4601D516430C
:1005D00000E096432E604D68DAF80060AD025546A3
:1005E00001D5164300E096432E604D68DBF80060AD
:1005F000AD035D4601D5164300E096432E604D687D
:10060000DEF80060ED03754601D5164300E0964321
:100610002E60641C0D682A46E5407FF431AFBDE8CA
:10062000F88F000008040140000011100010024083
:100630000000014000080140000C01400010014092
:10064000001401400AB1016170470904FBE7000092
:1006500001488068704700005C00002070B504000D
:1006600025D094F83D00002520B984F83C50204660
:1006700000F07EFA242084F83D002068016821F013
:10068000010101602068016841F4004101602068B7
:10069000016821F40041016000F0D0FB4D4A61681F
:1006A000914201D84C4900E04C49884201D20120D6
:1006B00070BD4B492368B0FBF1F15E6826F03F0640
:1006C0000E435E606368934206D94FF496735943B4
:1006D0004FF47A73B1FBF3F12368491C1E6A26F0CC
:1006E0003F06314319626168914210D84900401EAB
:1006F000B0FBF1F2521CC2F30B02042A01D2042017
:1007000022E0B0FBF1F0401CC0F30B001CE0A2683B
:10071000F2B301EBC10303EB0116431EB3FBF6F387
:100720005B1C43F480431B0549D092B301EBC1022B
:1007300002EB0111401EB0FBF1F0401CC0F30B00B6
:1007400040F4804040F400402168CA694CF6FF73D1
:100750009A431043C861D4E9071001432068026836
:1007600022F0C00211430160D4E903010143206873
:10077000826848F2FF339A4311438160D4E905014E
:1007800008432168CA6822F0FF021043C86001E0F4
:100790000EE016E02068016841F001010160256467
:1007A000202084F83D00256384F83E50002070BD71
:1007B00001EB4106431EB3FBF6F35B1CB3E70120DC
:1007C000C2E701EB4101401EB0FBF1F0401CC0F359
:1007D0000B00B7E7A086010080841E0000093D00E1
:1007E00040420F002DE9FF4F83B00025DDE910796D
:1007F0009A4693460446DDF848800095FFF728FFA7
:10080000064694F83D0020287CD11923012288490E
:100810002046009601F06CFD0028F5D194F83C00CC
:1008200001286FD0012084F83C0020680168C907C6
:1008300003D1016841F0010101602068016821F4E1
:1008400000610160222084F83D00402084F83E00D1
:1008500025646762A4F82A90608D20857548E0625F
:10086000CDE9008653465A462046049901F042FCE1
:1008700000287CD1208DDFF8C091202768B10128A5
:1008800014D00228206801681ED041F48061016004
:100890002068416980690090BCE0206841698169F5
:1008A0000091016841F400710160B3E020680168C3
:1008B00021F48061016072B620684169816900910C
:1008C000016841F400710AE041F40061016072B610
:1008D0002068416981690091016821F480610160AB
:1008E00062B697E0032865D801280CD00228434659
:1008F0004FF000024946204600960BD001F0F8FC6C
:10090000A8BB0CE091E032464146204601F096FD3E
:1009100068BB72E001F0ECFC48BB72B633E02068C3
:10092000016821F48061016072B620680069616A23
:100930000870606A401C6062208D401E2085608DBA
:10094000401E60853D4846F2A8110068B0FBF1F0FA
:10095000C0EBC00000EB80000090401E009007D06C
:1009600020684069C04340070DD50098F5E727E0AF
:1009700044F8305F6773A573206940F02000206160
:1009800062B625731CE02068016841F400710160C3
:1009900020680069616A0870606A401C6062218D8D
:1009A000491E2185618D491E618562B621680969EC
:1009B000017026E032464146204601F03FFD18B165
:1009C000012007B0BDE8F08F20680069616A0870F7
:1009D000606A401C6062208D401E81B22185608D5E
:1009E000401E608520684269D243520712D4032911
:1009F00003D1016821F48061016020680069616AA7
:100A00000870606A401C6062208D401E2085608DE9
:100A1000401E6085208D00287FF464AF84F83D700F
:100A200084F83E5084F83C50CBE70220C9E7000030
:100A3000020010000000FFFF040001006800002019
:100A40002DE9FF4F83B09A46DDE91197934604469E
:100A5000DDF84080FFF7FCFD054694F83D002028B6
:100A60007FD11923012240492046009501F040FC26
:100A7000002876D194F83C00012872D0012084F837
:100A80003C0020680168C90703D1016841F00101F9
:100A900001602068016821F400610160212084F870
:100AA0003D00402084F83E0000262664C4F82480DF
:100AB000A4F82A90608D20852C48E062CDE900756D
:100AC00053465A462046049901F092FB70B930E033
:100AD0002A463946204601F0E9FC58B1206C04282A
:100AE00004D12068016841F400710160012007B061
:100AF000BDE8F08F606A216800780861606A401C78
:100B00006062218D491E89B22185628D521E6285E7
:100B100022685369DB435B070BD469B1007810612D
:100B2000606A401C6062208D401E2085608D401EE2
:100B30006085208D0028CBD12A463946204601F019
:100B4000ABFB0028CAD154F83D0B016841F4007199
:100B50000160202004F81E09E67766770020C6E7CA
:100B6000FFE70220C3E70000020010000000FFFFC3
:100B700010B586B0002100910191029103910068A7
:100B80001349884222D1134CA06940F00800A061AB
:100B9000A069694600F0080004904FF4407000908E
:100BA00012200190032003900B48FFF75BFC0B48D9
:100BB000416841F0E06141F002014160E06940F4C8
:100BC0000010E061E06900F40010049006B010BD70
:100BD0000054004000100240000C014000000140A1
:100BE0000248816802781144816070475C000020EF
:100BF000074810B5016841F010010160032000F0C2
:100C000075F80F2000F006F800F024F8002010BD61
:100C10000020024070B50D4D04464FF47A712878DB
:100C2000B1FBF0F00A490968B1FBF0F000F0DCFA22
:100C300048B9102C07D200222146501E00F036F889
:100C400000206C6070BD012070BD00005C000020C1
:100C5000680000200C4808B5816941F001018161FC
:100C6000816901F001010091C16941F08051C161C8
:100C7000C06900F0805000900448416821F0E061B4
:100C800041F00071416008BD0010024000000140C9
:100C9000002809DB00F01F0201219140400980007B
:100CA00000F1E020C0F8001170470000F0B40E4BD6
:100CB0001B680C46C3F30223C3F10705042D00D9BA
:100CC0000425191D072901D2002300E0DB1E01269F
:100CD00006FA05F1491E214099409E40761E1640B5
:100CE0003143F0BC02F055BA0CED00E0064900F0CB
:100CF000070208684FF6FF03184040EA0220034A43
:100D000010430860704700000CED00E00000FA0599
:100D10002DE9F0470F46050061D0434E306800F0E2
:100D20000700B84209D2306820F00700384330602D
:100D3000306800F00700B84251D128683B4C810769
:100D400012D5400703D5606840F4E0606060287801
:100D5000000703D5606840F4605060606068A9686F
:100D600020F0F000084360602878C00728D0686849
:100D7000012810D02168022810D0890700292EDA16
:100D8000616821F0030101436160FFF761FC804667
:100D900041F288390DE021688903EFE78901EDE729
:100DA000FFF756FCA0EB0801494502D90320BDE836
:100DB000F0876068696800F00C00B0EB810FEFD13C
:100DC000306800F00700B8420BD9306820F0070007
:100DD00038433060306800F00700B84201D001208D
:100DE000E5E72878400705D56068E96820F4E06009
:100DF000084360602878000706D56068296920F4F8
:100E0000605040EAC100606000F038F86168084A4C
:100E1000C1F30311515CC8400649086006480068E8
:100E2000FFF7F8FE0020C2E7002002400010024059
:100E30001E63000868000020600000200448054987
:100E400000684968044AC1F30221515CC8407047F8
:100E500068000020001002402E6300080448054985
:100E600000684968044AC1F3C221515CC840704718
:100E700068000020001002402E6300080E4A5168EE
:100E80000E4801F00C03042B11D0082B0FD10C4895
:100E9000C1F38343C903C05C0AD55168084AC1F352
:100EA0004041921E515C054A5043B0FBF1F070473F
:100EB00004494843704700000010024000127A00C5
:100EC0000E63000800093D002DE9F84F040070D0C2
:100ED0002078C04DC00749D06868C0F38100012860
:100EE00007D06868C0F38100022809D16868C00390
:100EF00006D52868800339D560680028E7D035E03A
:100F00006068B0F5803F0BD010B1B0F5A02F11D0C4
:100F1000286820F480302860286820F4802002E0CF
:100F2000286840F480302860606890B1FFF790FB3B
:100F300006460AE0286840F480202860F0E700BFF9
:100F4000FFF786FB801B642873D828688003F7D5D9
:100F50000CE0FFF77DFB064605E000BFFFF778FBDE
:100F6000801B6428F0D828688003F7D420789A4E34
:100F700080074FF001094FF0000839D5686810F07C
:100F80000C0F07D06868C0F38100022809D1686897
:100F9000C00306D42868800714D52069012808D129
:100FA00010E02069B0B1C6F80090FFF751FB07468A
:100FB00005E00AE1FFF74CFBC01B0228C4D82868F3
:100FC0008007F7D52868616920F0F80040EAC10081
:100FD00028600DE0C6F80080FFF73AFB074604E002
:100FE000FFF736FBC01B022823D828688007F7D4F8
:100FF000207800072CD57948A169D9B1C0F80090B4
:10100000FFF726FB074604E0FFF722FBC01B022880
:101010000FD8686A8007F7D571484FF4FA51006815
:10102000B0FBF1F0009000BF0098411E0091FAD291
:101030000EE080E0C0F80080FFF70AFB074604E0FE
:10104000FFF706FBC01B022875D8686A8007F7D433
:101050002078400760D5E8690027C00008D4E86917
:1010600040F08050E861E869012700F0805000906E
:101070005C480168C90513D40168834641F4807156
:101080000160FFF7E5FA824606E000BFFFF7E0FAED
:10109000A0EB0A0064284ED8DBF80000C005F5D5A7
:1010A000E06801280AD008B1052813D0286A20F08A
:1010B00001002862286A20F0040002E0286A40F05B
:1010C00001002862E06841F2883B98B1FFF7C0FA5E
:1010D00082460BE0286A40F004002862EEE700BF79
:1010E000FFF7B6FAA0EB0A0159455AD8286A8007DB
:1010F000F6D50CE0FFF7ACFA824605E0FFF7A8FA58
:10110000A0EB0A0159454CD8286A8007F6D41FB1D4
:10111000E86920F08050E861E06988B36968C1F34C
:101120008101022944D00228C6F8608004D0FFF76C
:101130008FFA044638E034E0FFF78AFA074604E005
:10114000FFF786FAC01B02282BD828688001F7D445
:10115000206AB0F5803F05D16868A16820F40030AE
:1011600008436860D4E908010843696821F47411F0
:1011700008436860C6F86090FFF76AFA044606E024
:1011800025E000BFFFF764FA001B022809D8286891
:101190008001F7D51BE000BFFFF75AFA001B0228B9
:1011A00002D90320BDE8F88F28688001F4D40EE04E
:1011B0000128F7D06868226A00F48031914204D196
:1011C000616A00F47010884201D00120EAE7002033
:1011D000E8E7000000100240000042428004424262
:1011E000680000200070004010B5401EB0F1807F04
:1011F00001D3012010BD4FF0E02460610F21601782
:1012000001F0C7FF0020A06107202061002010BD71
:101210007047704710B590F83C20012A22D0012277
:1012200080F83C20CA688C6822F4407222434C68E3
:1012300022F4806222430C6822F4006222430C698B
:1012400022F4805222434C6922F400522243C9699D
:10125000002322F480420A4301684A6480F83C304B
:10126000002010BD022010BD70B590F83C20012A6E
:1012700026D0012480F83C40022280F83D200368FB
:101280005A689D6822F070060A6832435A600D4B16
:1012900002689A4208D0B2F1804F05D00A4B9A42B8
:1012A00002D00A4B9A4204D1496825F080031943C1
:1012B000916080F83D40002180F83C10084670BDE8
:1012C000022070BD002C01400004004000080040D6
:1012D00010B5040003D094F83D0010B107E00120E0
:1012E00010BD002084F83C00204600F01FF80220CA
:1012F00084F83D00211D206801F0C8FC012084F81D
:10130000460084F83E0084F83F0084F8400084F8EA
:10131000410084F8420084F8430084F8440084F8D3
:10132000450084F83D00002010BD000008B5114ABA
:1013300001681148914208D1816941F400618161DD
:10134000806900F40060009008BD0C4A9142FBD116
:10135000C16941F00401C161C069002200F00400CC
:10136000009011461E20FFF7A1FCBDE808401E209A
:10137000FFF78EBC002C0140001002400008004026
:1013800090F83D10012901D001207047022180F81A
:101390003D100168CA6842F00102CA6000680B494A
:1013A000884208D0B0F1804F05D00949884202D068
:1013B0000849884204D1816801F00701062903D059
:1013C000016841F00101016000207047002C0140DC
:1013D000000400400008004070B5044690F83C004E
:1013E0000025012817D0012684F83C60022084F8EB
:1013F0003D002068826822F0770222F47F428260FA
:101400000868502838D00DDC20284FD005DC90B378
:10141000102811D14AE0022070BD302846D0402863
:101420000AD13BE060282FD070280DD0B0F5805F46
:1014300003D0B0F5005F12D0012584F83D60002094
:1014400084F83C00284670BDCB68D1E901212068B2
:1014500001F065FC2068816841F0770109E0CB6804
:10146000D1E90121206801F05AFC2068816841F42B
:1014700080418160E1E719E0CA684968206801F0AD
:1014800003FD5021206806E0CA684968206801F021
:101490000CFD6021206801F04CFCCEE7CA68496869
:1014A000206801F0F1FC40212068F4E72268014641
:1014B0001046F0E72DE9F0410D46040003D094F802
:1014C0003D0018B108E00120BDE8F081002084F85B
:1014D0003C00204600F040F8022084F83D002068DF
:1014E000816844F2070291438160211D206801F068
:1014F000CDFB226890689169166A2B68AF69034337
:1015000040F20330814341EA0721A868EF690843AC
:101510004FF6FC418843E96840EA07200143286907
:101520002F6A000140EA0730084369686D6926F0B8
:10153000220646EA0515294393602268906154F813
:10154000460B0162012004F81F09E0752076E07661
:101550002077A0750020B7E700B585B00021009185
:10156000019102910391026820480121B2F1804F5C
:1015700024D01F4B9A421FD1C26942F00202C261BD
:10158000C26902F002020492826942F0080282619A
:101590008069029100F008000490302000906946B4
:1015A0001448FEF75FFF1448416821F4406141F0A0
:1015B000E06141F40061416005B000BDC26942F0E4
:1015C0000102C261C26902F001020492826942F022
:1015D000040282618069029100F0040004900320FB
:1015E000009069460548FEF73DFFE5E70010024020
:1015F00000040040000C01400000014000080140D0
:1016000070B590F83E60044690F83F5090F8423034
:1016100090F84320022021B104290ED0012E1BD1C5
:1016200014E0012E18D1012B16D184F83E0084F865
:10163000420001220021206820E0012D0CD1012A66
:101640000AD184F83F0084F8430014E0012D03D14F
:10165000012B01D1012A01D0012070BD84F83E0088
:1016600084F83F0084F8420084F8430001220021FE
:10167000206801F047FB01220421206801F042FBB1
:101680002068016841F001010160002070BD7047D1
:101690002DE9F04104460068C66805694FF000076F
:1016A000A90713D5B10711D5F91E016101202077D3
:1016B000206880698007204602D0FFF7E8FF04E039
:1016C00000F0A6F8204600F038F92777680716D50D
:1016D000700714D521686FF004000861022020779C
:1016E0002068806910F4407F204602D0FFF7CFFFCA
:1016F00004E000F08DF8204600F01FF92777280756
:1017000015D5300713D521686FF008000861042053
:1017100020772068C0698007204602D0FFF7B7FF16
:1017200004E000F075F8204600F007F92777E80696
:1017300016D5F00614D521686FF010000861082056
:1017400020772068C06910F4407F204602D0FFF760
:101750009EFF04E000F05CF8204600F0EEF82777EA
:10176000E80708D0F00706D021686FF00100086193
:10177000204600F031F9280608D5300606D5216844
:101780006FF0800008612046FFF742FD680608D52B
:10179000700606D521686FF040000861204600F011
:1017A00013FAA8060AD5B00608D521686FF0200004
:1017B00008612046BDE8F041FFF72BBDBDE8F08190
:1017C00000B585B00021009101910291039100685C
:1017D0000C49884213D10C48816941F004018161B0
:1017E0008069694600F0040004904FF44070009056
:1017F00002200190032003900448FEF733FE05B059
:1018000000BD0000002C0140001002400008014013
:10181000704770B5044690F83C0000260D4601283C
:101820000FD0012084F83C006AB1042A1DD0082A98
:101830002FD00C2A3FD00126002084F83C003046EF
:1018400070BD022070BD206801F07CFA20688169BB
:1018500041F0080181612068816921F00401816102
:10186000206881692A69114311E0206801F092FA29
:101870002068816941F4006181612068816921F4F7
:1018800080618161206881692A6941EA0221816160
:10189000D2E7206801F0AAFA2068C16941F0080186
:1018A000C1612068C16921F00401C1612068C1697A
:1018B0002A69114311E0206801F0C4FA2068C16967
:1018C00041F40061C1612068C16921F48061C16196
:1018D0002068C1692A6941EA0221C161ACE710B5FB
:1018E000040003D094F83D0010B107E0012010BDC2
:1018F000002084F83C00204600F01EF8022084F806
:101900003D00211D206801F0C1F9012084F8460046
:1019100084F83E0084F83F0084F8400084F84100D9
:1019200084F8420084F8430084F8440084F84500B9
:1019300084F83D00002010BD7047704710B5044684
:10194000022249B104290ED0082913D094F841008D
:10195000012816D0012010BD94F83E000128F9D1CD
:1019600084F83E200FE094F83F000128F2D184F87B
:101970003F2008E094F840000128EBD184F8402093
:1019800001E084F841200122206801F0BBF90F49F1
:101990002068884203D1426C42F4004242642068CD
:1019A000884208D0B0F1804F05D00949884202D062
:1019B0000849884204D1816801F00701062903D053
:1019C000016841F001010160002010BD002C0140C0
:1019D00000040040000800402DE9F05F00687149F4
:1019E00088427DD1DFF8C0A1DAF80000406A6F4C70
:1019F000DFF8BCB16062DBF800104D6A47F2305886
:101A0000A562404503DBA0F57F40FF38606248F6E1
:101A1000A04148434FF4DD6990FBF9F004F0E2F98E
:101A2000206104F0A3F9E06203F04DFD614A624BCE
:101A300003F060FD06460F46E06B03F044FD3246BE
:101A40003B4603F0C1FA03F00FFDE063454503DBBD
:101A5000A5F57F45FF3DA562A06A48F6A041484331
:101A600090FBF9F004F0BEF9606104F07FF92064A6
:101A700003F029FD4F4A504B03F03CFD05460E464E
:101A8000206D03F020FD2A46334603F09DFA03F053
:101A9000EBFC2065E069494D411C494F00260229B5
:101AA00002D83868466337E004F09CF9024600210A
:101AB000444801F009F804F059F9606304F092F920
:101AC0008046E06A04F08EF901463E4842464830BE
:101AD00000F0FAFF04F04AF9A06300280DDD00E0F1
:101AE0005EE0012280212846FEF7ACFD0022402165
:101AF0002846FEF7A7FDA06B0CE0002280212846B7
:101B0000FEF7A0FD012240212846FEF79BFDA06BB9
:101B10004042A06339684863206A811C042902D8C6
:101B20003868866336E004F05DF9024625480021F6
:101B3000903000F0C9FF04F019F9A06404F052F9E4
:101B40008046206C04F04EF901461E484246D830CB
:101B500000F0BAFF04F00AF9E06400280BDD01226E
:101B600020212846FEF76EFD002210212846FEF7B0
:101B700069FDE06C0CE0002220212846FEF762FDA2
:101B8000012210212846FEF75DFDE06C4042E06432
:101B900039688863DAF800004662DBF800004662C4
:101BA000BDE8F09F00080040600200200000002017
:101BB000A80200207B14AE47E17A843F0008014070
:101BC00018020020A40000207047704770470000F2
:101BD000F8B5016804460868CA684B6910F00F0F31
:101BE0004FF0000559D003F0010602F49077374317
:101BF00065D0C10705D0D10503D5616C41F0010165
:101C00006164410705D5D90703D0616C41F0020139
:101C10006164810705D5D90703D0616C41F00401E7
:101C20006164010707D502F02001314303D0616CE4
:101C300041F008016164616C00293AD0800604D546
:101C4000900602D5204601F071F920684069616C68
:101C5000C0F38010090700D460B3204601F03FF9BB
:101C600020684069400621D52068143050E8001FE4
:101C700021F0400140E80012002AF5D1E06BA8B144
:101C80006D494163E06BFEF78FFB002811D0E06BDC
:101C9000416B01B0BDE8F040084783060FD59306BD
:101CA0000DD52046BDE8F84001F040B92046FFF7C9
:101CB0008DFFF8BD2046FFF789FF6564F8BD266BF0
:101CC0002023012E7CD1C6067AD5D60678D50868A1
:101CD0004868009048694FF00206400640D5E16B25
:101CE000086840680004000CE8D0A28D8242E5D963
:101CF000E085886920282DD020680C3050E8001F2E
:101D000021F4807140E80012002AF5D120681430D7
:101D100050E8001F21F0010140E80012002AF5D12F
:101D20002068143050E8001F21F0400140E8001204
:101D3000002AF5D184F84230256320680C3050E841
:101D4000001F21F0100140E80012002AF5D1E06BDD
:101D5000FEF707FB6663A08DE18D401A81B22AE091
:101D6000A08DE18D401A81B2E08D0028A6D0002917
:101D7000A4D022680C3252E8000F20F4907042E8A0
:101D80000007002FF5D12068143050E8002F22F012
:101D9000010240E80027002FF5D184F84230256386
:101DA00020680C3050E8002F22F0100240E8002399
:101DB000002BF5D166632046FFF707FFF8BDFFE76C
:101DC00005062BD5150629D594F841002128F5D113
:101DD000A068B0F5805F01D12069B0B1206A411CD4
:101DE0002162216800784860E08C401E0004000CED
:101DF000E084E3D12068C16821F08001C1602068DF
:101E0000C16841F04001C160D8E7206A0088C0F392
:101E100008004860206A801C2062E5E74006CDD5B6
:101E20005006CBD5CA68204622F04002CA6084F82A
:101E3000413000F045F9C1E7CF2E000870B504002D
:101E400004D094F84100002510B106E0012070BDD7
:101E500084F84050204600F023F8242084F8410004
:101E60002068C16821F40051C160204601F0C0F82B
:101E70002068016921F4904101612068416921F0E5
:101E80002A0141612068C16841F40051C160656464
:101E9000202084F8410084F842006563002070BD72
:101EA00070B586B000240094019402940394444ECB
:101EB0000368444902200322434DB3422DD18B696C
:101EC00043F480438B618B6903F4804304938B69F3
:101ED00043F008038B618969039201F008010491C2
:101EE0004021CDE9001069462846FEF7BBFA802064
:101EF000CDE90004694628460294FEF7B3FA334858
:101F0000416841F0E06141F0040141600022114666
:101F10002520FEF7CBFE25204EE02D4EB34222D1E8
:101F2000CB6943F40033CB61CB6903F400330493F2
:101F30008B6943F004038B618969264D01F004012C
:101F400004910421CDE90010039269462846FEF76A
:101F500089FA0820CDE90004694628460294FEF774
:101F600081FA06B070BD1C4EB342FAD1CB6943F47E
:101F70008023CB61CB6903F4802304938B6943F006
:101F800008038B618969039201F0080104913115FE
:101F9000CDE9001069462846FEF764FAF014CDE951
:101FA0000004694628460294FEF75CFA00221146B6
:101FB0002720FEF77BFE2720FEF76AFED1E7000010
:101FC0000038014000100240000C014000000140B8
:101FD00000440040000801400048004090F84230B2
:101FE000202B01D00220704721B11AB100230363D6
:101FF00001F05AB80120704700680649884207D1AD
:102000000549012008700246491C0448FFF7E6BF55
:102010007047000000380140000000203803002015
:102020002DE9F843044690F84100984616460D46BF
:10203000202802D00220BDE8F88385B17EB10020BF
:102040006064212084F84100FEF702FBA6848146EB
:10205000E684A0682027B0F5805F02D003E001206D
:10206000E9E7206910B12E4600250EE000260CE0BD
:102070008021204601F033F8A8B9C6B116F8010B4B
:1020800021684860E08C401EE084E08C4B464FF0B5
:102090000002CDF800800028EAD14FF04001204630
:1020A00001F01DF840B184F841700320C3E735F812
:1020B000020BC0F30800E3E784F841700020BAE7A0
:1020C0007047FEE701684A69D24352050FD46FF4A6
:1020D00080624A61002140F8301F202242738173E0
:1020E000026942F00402026101730120704700207E
:1020F000704700002DE9F84F0446006889460B9DA3
:1021000001689846174641F48061016020680168C3
:1021100041F48071016000954FF0011B0022594687
:1021200020460A9B00F0E4F84FF4007A40B12068A2
:102130000068C00501D5C4F840A00320BDE8F88FB1
:10214000216809F0FE0008612B46284920460A9ABA
:1021500000F016F9F0BB20684169806900902A46BA
:1021600020460A9900F0A2F940B1206C04283AD127
:102170002068016841F40071016034E0FEB2B8F1FA
:10218000010F09D02168380A08612A4620460A99B9
:1021900000F08CF90028E8D1206806612A46204624
:1021A0000A9900F083F90028DFD12068016841F422
:1021B0008071016000950022594620460A9B00F07C
:1021C00097F80028B3D1216809F0FF0040F0010022
:1021D000086100E007E02B46044920460A9A00F017
:1021E000CFF80028AAD00120A8E7000002000100D3
:1021F0002DE9F843044600680D46DDE908970168BB
:102200009846164641F4807101604B4600224FF01B
:1022100001112046009700F06BF848B12068006873
:10222000C00502D54FF4007020640320BDE8F88398
:10223000216805F0FE0008613B464A4615492046E4
:1022400000F09EF888B920684169806900903A469C
:102250004946204600F02AF948B1206C042804D1F0
:102260002068016841F4007101600120DEE7F5B2E9
:10227000B8F1010F09D02168300A08613A46494691
:10228000204600F013F90028E7D1206805610020FE
:10229000CCE700000200010070B516460D4604466A
:1022A0001EE02046FFF70EFF08B1012070BD681C3C
:1022B00016D0FEF7CDF9801BA84200D885B920685A
:1022C0004069C04340070BD5002044F8300F20215F
:1022D0006173A073216941F0200121612073E4E75B
:1022E00020684069C0434007DBD4002070BD000077
:1022F0002DE9F047984617460D460446C1F30746B8
:10230000DDF820902AE000BFB8F1FF3F26D0FEF7AD
:102310009FF9A0EB0901414502D8B8F1000F1DD18A
:102320002068012E16D0806925EA00000004000C08
:1023300012D00020B84211D1002044F8300F2021E3
:102340006173A073216941F0200121612073012094
:10235000BDE8F0874069E7E70120EBE72068012E40
:102360000AD0806925EA00000004000C06D0002095
:10237000B842C9D00020EBE74069F3E70120F7E756
:102380002DE9F047984616460D4604464FF00009E1
:102390004FF0200AC1F3074723E020684069C0439B
:1023A000400515D42068016841F40071016021687E
:1023B0006FF480604861C4F8309084F83DA084F8E0
:1023C0003E90216C41F00401216484F83C9021E0AE
:1023D000701C06D0FEF73CF9A0EB0800B04203D811
:1023E00016B1012F1FD021E02068012F15D0806980
:1023F00025EA00000004000C18D000BF44F8309F0C
:1024000084F80DA084F80E90216941F0200121612B
:1024100084F80C900120BDE8F087406925EA0000AF
:102420000004000CEAD12068406901E0206880695E
:1024300025EA00000004000CAFD1ECE72DE9F041E3
:10244000002590460E460446202728E04069C043F8
:10245000C0060CD454F8301B6FF01000486144F8EB
:1024600010596777A577206A2062257714E0FEF778
:10247000EFF8A0EB0800B04200D886B920684069A8
:10248000C04340060BD544F8305F6773A5732069DD
:1024900040F02000206125730120BDE8F081206814
:1024A0004169C9434906D1D40020F6E770B5164604
:1024B0000D4604461EE02046FFF704FE08B1012049
:1024C00070BD681C16D0FEF7C3F8801BA84200D868
:1024D00085B920684069C04300060BD5002044F848
:1024E000300F20216173A073216941F02001216127
:1024F0002073E4E720684069C0430006DBD4002075
:1025000070BD00002DE9F74F8EB00CA902A8CDE9EF
:1025100000010BAB03AA09A907A801F019FB20B120
:102520004FF0FF3011B0BDE8F08FBDF80800C005D6
:102530007ED5039803F056FC6FF01D04214603F08E
:102540008EFE8246049803F04DFC214603F087FE80
:102550008146059803F046FC214603F080FE804644
:10256000069803F03FFC214603F079FE0546012161
:10257000504603F074FE0646414603F093FC0746BE
:102580004FF04041484603F08DFC0446294603F0D5
:1025900089FC394603F0B4FA03F086FA00F072FEC3
:1025A0004FF0663B5A463D4B02F0A4FF02F0DAFCC6
:1025B0000E9908600121404603F051FE414600900B
:1025C00003F070FC07462046494603F06BFC394691
:1025D00003F070FD4FF07E5103F092FA03F064FABD
:1025E00007460C463046494603F05CFC0646294641
:1025F000009803F057FC314603F082FA03F054FAD6
:102600003A46234601F086F85A46244B02F072FF00
:1026100002F0A8FC0F9908602946084603F042FC26
:1026200007464146084603F03DFC0646494600E0A1
:1026300031E0084603F036FC04465146084603F0F4
:1026400031FC214603F05CFA314603F033FD394694
:1026500003F030FD03F028FA06460C464146484692
:1026600003F020FC07462946504603F01BFC394680
:1026700003F046FA012103F0F2FD03F015FA3246A9
:10268000234601F047F85A46044B02F033FF02F0AC
:1026900069FC10990860002044E7000066A64C40E1
:1026A00038B5684601F080FE10B14FF0FF3038BDFC
:1026B000782002F04BFB10B16FF0010038BD78209C
:1026C00001F02AFE10B16FF0020038BD642002F064
:1026D000F1FA10B16FF0030038BD01F02FFA10B11C
:1026E0006FF0040038BD1648044601F0BBFC0546F7
:1026F000E01C01F0B7FC45EAC005A01D01F0B2FCEA
:1027000045EA801080B201F009FB10B16FF00500BE
:1027100038BD40F2731001F0E9F810B16FF0060017
:1027200038BD642001F0C8FA10B16FF0070038BD61
:10273000012002F0BBF90028F9D06FF0090038BD84
:102740009800002030B585B00020009001900290E4
:1027500003901B48816941F020018161816901F08A
:1027600020010491816941F004018161816901F0D6
:1027700004010491816941F0080181618069114D72
:1027800000F0080004900122F0212846FDF75AFFCE
:1027900030200124CDE900040220CDE90240694641
:1027A0002846FDF75FFEC020CDE900040320CDE9F7
:1027B000024069462846FDF755FE05B030BD0000D1
:1027C00000100240000801400D4810B50B4901609F
:1027D0000C49416000214FF480428160C0E903123E
:1027E00041618161C1610162FDF738FF002803D0BA
:1027F000BDE81040FDF7B3BD10BD0000005400401F
:10280000C4010020801A060010B596B000240F9471
:1028100010941194129413941C2168461494FDF79B
:1028200007FD202107A8FDF703FD2C482A49016078
:102830004721C0E901146321C0E9031444618461A4
:10284000FEF746FD08B1FDF78AFD4FF480500F906A
:102850000FA92248FEF7C0FD08B1FDF780FD1F4813
:10286000FFF73DF808B1FDF77AFD139413A91B4853
:102870001494FEF7F9FC08B1FDF771FD6020CDE975
:1028800000040294039404940594002269461348BA
:102890000694FEF7BEFF08B1FDF761FD042269460C
:1028A0000E48FEF7B6FF08B1FDF759FD07940894EE
:1028B00009944FF400500A94CDE90B4007A907484A
:1028C0000E94FEF7A7FC08B1FDF749FD0348FEF79B
:1028D00077FF16B010BD0000002C01401802002048
:1028E00010B58CB024216846FDF7A2FC00241548E1
:1028F00009944FF080410A94C0E900144FF6FF712B
:10290000C0E90241046184610320CDE90004012093
:10291000CDE902040494CDE90540079469460948CD
:102920000894FEF7C7FD08B1FDF719FD099409A940
:1029300004480A94FEF798FC002801D0FDF70FFD2B
:102940000CB010BD6002002010B58CB02421684688
:10295000FDF76EFC00241648099414490A94C0E956
:1029600000144FF6FF71C0E9024104618461032045
:10297000CDE900040120CDE902040494CDE905402D
:10298000079469460A480894FEF794FD08B1FDF7DC
:10299000E6FC099409A906480A94FEF765FC00289C
:1029A00001D0FDF7DCFC0CB010BD000000040040BD
:1029B000A802002010B586B00024174800940194A6
:1029C00002940394049413490594016041F61F4155
:1029D000C0E901146321C0E903148461FEF778FCA7
:1029E00008B1FDF7BCFC4FF48050009069460A48DE
:1029F000FEF7F2FC08B1FDF7B2FC049404A9064806
:102A00000594FEF731FC002801D0FDF7A8FC06B0C4
:102A100010BD000000080040F00200200C4810B576
:102A20000A4901604FF416514160002181600C2277
:102A3000C160C0E904128161C161FFF7FFF900289C
:102A400003D0BDE81040FDF78ABC10BD003801403E
:102A5000380300200C4810B50A4901604FF4E131F9
:102A60004160002181600C22C160C0E904128161D3
:102A7000C161FFF7E3F9002803D0BDE81040FDF77E
:102A80006EBC10BD00440040800300200C4810B50F
:102A90000A4901604FF4E1314160002181600C225C
:102AA000C160C0E904128161C161FFF7C7F9002864
:102AB00003D0BDE81040FDF752BC10BD00480040F7
:102AC000C8030020FEE7FEE72DE9F047040011D01F
:102AD000206C60648146E06B2064C4E90621804676
:102AE000104603F0E7FA0546E063207828B1012894
:102AF0003BD038E00020BDE8F0872946606803F04D
:102B0000D1F960622946A06803F0CCF9A16A02F00D
:102B1000F7FF0646A062606BA063206B60634146CE
:102B2000284603F0C7FA01462063E06803F0BAF9CB
:102B3000E0623046616903F081FA606908D380F091
:102B40000040A16A03F07AFA03D2606980F0004085
:102B5000A062D4E9090102F0D3FFE16A31E0206903
:102B600080F000402062206AC5E74146284603F015
:102B7000A1FA616803F096F9074660622946A068E9
:102B800003F090F90646A062606BA063206B60635F
:102B90000121404603F063FB294603F080FA4946D1
:102BA00002F0AEFF01462063E06803F07BF90546C2
:102BB000E0623146384602F0A3FF294602F0A0FF4A
:102BC000216A02F09DFF2062216903F037FA206933
:102BD000C8D380F00040216A03F030FAC3D2BEE7C8
:102BE00010B50028029C16D0002A14D0017011687C
:102BF00041605168816000F10C0C91688CE81A000A
:102C000000218163416301630162C16281624162AB
:102C100041640164C16310BD70477047FDF7E0BFB8
:102C200030B58FB028216846FDF702FB14210AA8B1
:102C3000FDF7FEFA01210804CDE9001000240294FA
:102C400002250491CDE907504FF4E0100990684641
:102C5000FEF73AF908B172B6FEE70F20CDE90A0592
:102C60004FF48060CDE90C4002210AA80E94FEF7D3
:102C70004FF8002801D072B6FEE70FB030BD7047A4
:102C80000148FEF705BD0000F0020020F0B5026823
:102C9000194B1A4C1A4D4FF08047984205D0B84254
:102CA00003D0A04201D0A84203D122F070064A68A6
:102CB0003243984205D0B84203D0A04201D0A84286
:102CC00003D122F44074CA6822434C6922F0800286
:102CD000224302608A68C2620A688262984201D115
:102CE00009690163012141610169C90703D00169D3
:102CF00021F001010161F0BD002C01400004004001
:102D00000008004010B501F01F030121046A99403A
:102D10008C430462016A9A401143016210BD10B5F0
:102D2000846842EA032224F47F440A4322438260F7
:102D300010BD826822F070020A4342F007018160F0
:102D40007047000030B5036A026A22F00102026295
:102D50004268846924F073050C682C4323F0020553
:102D60008B682B430A4DA8420BD123F00805CB6892
:102D700022F440722B434D6923F0040315438A6902
:102D80002A434260846149684163036230BD0000A8
:102D9000002C014030B5026A036A23F0100303627D
:102DA000436884690D6824F4E64444EA05248D6888
:102DB00022F0200242EA05120B4DA8420ED1CD6846
:102DC00022F0800242EA05124D6923F4406343EA8F
:102DD00085038D6922F0400243EA850343608461E4
:102DE00049688163026230BD002C014030B5036A3E
:102DF000026A22F4807202624268C46923F400739A
:102E000024F073050C682C438D6843EA05230C4DB0
:102E1000A8420ED1CD6823F4006343EA05234D692F
:102E200022F4405242EA05128D6923F4806342EA9B
:102E300005124260C4614968C163036230BD00008D
:102E4000002C014030B5046A026A22F4805202620A
:102E50004268C3690D6823F4E64343EA05238D689D
:102E600024F4005444EA0534064DA84204D14D69C7
:102E700022F4804242EA85124260C36149680164DB
:102E8000046230BD002C014010B5036A046A24F0CE
:102E900001040462846924F0F00444EA021423F07B
:102EA0000A020A438461026210BD10B5036A046A13
:102EB00024F010040462846923F0A00324F4704415
:102EC00044EA023243EA01118261016210BD10B589
:102ED000406A0021C185C184FEF778FE10BD0168FB
:102EE0000C3151E8002F22F4907241E80023002BAE
:102EF000F5D10168143151E8002F22F0010241E8B8
:102F00000023002BF5D1016B012909D101680C3197
:102F100051E8002F22F0100241E80023002BF5D1E8
:102F2000202180F8421000210163704708B590F815
:102F30004210222901D0022008BD82684FF480533C
:102F40009A4201D1016921B1816A9A421BD04AB1EA
:102F50000AE00268816A5268C2F308020A80816A44
:102F6000891C08E0026972B10268526802F07F02AF
:102F70000A70816A491C8162C18D491E0904090CCD
:102F8000C18503D01BE002685268F1E70168CA6896
:102F900022F02002CA600168CA6822F48072CA6006
:102FA00001684A6922F001024A61202180F842103A
:102FB00000214163026B012A03D0FFF71DF80020B6
:102FC00008BD016301680C3151E8002F22F01002A6
:102FD00041E80023002BF5D101680A68D20602D52A
:102FE0000A6849680091818DFEF7EFFDE7E7000070
:102FF00070B5044600680169E26821F4405111434C
:1030000001612169A0680843616908432168CA68B1
:1030100041F20C639A430243CA6020684169A26985
:1030200021F44071114341611E492068884202D158
:10303000FDF714FF01E0FDF701FF00EBC00101EB1C
:103040000012606864218000B2FBF0F3B3FBF1F37F
:103050006FF018067343B2FBF0F5B2FBF0F605EB28
:103060008305322303EB0515B5FBF1F5B6FBF1F64D
:1030700005F0F00505EB0615B2FBF0F6B2FBF0F03B
:10308000B0FBF1F06FF01802504306EB800003EB49
:103090000010B0FBF1F0216800F00F0028448860B8
:1030A00070BD00000038014081628285C285002128
:1030B0004164222180F84210016921B10168CA6887
:1030C00042F48072CA6001684A6942F001024A61B2
:1030D0000068C16841F02001C160002070472DE9FF
:1030E000F843984617460D460446089E24E0701C97
:1030F00022D0FDF7ADFAA0EB0800B0421AD8CEB14D
:103100002068C168490717D5802D15D0402D13D0F0
:103110000168C94309070FD4016800254068009081
:103120002046FFF7DCFE0820606484F84050012050
:10313000BDE8F8830320FBE72068006835EA00005B
:1031400004D00020B842D2D00020F1E70120F9E7F6
:103150000148FEF73DBD0000380300200148FEF79E
:1031600037BD0000C8030020FEE7490050EAC12037
:1031700018BF04204A0D18BF40F0010040F2FF7252
:10318000B2EB515F08BF40F00200012808BF0520E4
:1031900070470907090E002804DB00F1E02080F8E1
:1031A0000014704700F00F0000F1E02080F8141DBB
:1031B00070472DE9F0414F1E00EBC7010446D1E9ED
:1031C000000115461E4637F006020DD02A4633464A
:1031D00002F090F97F1E04EBC703D3E9002301F04E
:1031E000F3FE37F00602F1D1022F25D0042F13D0C1
:1031F000062F18BFBDE8F0812A46334602F07AF95F
:10320000D4E90A2301F0E0FE2A46334602F072F9BF
:10321000D4E9082301F0D8FE2A46334602F06AF9C1
:10322000D4E9062301F0D0FE2A46334602F062F9C3
:10323000D4E9042301F0C8FE2A46334602F05AF9C5
:10324000D4E9022301F0C0FE2A46334602F052F9C7
:10325000D4E90023BDE8F04101F0B6BE012202F03E
:10326000D0BF01F0B1BE002213461046114601F056
:1032700067BF0000024A0020110702F0C2BF000031
:1032800001FDFFFF2DE9F04D8D4F21F0004A86B082
:1032900005460C46BA452ADBAAEB070028430AD0AC
:1032A0008848824501DC1AD1CDB106B02846BDE878
:1032B000F04DFFF7D3BF844A844B284602F01AF939
:1032C00007460E46824A834B2846214602F012F9F1
:1032D00006B03A463346BDE8F04D01F075BE012018
:1032E000FCF7D5FF06B0BDE8F04DFFF7BCBF7A484C
:1032F000824542DABAF1795F0BDA2846FFF735FFEB
:10330000042808BFFFF7B6FF284606B02146BDE8EF
:10331000F08D2A460B46104602F0ECF88346024632
:103320006E480E460B4606217844FFF742FF5A4688
:10333000334602F0DFF8804669488A465A463346EB
:1033400004217844FFF735FF5A46334602F0D2F89D
:1033500000223B4601F038FE02460B4640465146ED
:1033600001F0EEFE2A46234602F0C4F806B02A46D3
:103370002346BDE8F04D01F027BE284624F0004169
:1033800000223D463B4602F0B3F94FF0FF3202F017
:1033900038FF0646024653480F460B46062178443E
:1033A000FFF707FF32463B4602F0A4F8CDE90001E3
:1033B0004D4832463B4604217844FFF7FAFE324638
:1033C0003B4602F097F800222B4601F0FDFD8346B4
:1033D00002913046394601F09FFD804643480D4634
:1033E000504517DCDDE900015A46029B01F0A8FEBA
:1033F00042462B4602F07EF842462B4601F0E4FDA1
:10340000012202F0FEFE304A304B02F063FA304AED
:10341000304B4CE04FF0000A52460B46404601F05C
:10342000D3FDCDE9031052462B461046194602F053
:1034300061F832463B4602F05BF9DDE9033201F008
:103440007FFE06460F46DDE900015A46029B01F069
:1034500077FE8346009101223046394602F0D1FEC4
:10346000194A1A4B02F044F906460F46012240461B
:10347000294602F0C6FE5A46009B02F03BF832464F
:103480003B4602F027FA06460F46012250462946DF
:1034900002F0B7FE0E4DDFF858802A46434602F090
:1034A00027F932463B4602F023F92A46434602F00A
:1034B0001FF9002CD8BF81F0004106B0BDE8F08DA7
:1034C0000000F03F0000F07F075C143326A6913C1B
:1034D000182D4454FB21F93F0000E03F543C00000C
:1034E0006A3C0000DE3B0000F43B00003333EF3F5A
:1034F000FB21E93F2DE9F84F04460D4621F000403D
:1035000000917349814211DC7249884201DC06D185
:103510002CB120462946BDE8F84FFFF79FBE6E4804
:10352000002DCCBF6D496E49BDE8F88F6D498142D1
:1035300011DD6D498142D8BF4FF0FF366DDD204669
:103540002946FFF712FE042808BFFFF793FE204626
:103550002946BDE8F88F6549654F25F00045814251
:1035600033DD6449814219DD002632464FF0804345
:103570002046294601F028FD80468A460122204641
:10358000294602F03EFE00223B4602F0A3F94246E5
:10359000534601F0D5FD04460D463EE001260022CB
:1035A000BA463B462046294601F00EFD80460F46AE
:1035B000002253462046294602F08CF942463B46FB
:1035C00001F0BEFD04460D4627E04B4981421BDD5C
:1035D000DFF828A10226002253462046294601F0A2
:1035E00089FF00223B4601F0EFFC80460F46002297
:1035F00053462046294602F06DF942463B4601F00B
:103600009FFD04460D4608E0032622462B46002077
:103610003B4901F095FD04460D4622462B461046D7
:10362000194601F067FF8B46824602460B4601F0C1
:1036300061FF07460246334888460B460621784418
:10364000FFF7B7FD52465B4601F054FF82462E4815
:103650008B463A46434605217844FFF7AAFD3A4691
:10366000434601F047FF02460B46002E504659469E
:103670000CDA01F0A9FC22462B4601F03BFF01B019
:1036800022462B46BDE8F04F02F032B801F09CFC18
:1036900022462B4601F02EFF1C4A7A4402EBC60359
:1036A000D3E9002302F016F922462B4602F012F964
:1036B000174A7A4402EBC603D3E9002302F018F854
:1036C000009A002AB8BF81F00041BDE8F88F0000E1
:1036D000000010440000F07F182D4454FB21F93FF6
:1036E000FB21F9BF0000DC3F0000203E0000F33F5B
:1036F0000000F03F0000E63F008003400000F83F7C
:103700000000F0BFF6390000B43900005239000063
:103710001A3900002DE9F04D9446CCF1000423F055
:1037200000464CEA0404594F46EAD4749A46884647
:1037300021F00042BC4206D8454240EA050442EA74
:10374000D474BC4204D9BDE8F04D6246FFF789BD90
:10375000AAF14055A5F17F6555EA0C040BD002246F
:1037600004EAAA744A4DDFF82CE144EAD87452EA1C
:10377000000B04D00CE0BDE8F04DFFF7BBBE002C01
:1037800014BF012CBDE8F08D022C30D0032C32D0B8
:1037900056EA0C0B0AD0BE4220D1BA4209D126F01B
:1037A000804622F080423346114617E000291ADB9A
:1037B00025E0DFF8E4B0FB44002C04BFDBE90001A6
:1037C000BDE8F08D012C02BFDBE9000181F0004172
:1037D000BDE8F08D022C0AD0032C0CD0BA4212D1D5
:1037E000B8F1000F0BDA2A482C49BDE8F08D2846C5
:1037F0002B49BDE8F08D28467146BDE8F08D244880
:103800002849BDE8F08D921B12153C2AC4BF204FF9
:10381000244E10DCBAF1000FBEBF12F13C0F00279E
:103820003E4608DB624601F08BFC21F00041FFF7C9
:1038300061FE07460E4694B1012C08BF86F0004693
:103840000DD0194A194B022C3846314615D002F0DA
:1038500041F82A46BDE8F04D114B02F03BB800227A
:1038600013463846314601F0C3FD04BF0220FCF781
:103870000EFD38463146BDE8F08D02F02BF82A46A1
:10388000BDE8F04D064B01F033BF00000000F07FB3
:10389000182D4454FB2109C0AE380000FB21F9BFAC
:1038A000FB210940FB21F93F075C143326A6A13C0C
:1038B00008B560B120208DF8000028208DF80100A7
:1038C00030208DF8020038208DF8030004E0A32298
:1038D00004216846FCF7A4FC6A46042140F69E20B9
:1038E00001F0A2FA00F02AFF08BD00003EB5044630
:1038F00002208DF80000CA208DF80100E3208DF829
:10390000020009208DF803006A460421682001F0B6
:103910008BFAA3208DF80000610609D5C0218DF82F
:103920000110C8218DF80210C2218DF8031005E0A6
:103930008DF801008DF802008DF8030014F4C07FAB
:1039400009D0C4218DF80410CC218DF80510C621B2
:103950008DF8061005E08DF804008DF805008DF84F
:1039600006008DF808008DF807008DF809006A46FA
:103970000A2140F6A72001F057FAA0074FF0D8051A
:1039800003D020208DF8000001E08DF800506A4639
:10399000012140F6B62001F047FAA00601D501202A
:1039A00000E0002000F08EF814F4C07F1ED0E00587
:1039B0000AD5B2208DF800008B208DF80100B620CA
:1039C0008DF802009B2009E0B0208DF800008020D7
:1039D0008DF80100B4208DF8020090208DF80300CE
:1039E0006A46042140F6A22001F01EFAE1074FF4D6
:1039F0000B6022D0F8218DF800106A46012101F0F9
:103A000013FAFA21072000F079FA072000F044FAAF
:103A1000012000F061FA642000F004FB4FF4FA701A
:103A200000F010FBC821254800F0FEF9282000F026
:103A300013FA0A2000F020FA05E08DF800506A46DB
:103A4000012101F0F1F9A00703D5D9208DF800007C
:103A500001E08DF800506A46012140F23D7001F00E
:103A6000E3F9600701D5012000E0002000F048F8EC
:103A7000E00601D5012000E00020FFF719FF104DFE
:103A800044F00800688100F059FE0020A873600629
:103A900001D50620A87314F4C07F02D0A87B801D36
:103AA000A87314F0140F02D0A87B1030A873A007DD
:103AB00002D0A87B001DA87300203EBD09E3CA0206
:103AC000100400200EB54FF4976310B106A107C98A
:103AD00001E008A207CA8DE807006A4609211846D6
:103AE00001F0A2F90EBD0000B8AAB38DB4980D354F
:103AF0005D000000B8AAAAAAB088C3C5C70000002C
:103B000008B560B1C0208DF80000C2208DF801001A
:103B1000C4208DF80200C6208DF8030004E08B223B
:103B200004216846FCF77CFB6A46042140F6982095
:103B300001F07AF900F002FE08BD0000C8234FF43E
:103B40008062024940F6F63000F09CBC88630008B1
:103B50002DE9FF4F89B01746DDE916520024554E76
:103B6000884681462C80A246B07B694600F04CFD19
:103B70004FF0FF3B18B158460DB0BDE8F08F70898B
:103B800010F0140F4CD0BDF800109DF8022049BA77
:103B9000090441EA02239DF803100B433B60BDF882
:103BA00004109DF8062049BA090441EA02229DF852
:103BB00007101B140A437A60BDF808109DF80A40EC
:103BC00049BA090441EA04219DF80B40121421432B
:103BD000B960BDF80C409DF80EC064BA240444EAF4
:103BE0000C2C9DF80F4009144CEA040CC7F80CC0CB
:103BF0004FEA2C475B43494302FB023207FB0711A4
:103C000011441024A1F17061B1F1007F04D900F0DA
:103C100095FDA5F800A0AEE7298841F480712980C0
:103C20004206694611D50A19A41D13885BBAA8F883
:103C3000003053885BBAA8F80230928852BAA8F8CC
:103C400004202A8842F008022A8010F4C07F11D094
:103C50000A19A41D13885BBAA9F8003053885BBA0F
:103C6000A9F80230928852BAA9F804202A8842F0B2
:103C700070022A80800716D00C44E07800F0C0055E
:103C800000F03F016078C00706D0C80801F00701C6
:103C90003268491C02B190476078000703D571680B
:103CA00009B1A8098847FCF7D3FC0C9908600020EB
:103CB00062E700001004002030B5044613A285B06E
:103CC00007CA8DE807004FF0FF35C82C16D8C8206A
:103CD000B0FBF4F1491E080A8DF80C008DF80D10A8
:103CE00003AA022140F2162001F09EF830B96A467C
:103CF0000C2140F6C12001F097F810B1284605B01C
:103D000030BD054884810020F9E70000FEF2ABC415
:103D1000AAF1DFDFBBAFDFDF100400202DE9FF4198
:103D200004463CA004F00303006802903AA0006837
:103D300003903AA006683AA0056802A8C15C8DF815
:103D40000010C4F3C101425C8DF80120C4F381125C
:103D5000805C8DF8020003A8C35C8DF80430415CE0
:103D60008DF80510805C8DF806006A46032140F24C
:103D7000264001F059F84FF0FF37E0BB01AA0321BC
:103D800040F22A4001F050F8A8BBCDE90065600779
:103D90000BD59DF8000040F001008DF800009DF863
:103DA000040040F001008DF80400A0060BD59DF83A
:103DB000010040F001008DF801009DF8050040F081
:103DC00001008DF80500E0050BD59DF8020040F0DC
:103DD00001008DF802009DF8060040F001008DF80A
:103DE00006006A4603214FF4886001F01DF810B9FF
:103DF00001AA032100E004E040F2314001F014F890
:103E000018B1384604B0BDE8F081064804810020AE
:103E1000F8E700004CCD6C000CC92C00365676003B
:103E200026466600100400204FF47A7290FBF2F0F0
:103E300008B54843010E8DF80010010C8DF80110F3
:103E4000010A8DF802108DF803006A4604214FF430
:103E5000AE7000F0E9FF08BD0521B0FBF1F008B538
:103E6000010A8DF800108DF801006A4602214FF416
:103E7000AD7000F0D9FF08BD0521B0FBF1F008B529
:103E8000010A8DF800108DF801006A4602214FF4F6
:103E9000AC7000F0C9FF08BD08B500218DF8001016
:103EA000C10702D030218DF80010810705D59DF89B
:103EB000001041F00C018DF80010400705D59DF869
:103EC000000040F003008DF800006A4601214FF425
:103ED000A47000F0A9FF08BD08B560B1042800D99E
:103EE0000420401E8DF800006A46012140F24F1068
:103EF00000F09AFF08BD0120F3E700002DE9FC4126
:103F0000054640074FF0FF367CD0B1F5C86F79D831
:103F1000084601F07FFF3E4901F066FE074601A812
:103F200000F024FA9DF80400022806D004280DD0E1
:103F300008282ED0102865D134E00E21384602F032
:103F40008EF901F02FFF84B2324907E00D21384687
:103F500002F085F901F026FF2F4984B2384601F0BE
:103F6000A1FF01F01FFF210A8DF8001080B28DF82B
:103F70000140010A8DF802108DF80300E8076C4635
:103F800020D0224602214FF4EA7000F04DFFC8BB5A
:103F900011E00C21384602F062F901F003FF84B20F
:103FA0001E49DBE70B21384602F059F901F0FAFE11
:103FB00084B21B49D2E7A21C02214FF4927000F098
:103FC00033FFF8B9A8070DD56A4602214FF4EC700B
:103FD00000F02AFFB0B9A21C02214FF4947000F047
:103FE00023FF78B9680710D56A4602214FF4EE70B6
:103FF00000F01AFF30B9A21C02214FF4967000F0B5
:1040000013FF10B13046BDE8FC810020FBE7000043
:1040100000004843000040460000C0450000404505
:104020000000C0440521B0FBF1F008B5010A8DF88D
:1040300000108DF801006A4602214FF4EF7000F085
:10404000F3FE08BD0521B0FBF1F008B5010A8DF8BB
:1040500000108DF801006A4602214FF4ED7000F067
:10406000E3FE08BD90F90010002902DD4FF00000CA
:10407000704702DA4FF00400704790F901100029F0
:1040800002DD4FF00100704702DA4FF00500704783
:1040900090F90200002802DD4FF00200704702DABA
:1040A0004FF0060070474FF00700704708B5FCF767
:1040B0009FFDFEF7B5FDFEF745FBFEF785FBFEF71E
:1040C000A3FBFEF70DFCFEF73FFCFEF773FCFEF7CB
:1040D000A5FCFEF7DBFCFEF7BDFC7E4CFEF7E0FA2C
:1040E000A0610028FAD100217B48FDF727FC0421BC
:1040F0007948FDF723FC3C217848FDF781FA3C2103
:104100007748FDF77DFA7748FDF73AF973480025BF
:1041100000684562724800684562744F724E3B46C3
:10412000734A294673480096FEF75AFDDFF8C881A6
:104130006F4A704843460C3A002148300096FEF71B
:104140004FFD6B4A6B483B46183200219030009679
:10415000FEF746FD664A674843460C320021D830D8
:104160000096FEF73DFD5B490122491C6348FDF7BF
:1041700035FF634F4FF0030A4FF48E7B4FF0010978
:104180005A266FF05908534A0C32111F081FFEF7C8
:10419000B9F9E068B84203D35A4901F0B1FCE060D4
:1041A0002078D0B32570607800286DD06078012821
:1041B0005FD06078F12831D0607802286ED06078C6
:1041C000F22830D06078032853D06078F32825D0C7
:1041D0006078042862D06078F42824D060780528BC
:1041E00025D06078062825D06078072841D06078EF
:1041F000F72813D06078082846D06078F82843D094
:104200006078092840D06078F9283DD0607810287F
:1042100044D06078F02806D012E01FE04FF4B4607C
:104220002063404208E038482063404204E04FF4F5
:10423000347000E035482063E5636064C4E91459D4
:10424000244964230122491C2C48FDF7E9FE214939
:1042500064230122491C2E48FDF7E2FE606D40B345
:10426000E16B206B401AE061216D606C401A2062A6
:1042700089E76565C4E90C5B2648C4E91150E5632C
:10428000C4F858902565DBE765652563656465635B
:10429000A564E563C4F858A02565D1E71D486565A8
:1042A000C4E90C50C4E9115BE56302202565A065F3
:1042B000C6E7A06D012806D0022807D00328D7D171
:1042C000E56125625FE7C4E907685CE7C4E9078642
:1042D00059E70000000000201802002060020020C2
:1042E000A8020020F002002000007A440000FA43F7
:1042F000E8620008A40000200000A041380300206C
:10430000000080800000B44360FAFFFF30FDFFFF33
:10431000C8030020E4FEFFFF2DE9F041124C20F01D
:104320000101002594F8240010B10020BDE8F081BF
:10433000A07A4FF0FF3668B10840277C207488428D
:1043400000D0354641B1012000F0A8FD00F0F6F99B
:1043500038B127743046E9E7207D00B1012000F034
:104360009DFD2846E2E700006C0000200D494A7AD6
:1043700042B1012A08D0022A0FD0032A0FD04FF0F1
:10438000FF307047022200E004220270C97C11B1A4
:104390001106C90D0170002070470822F5E71022B0
:1043A000F3E700006C0000202DE9F04385B0802089
:1043B0008DF80C0047000DF10C08012640462F4CEB
:1043C0008DE8C10020683346427D606801782C4842
:1043D000FCF736FB4FF0FF39F0BB6420FCF730F8F8
:1043E00000258DF80C50CDF80080CDE901672068DC
:1043F0000123427D606801782148FCF721FB58BB0E
:10440000E574FF2004F80A0F4FF6FF7104F8020C60
:1044100004F8010C6070A180A0712072A67026764D
:104420006576E572A572E56025616561A576E5763C
:10443000A5834FF4FA6000F083FB68B9022000F016
:104440005DFA48B92A2000F0F5FB28B9322000F0C7
:1044500031FC08B9002000E006E0FFF75DFF18B965
:10446000002000F087FA18B1484605B0BDE8F08397
:10447000002000F06BFC0020F7E700006C0000203B
:10448000C40100202DE9FF4FDFF8A080064689B067
:1044900098F8250015460F464FF0FF39E0BBDFB313
:1044A000002420E0301B102800DD102080B283465D
:1044B0003A1901469246204600F0B6FC60BB03AABA
:1044C0005946204600F000F930BB50465A4603A931
:1044D000FBF77AFE20B16FF001000DB0BDE8F08F60
:1044E00004EB0B0084B2B442DCD3280A8DF81C0024
:1044F0008DF81D504FF48072022107A88DE8070047
:10450000D8F8000044460123427FD8F8040001781F
:104510000748FCF795FA08B14846DEE7012084F821
:1045200025000C98E0840020D7E700006C000020F4
:10453000C40100202DE9FF5F0546282851D8002638
:104540002F4C0DF10C094FF007084FF4807A022729
:104550007DB1012000F034FB20208DF80C004FF0DD
:10456000010B012D1BD0052D1CD88DF80DB0052099
:1045700022E0002000F024FBCDE900978DF80C60CC
:104580008DF80D80CDF808A020680123427D606879
:1045900001781C48FCF754FA18BB26752EE08DF8FC
:1045A0000D60E4E7142D03D88DF80D700A2003E0A8
:1045B00003208DF80D00142000F03CFB9DF80D1039
:1045C000CDE9009708EB81108DF80D00CDF808A01B
:1045D00020680123427D606801780A48FCF730FAC0
:1045E00020B14FF0FF3004B0BDE8F09F0820A0726A
:1045F000267384F814B00020FFF78EFE0020F2E747
:104600006C000020C40100202DE9FF5F2C4C064601
:10461000904694F824008B464FF0FF3AC0B3A07A3E
:10462000B0B30DF10C094FF48077022148468DE8B4
:10463000830020680123027B606801782148FCF731
:10464000D1F828BBBDF80C0045BAB54203D2002111
:1046500088F800102AE060684188B5EB510F18D93E
:104660000122CDF80090CDE9012721680123CA7C01
:1046700001781448FCF7B6F850B99DF80C00C00654
:1046800007D500F05BF86FF0010004B0BDE8F09FC3
:104690000CE0CDF800B0CDE9016720680123427B32
:1046A000606801780748FCF79DF808B15046ECE7D0
:1046B000B5FBF6F0401E88F800000020E5E700009A
:1046C0006C000020C40100202DE9FF4115000E46BA
:1046D0004FF0FF3729D0174CA17A31B3010A8DF87A
:1046E0000C10C0B28DF80D008119606842899142AA
:1046F0001BD8022203ABCDE900324FF48078CDF80D
:10470000088021680123CA7E01780B48FCF798F9DC
:1047100058B98DE8600120680123027E6068017845
:104720000548FCF75FF8002800D0384604B0BDE823
:10473000F08100006C000020C40100202DE9FF473B
:104740006C4C4FF0FF3AA07A00287CD000270DF186
:104750000C088DF80C704FF48076012540468DE8EA
:10476000610020682B46427C606801786248FCF753
:1047700067F9002867D1CDF80080CDE9015621689E
:10478000606801234A7901785B48FCF759F90028F1
:1047900059D1CDF80080CDE9015621686068012328
:1047A0000A7901785448FCF74BF900284BD194F86A
:1047B000240088B30C208DF80C00CDF80080CDE9E2
:1047C0000156206801230279606801784A48FCF7A5
:1047D00037F9002837D13220FBF732FEC0208DF8A0
:1047E0000C00A07AC00702D0E0208DF80C00CDF8B4
:1047F0000080CDE901562068C14601230279606836
:1048000001783D48FCF71CF900286ED1607C20B18E
:1048100002208DF80C0002E019E08DF80C70CDE953
:104820000095B046CDF8088020684E460123427CB2
:10483000606801783048FCF703F920B98DF80C70F6
:10484000CDF8088000E050E0CDE9006543E00420A9
:104850008DF80C00CDF80080CDE9015620680123C9
:104860000279606801782448FCF7EAF8E8BBA07C8C
:10487000A0B9A07AC00711D05FF060008DF80C00DD
:10488000CDF80080CDE901562068012302796068E7
:1048900001781948FCF7D4F838BB01E04020EDE777
:1048A0003220FBF7CDFD607C10B18DF80C5001E09B
:1048B0008DF80C70CDF80080CDE9015620680123F9
:1048C000427C606801780C48FCF7BAF868B909487E
:1048D00010308DE86100206801234279606801781A
:1048E0000548FCF7ADF8002800D0504604B0BDE8FC
:1048F000F08700006C000020C40100207FB51B4C35
:104900004FF0FF35A17A51B3022806D0042806D013
:1049100008280ED0102822D10DE0002000E0082049
:104920008DF80C00607A9DF80C10B0EBD10F04D01C
:1049300006E01020F4E71820F2E7002004B070BD74
:104940004FF48072012103A88DE80700206801233D
:10495000C279606801780648FCF772F808B1284609
:10496000ECE79DF80C00C0086072E6E76C000020E0
:10497000C40100202DE9FF474A4C0746A07CB842FD
:1049800003D1002004B0BDE8F08746484FF0FF3A5D
:104990004FF48075D0E900104FF0010803AECFB39B
:1049A0000096CDE901850A79017801233E48FBF79D
:1049B00019FF002871D19DF80C00CDE9006820F0A6
:1049C0002000A9468DF80C00CDF8089020684546D7
:1049D00001230279606801783348FCF731F8E8BBBD
:1049E0000320FBF72DFD02208DF80C0094F8220027
:1049F00010B182208DF80C0094F8230028B19DF8A6
:104A00000C0040F030008DF80C00CDE90065CDF8C9
:104A1000089039E0FFE7CDE9006802950A7901784E
:104A200001232148FBF7DEFEC0B9A07AC0079DF83C
:104A30000C0002D040F0200001E020F02000A94648
:104A40008DF80C0035468DE820032068012302799B
:104A5000606801781448FBF7F3FF00E01DE0E0B95F
:104A60000320FBF7EDFC94F8220000B180208DF8C4
:104A70000C0094F8230028B19DF80C0040F03000A1
:104A80008DF80C008DE8200320680123C27D60684A
:104A900001780548FBF7D4FF08B1504672E7A774C8
:104AA0006FE700006C000020C40100202DE9FF41E9
:104AB000214C94F82410814224D000264FF48077B2
:104AC000012530B394F8250000B3002000F0E6F98A
:104AD0000020FFF74FFFE08C00F0ECF88DF80C6041
:104AE00003A88DE8A1006068012323220178134800
:104AF000FBF7A6FF84F82450012000F0CFF900BF97
:104B0000FFF71CFE002004B0BDE8F0814FF0FF303D
:104B1000F9E7002000F0C2F9207C8DF80C0003A812
:104B20008DE8A10060680123232201780348FBF788
:104B300087FF84F82460E3E76C000020C4010020B4
:104B40007FB51D4C4FF0FF35A17A69B3FA2809D023
:104B5000B0F5FA7F08D0B0F57A7F0FD0B0F5FA6FD4
:104B600022D10DE0002000E008208DF80C00207A12
:104B70009DF80C10B0EBD10F04D006E01020F4E744
:104B80001820F2E7002004B070BD4FF480720121BC
:104B900003A88DE807002068012382796068017806
:104BA0000648FBF74DFF08B12846ECE79DF80C00DE
:104BB000C0082072E6E700006C000020C40100205D
:104BC0007FB51A4C054694F82300A84202D1002074
:104BD00004B070BD0DB1302000E000208DF80C0055
:104BE000A07C28B19DF80C0040F002008DF80C006C
:104BF00094F8220028B19DF80C0040F080008DF858
:104C00000C004FF48072012103A88DE80700206892
:104C10000123C27D606801780548FBF711FF10B1E0
:104C20004FF0FF30D4E784F82350D0E76C00002029
:104C3000C40100207FB51D4C4FF0FF35A17A79B338
:104C40000121BC2802D38DF80C1012E0622801D398
:104C500002200CE02A2801D3032008E0142801D305
:104C6000042004E00A2801D3052000E006208DF886
:104C70000C00E07A9DF80C20904202D1002004B094
:104C800070BD03AA4FF480700092CDE90110206836
:104C900001238278606801780548FBF7D1FE08B1EE
:104CA0002846ECE79DF80C00E072E7E76C00002076
:104CB000C40100202DE9FF41224D04464FF0FF378B
:104CC000A87A78B395F8240060BB287D4FF47A76F3
:104CD00048B164B1282C03D82046FFF72BFC2EE006
:104CE0000020FFF727FC042C05D2042406E0002056
:104CF000FFF720FCF9E7B44200D93446B6FBF4F0E4
:104D0000401E8DF80C004FF48072012103A88DE83D
:104D10000700286801234278686801780A48FBF791
:104D20008FFE18B1384604B0BDE8F0819DF80C0044
:104D3000401CB6FBF0F0E8814008FFF77BFF002045
:104D4000F1E700006C000020C40100202DE9FF47BE
:104D5000054610F0700F4FF001074FF0000602D02B
:104D60008DF80C7006E015B18DF80C6002E0402063
:104D70008DF80C000DF10C094FF480784946284C51
:104D80008DE8820120680123427D60680178254812
:104D9000FBF756FE4FF0FF3A80BB9DF80C0020F069
:104DA000400020738DF80C60680602D404208DF852
:104DB0000C00A80605D49DF80C0040F002008DF808
:104DC0000C00E80605D49DF80C0040F001008DF8B9
:104DD0000C00280705D49DF80C0040F038008DF831
:104DE0000C00CDF80090CDE9017820680123827D88
:104DF000606801780B48FBF723FE20B1A67250468D
:104E000004B0BDE8F08725B1082D02D00020FFF7DF
:104E1000D7FEA57226753220FBF712FB0020EFE7C4
:104E20006C000020C40100202DE9FF4115000E4652
:104E30004FF0FF3729D0174CA17A31B3010A8DF812
:104E40000C10C0B28DF80D00811960684289914242
:104E50001BD8022203ABCDE900324FF48078CDF8A5
:104E6000088021680123CA7E01780B48FBF7E8FD22
:104E700058B98DE8600120680123027E60680178DE
:104E80000548FBF7DDFD002800D0384604B0BDE83A
:104E9000F08100006C000020C40100202DE9FF41DA
:104EA0001B4C0346214694F824C00026D1E900019A
:104EB000751E01224FF48077BCF1000F0FD0BBB1FB
:104EC00002238DF80C3003ABCDE900320297427C0F
:104ED000097801230F48FBF7B3FD78B912E094F885
:104EE0000AC0BCF1000F09D013B1637C6BB902E0BA
:104EF0008DF80C60E7E78DF80C20E4E7284604B055
:104F0000BDE8F0819DF80C0060740020F7E7000018
:104F10006C000020C40100202DE9F04106460F4638
:104F200000F0F2FB041E0D4618BF0120284320F0BC
:104F30000040C0F17F6000F1E040C00F0ED0301C97
:104F400018BF0120384320F00040C0F17F6000F11D
:104F5000E040C00F04BF0120FBF799F92046294625
:104F6000BDE8F08121F00042A2F16052B2F5801F4D
:104F700001F0004328BFD2F17F6C0BD95FEA001C1F
:104F800043EAC20242EB507018BF704728BF20F0BE
:104F900001007047B2F5801FBCBF184670474FEA4A
:104FA000410C1CF5001F02D2084601F042B870B552
:104FB00000F04AFB00000089FFF7F6BF4FF0004009
:104FC000A0F580007047000010B591EA030F48BFBC
:104FD00083F0004300F18684841A71EB030C05D240
:104FE000121943EB0C03001B61EB0C01DFF824E109
:104FF0004FEA1154A4EB135C1EEA430F18BF9EEA5C
:10500000445F73D023EA0E03DCF1200E21EA045141
:1050100043F4801332D322FA0CFE10EB0E0023FA75
:105020000CFE41EB0E01CCF1200E03FA0EFE10EB4C
:105030000E0051F10001B1F5801FCCF1200E32D2EB
:1050400001EB045112FA0EF2BDE8104058BF704750
:10505000401C38BF5FEA420218BF7047002814BFE7
:1050600020F0010041F100014FEA410313F5001F58
:1050700038BF7047A1F1C04100F034BB012A43EBB7
:105080000302ACF1200CDCF11F0E32BF4FF0000E1A
:1050900023FA0CF310EB030041EB0451B4EB115F66
:1050A000D0D0A1EB045101F5801149085FEA30002E
:1050B00001EB04510ED350F1000038BF12FA0EFE7E
:1050C00008D1BDE81040C9E7401C38BF5FEA420282
:1050D000CAD1C3E7BDE810404FEA410313F5001FF2
:1050E00038BF7047A1F1C04100F0FCBA9EEA445FAE
:1050F00008D011EA5E0FBDE8104004BF01F0004186
:1051000000207047BDE8104070B500F09DFA00BF68
:1051100064FBBE3E0000E0FF02494FF0000001F0DA
:105120003EB800BF0000F87F491058BFC1F14041B0
:105130005B1058BFC3F140438B42EFF300807047D0
:105140002DE9C04130B4DFF8A0C23CEA111418BF09
:105150003CEA131400F0EC8081EA03051CEA111408
:1051600044EAD57418BF1CEA131500F0C780A4EBFD
:1051700005044FF0004545EAC12145EAC32341EA51
:10518000505143EA525304F17F74994204F50034BC
:105190004FEAC0204FEAC22208BF904200F09C8034
:1051A0004FEA13650FF24016765D4FEA134506FB92
:1051B00005F7C7F1807706FB07F74FEAD737A7FB5C
:1051C00003687642C8F58038A7FB06CE38BFA8F141
:1051D000010807FB08E64FF0000EA6FB028CE6FB79
:1051E00003CEDCF1000CCEF1004E38BFAEF1010E63
:1051F000A6FB0C584FF000074FF00005E6FB0E87AA
:10520000A1FB08C6A0FB07CE16EB0E0645F1000574
:10521000E1FB076515F1E04E7EBFA4F580345FEA3F
:1052200046066D4116F1800745F100054FEA172744
:105230004FEA066647EA0567A6F1DE46B6F1805FEB
:105240004FEA15251FD9384624F0010C05EBC4712F
:10525000BCF1FE6F01EB0C1102D8F0BCBDE800817F
:1052600024425CBF01F5801E9EEAC47F02D4F0BCDC
:10527000BDE80081244238D4F0BCA1F1C041BDE8B2
:10528000004100F02FBA4FEAD22242EA43524FEADD
:10529000D323A7FB02864FEAD02040EA415007FB08
:1052A00003661EEA0E0F4FEAD12105FB026658BFC6
:1052B000A6EB0056B6EB00564FEA520E4EEAC37EFE
:1052C00018EB0E0E56EB530EBDD518EB02085E41DF
:1052D0007F1C55F10005B6E74FF480154FF000072D
:1052E0004FF000064FF00008ADE7F0BC4FF00000B3
:1052F00001F1C04101F00041BDE8008111EA0C1F3D
:105300000CEA131500D00CE013EA0C1F00F0258006
:105310004FF00000F0BC81EA030101F00041BDE85C
:105320000081F0BCBDE8004181EA030100F0DAB978
:10533000F0BCBDE8004170B500F086F9097EFC3E86
:1053400000F007B881EA03014FF0000001F00041CE
:10535000704781EA030100F0C5B9F0BCBDE8004127
:105360004FF0000021497047FFFDFBF9F7F5F4F21B
:10537000F0EEEDEBE9E8E6E4E3E1E0DEDDDBDAD8F0
:10538000D7D5D4D3D1D0CFCDCCCBCAC8C7C6C5C44E
:10539000C2C1C0BFBEBDBCBBBAB9B8B7B6B5B4B365
:1053A000B2B1B0AFAEADACABAAA9A8A8A7A6A5A450
:1053B000A3A3A2A1A09F9F9E9D9C9C9B9A99999814
:1053C0009797969595949393929191908F8F8E8EB7
:1053D0008D8C8C8B8B8A8989888887878685858444
:1053E00084838382828181800000FF070000F87F30
:1053F00051EA030C17D41CF5801F58BFBCF5801F61
:1054000000F10680994218BF704708BF904270476C
:1054100007D711F5801F58BF13F5801F19D4994283
:105420007047894270471CF5801F08D5BCF5801F66
:10543000F7D58B4218BF704708BF824270474FF4C0
:10544000001C1CEB410F38BF1CEB430F01D28B42F9
:10545000704770B500F0F8F8922449004FF0005101
:105460004FF08053FFF760BE4FEA41034FEA5353BA
:10547000A3F58063D3F11E03C8BFD3F1210C0CDD6B
:105480004FF0004242EAC12242EA505232FA03FC93
:105490008CEAE17CACEBE1707047102BC4BF0020BC
:1054A000704703F5787CBCF1FF3F04D06FF00042F9
:1054B00082EA2100704770B500F0C6F84992248056
:1054C00000207047F2E710F0004248BF4042B0FAB7
:1054D00080F310FA03F10AD0C3F11D0303F58063D2
:1054E0004FEA415002EB035202EBD12170474FF0DB
:1054F00000007047DFF848C170B51CEA111E1EBFDE
:105500001CEA13159EEA0C0F95EA0C0F00F06F8051
:1055100081EA030423EA4C134EEAD47E21EA4C11BB
:1055200041F4801143F48013AE44A1FB024CA0FB74
:105530000365AEF17F7E361955EB0C05A1FB034CDC
:105540004CF10003A0FB021C16EB0C06654153F165
:105550000003094218BF46F0010613F4007F0BD187
:105560004FEA03314FEA0530340341EA155140EA6E
:1055700016506FF003020AE04FEAC3214FEAC5203C
:10558000F40241EA555140EA56506FF0020202EB34
:105590002E4201EB025585EACE710AD05FEA440C37
:1055A00018BF24F0004450F1000041F1000120EA4E
:1055B000D47040F2FE7C624500D270BDA84214BF98
:1055C0004FF080444FF04044002E08BF0024BEF14D
:1055D000806FA8BFA1F1C041BDE8704080F2828019
:1055E0004FF0000001F1C04101F0004170479EEA18
:1055F0000C0F0CEA131518BF95EA0C0F06D04FF0EC
:10560000000081EA030E0EF0004170BD00F01CF8AE
:105610008900013E00F007B800F009B84FEA430CDA
:105620005FEA5C5C08D081EA030100F05BB84FEAF6
:10563000410C5FEA5C5CF6D14FF000000149704715
:105640000000FF070000F87F0EF1020E2EF0030E9F
:105650005EF8046B364205D4012A43EB030515F5C9
:10566000001F12D8012841EB010C1CF5001F0CD8BB
:105670000ED14FEAD17C15F5001F0CEB4C0C0CF150
:10568000020C08BF4CEBD37C04E04FF0080C01E0A7
:105690004FEAD37C0CEB4C0526FA05F606F007061C
:1056A000B6F1040C06D20EEB860CBDE870404CF04F
:1056B000010C6047DFE80CF0090B02024FF00041DB
:1056C0004FF00000A1F5002170BD194610460128D9
:1056D00051EB010418BFD4F5001484BF002001F081
:1056E000004170BD0808A0F500114FEA3101704774
:1056F00091EA030F10B581F000413FF56DAC83F0E6
:10570000004300F0EFB800002DE9F04101F5801CE6
:10571000BCF5001FC0F2C3804FEA115C21EA0C51B6
:105720000CF1FD0C41F480115FEA5C0C0CF5C07CBF
:1057300001D3400049413DA4890241EA90518702CA
:105740008E0E0A0CA45D04FB04F602FB06F6C6F1FD
:105750004046A4FB0662F60D46EA422606FB06F426
:10576000A4FB01235242C3F1404338BF5B1EA6FB9A
:1057700002420024E6FB0324D20B42EA4446A6FB85
:105780000623A1FB02E2A3FB07E4A4184FF00002EA
:1057900052F10002E3FB01426442C2F1404E38BFC5
:1057A000AEF1010EA6FB04234FF00002E6FB0E3221
:1057B000A2FB03464FF00004B61954F10004E2FBCB
:1057C0000264A1FB06E6A4FB07E816EB08064FF00F
:1057D000000858F10008E4FB01687642C8F140581F
:1057E00038BFA8F10108A2FB06E4A3FB08E52D19C8
:1057F0004FF0000454F10004E2FB0854A1FB05E65D
:10580000A7FB04E818EB06084FF0000656F1000667
:10581000E1FB048618F1200556F10006A809A8F15D
:105820001B08B10908F03F08B8F10A0F40EA86608A
:105830001CD901EB0C51BDE8F08100BFFCF5EEE88E
:10584000E2DDD8D3CFCBC7C3C0BDB9B6B4B1AEAC1F
:10585000A9A7A5A3A19F9D9B9A9896959392908F97
:105860008D8C8B898887868584838281A0FB0068E4
:1058700000FB01F208EB4208B8EB872807D5341883
:1058800058EB0104D5D5401C51F10001D1E7341A81
:1058900078EB0104CDD4401E71F10001C9E75FEA45
:1058A0004C0C5FEA9C5C0DD105D34FF0000001F079
:1058B0000041BDE8F081BDE8F04170B5FFF7C4FEDE
:1058C0006DDBFFBEBDE8F0414FF0000000497047BE
:1058D0000000F87F10B591EA030F48BF83F0004342
:1058E0003FF57AAB841A71EB030C07D212198CF0D6
:1058F000004C43EB0C03001B61EB0C01DFF8A4E14F
:105900004FEA1154A4EB135C1EEA430F18BF9EEA42
:10591000445F00F0B08023EA6E03524221EA045152
:10592000C3EB6E0338BF5B1EDCF1200E25D322FAD9
:105930000CFE10EB0E0043FA0CFE41EB0E01CCF115
:10594000200E03FA0EFE10EB0E0051F10001CCF117
:10595000200E29D412FA0EF201EB0451BDE81040DA
:1059600058BF7047401C1CBFB2F1004F7047002861
:105970000CBF491C20F00100704712EB020E43EBF4
:10598000030218BF4FF0010E4EEA4202ACF1200CA8
:10599000DCF11E0E54D943FA0CFE10EB0E0051F14F
:1059A000FF31CCF11E0ED5D50EF1010E12FA0EFE0E
:1059B000404141EB010101EB445C5FEA5C5C10D9C2
:1059C00010EBDE7001EB045138BFBEF1004FBDE8B3
:1059D000104018BF704700280CBF491C20F0010080
:1059E000704730D24FEAD42C11F5001124F4006432
:1059F0001BD0B1FA81F20B3AA41AA41ED2F12003F3
:105A0000914030FA03F31943904001EBCC71002C24
:105A100001EB0451BDE81040A8BF704701F1C0413F
:105A20004FF0000001F000417047B0FA80F310FA27
:105A300003F100D110BDE41A173C4805C90AE4E798
:105A400001EB045110BD491001EB0451BDE81040B9
:105A50004FEA300002E04FF0000170474A0008BFF3
:105A60000042F8D0B2F5001F28BF704701F0004196
:105A70004FF0000070479EEA445F07D011EA5E0FC6
:105A8000BDE8104004BF002100207047BDE8104071
:105A900070B5FFF7D9FD00BF40DFF63E83F000414F
:105AA000104670470000E0FF43004FEAD30C4FEA76
:105AB0003C0C43401FBF40070CF1605113F0FE4FF8
:105AC00070471CF0006F03D100200CF000417047BC
:105AD0000CF0004343EA507010B540EACC0000F0EF
