:020000040800F2
:10000000C80A002091010008873300083F29000832
:100010008533000897050008413A000800000000F9
:10002000000000000000000000000000DB340008B9
:100030009905000800000000D9340008DD340008EC
:10004000AB010008AB010008AB010008AB010008E0
:10005000AB010008AB010008AB010008AB010008D0
:10006000AB010008AB010008AB010008AB010008C0
:10007000AB010008AB010008AB010008AB010008B0
:10008000AB010008AB010008AB010008293A0008E9
:10009000353A0008AB010008AB010008AB010008CD
:1000A000AB010008AB010008AB010008AB01000880
:1000B000AB010008AB01000841350008AB010008A6
:1000C000AB010008AB010008AB010008AB01000860
:1000D000AB010008113A0008AB0100081D3A000806
:1000E000AB010008AB010008AB01000800F002F80A
:1000F00000F03FF80AA090E8000C82448344AAF183
:100100000107DA4501D100F034F8AFF2090EBAE880
:100110000F0013F0010F18BFFB1A43F0010318473B
:100120000079000020790000103A24BF78C878C117
:10013000FAD8520724BF30C830C144BF04680C60ED
:10014000704700000023002400250026103A28BF35
:1001500078C1FBD8520728BF30C148BF0B60704739
:10016000642900F07D80002070471FB51FBD10B5C9
:1001700010BD00F0DBF91146FFF7F7FF04F002FCB9
:1001800000F0F9F903B4FFF7F2FF03BC00F0FCF94B
:100190000948804709480047FEE7FEE7FEE7FEE71B
:1001A000FEE7FEE7FEE7FEE7FEE7FEE70448054957
:1001B000054A064B704700003F350008ED00000877
:1001C000C8040020C80A0020C8060020C806002075
:1001D0000FB41CB5074B06AA7B44694600900598EE
:1001E00000F061F90020694600F070F91CBC5DF870
:1001F00014FB0000F10200002DE9F0410E46044618
:10020000002020622046E168884730B3252805D0C9
:10021000D4E901219047206A401CF2E7E1682046BA
:1002200000278847050018D0A5F14100192802D8F9
:1002300020354FF400673246294620462760FFF7F5
:100240008FFF40B1012804D0F61D26F007060836BE
:10025000D8E7361DD6E72846DAE7206ABDE8F08100
:100260002DE9F0410646002410687529314616A58F
:1002700010D0AFF30080002802DA404213A507E057
:1002800031688A0701D512A502E0490704D511A5F6
:10029000012401E0AFF3008000210A2206F12407C7
:1002A00009E0B0FBF2FCB0FBF2F302FB1C003030C3
:1002B00078541846491C0028F3D123462A46304674
:1002C000BDE8F04100F090B8000000002D000000F3
:1002D0002B0000002000000040EA010310B59B073E
:1002E0000FD1042A0DD310C808C9121F9C42F8D0A0
:1002F00020BA19BA884201D9012010BD4FF0FF3051
:1003000010BD1AB1D30703D0521C07E0002010BD66
:1003100010F8013B11F8014B1B1B07D110F8013BF2
:1003200011F8014B1B1B01D1921EF1D1184610BDD3
:1003300010B5431C02E010F8011B71B18107FAD11E
:100340004FF0013202C88C1A8C4314EAC211F9D062
:10035000C01A0A0603D0C01E10BDC01A10BD0A0480
:1003600001D0801E10BD0902FCD0401E10BD02F05D
:10037000FF0343EA032242EA024200F0AEB84FF024
:10038000000200B5134694469646203922BFA0E8E5
:100390000C50A0E80C50B1F12001BFF4F7AF0907F1
:1003A00028BFA0E80C5048BF0CC05DF804EB8900E2
:1003B00028BF40F8042B08BF704748BF20F8022B25
:1003C00011F0804F18BF00F8012B7047704770473D
:1003D000704710B500F0A2F8006810BD10B50446D3
:1003E00000F09CF8046010BD2DE9F0470D469946D9
:1003F0009246044600F124080168880604D5E069A5
:1004000021F01001216000E00120A84201DD471B1E
:1004100000E00027A1697A1902EB0900081AA0611F
:100420002078C00602D42046AFF30080002608E002
:10043000D4E901211AF806009047206A401C761C76
:1004400020624E45F4DB2078C0060AD52046AFF383
:10045000008006E0D4E9012130209047206A401C4A
:100460002062381EA7F10107F4DC07E0D4E901217E
:1004700018F805009047206A401C2062281EA5F14C
:100480000105F3DC2046AFF300802078000602D59A
:100490000220BDE8F0870120FBE7000001694A1C4B
:1004A00002610878704700B58FB0CDE901310021B5
:1004B000059105497944CDE9031011466846FFF7D7
:1004C0009BFE0FB000BD0000E5FFFFFF0A6802F8C9
:1004D000010B0A6070474FF000020429C0F012803F
:1004E00010F0030C3FF44DAFCCF1040CBCF1020F43
:1004F00018BF00F8012BA8BF20F8022BA1EB0C01BC
:10050000FFF73FBF5FEAC17C24BF00F8012B00F872
:10051000012B48BF00F8012B7047000000487047CE
:100520006804002000487047680400207546FFF703
:10053000F9FFAE4605006946534620F007008546A0
:1005400018B020B5FFF732FEBDE820404FF000069E
:100550004FF000074FF000084FF0000B21F00701AB
:10056000AC46ACE8C009ACE8C009ACE8C009ACE8EE
:10057000C0098D46704710B50446AFF30080204691
:10058000BDE81040FFF7FEBD01491820ABBEFEE7F5
:10059000260002007047FEE7704772B6FEE790F84B
:1005A0002020012A07D0022A05D0416A41F4802187
:1005B000416201207047006842690A43426100209D
:1005C0007047F0B590F820500468A468012D05D05C
:1005D000022D03D0416A41F4802157E014F0406FAE
:1005E00001D1E5004FD5C4F301640125A5401D608C
:1005F0008D684FF4C0739DB1CE6835434E6845EAAF
:10060000C605066803EB0417F5514FF4C275076879
:1006100005EB04150E697E51097D012905D009E01D
:100620000E88CD6845EA4655EBE701684E5946F419
:1006300080764E511179D579567941EA05619579DF
:100640002D0445EA062529434FF4C676056806EBD6
:100650000416A9511178D57841EA05619578527848
:100660002D0445EA022211434FF4C475026805EBDC
:1006700004155151006803EB0411425842F0010285
:1006800042500020F0BD416A41F400114162012056
:10069000F0BD000010B590F820300268012B07D0A3
:1006A000022B05D0416A41F480214162012010BD36
:1006B000D2F8000240F00100C2F80002087D00F00C
:1006C0001F0301209840D2F81C328343C2F81C3229
:1006D000CB69B3B9D2F80C328343C2F80C328C899F
:1006E0004B6864F31F434C6902EBC404C4F8403206
:1006F0000C890B6864F31F434C6902EBC404C4F813
:100700004432CB69012B16D1D2F80C320343C2F824
:100710000C320C884B6864F31F434C6902EBC40431
:10072000C4F840320C89CB6864F31F434C6902EB78
:10073000C404C4F844328B69002BD2F804320FD0C1
:1007400053EA0003C2F804320B69002BD2F81432CA
:1007500008D00343C2F81432096A012904D008E022
:100760008343EFE78343F5E7D2F81C120143C2F855
:100770001C12D2F8000220F00100C2F80002002092
:1007800010BD70472DE9F05F0546006800244669FA
:10079000D0F804908768D0F80CB0D0F810A0D0F84A
:1007A0001880F10748D0F90714D001218160B807FB
:1007B00003D5284600F0EBF90CE0780702D54FF49A
:1007C000006407E0380702D54FF4805402E0284661
:1007D00000F0DCF9F80516D529684FF480708860C0
:1007E000B80503D5284600F0D4F90CE0780502D509
:1007F00044F4005407E0380502D544F4804402E094
:10080000284600F0C5F9F80316D529684FF4803062
:100810008860B80303D5284600F0BDF90CE07803E2
:1008200002D544F4004407E0380302D544F4803490
:1008300002E0284600F0AEF9300707D55FEACB604A
:1008400004D52968102044F40074C86070074FF084
:10085000080707D55FEA0B7004D52868C7602846EB
:1008600000F062F9B00706D52868C068800702D09A
:10087000284600F05AF9700607D55FEACA6004D529
:100880002968102044F480640861B00607D55FEA47
:100890000A7004D528680761284600F047F9F00679
:1008A00006D528680069800702D0284600F03FF985
:1008B000B00308D55FEAC96005D5296810204860F3
:1008C000284600F035F9F00307D55FEA097004D532
:1008D00028684760284600F05FF9300446D55FEA93
:1008E000497040D5F00504D55FEAC87001D044F0E6
:1008F0000104B00504D55FEA887001D544F0020414
:10090000700504D55FEA487001D544F00404300551
:1009100029D518F0700F26D008F07000402815D0A7
:1009200006DC102809D020280AD0302816D10AE089
:1009300050280ED0602811D10EE044F008040DE0DC
:1009400044F010040AE044F0200407E044F04004BE
:1009500004E044F0800401E044F480742868816974
:1009600021F070018161296804204860002C05D0C5
:10097000686A204368622846FFF703FFBDE8F09FDE
:1009800070B5040003D094F8200010B104E00120F9
:1009900070BD204600F082F82068016841F0010136
:1009A000016000F071FA0546052604E000F06CFADB
:1009B000401B0A2811D820684068C007F6D020687C
:1009C000016821F00201016000F05EFA05460BE0CB
:1009D00000F05AFA401B0A2806D9606A40F4003039
:1009E000606284F82060D2E7206840688007EFD416
:1009F000207E0128206801683DD021F0800101603F
:100A0000607E01282068016838D021F04001016033
:100A1000A07E01282068016833D021F02001016008
:100A2000E07E0128206801682ED041F010010160AD
:100A3000207F01282068016829D021F00801016089
:100A4000607F01282068016824D021F00401016042
:100A5000D4E902010843D4E9041211430843616850
:100A6000491E08432168C86100206062012084F8A3
:100A70002000002070BD41F08001C0E741F040013E
:100A8000C5E741F02001CAE721F01001CFE741F0AE
:100A90000801D4E741F00401D9E7000010B586B0A1
:100AA0000021009101910291039100681B49884245
:100AB00032D11B48C16941F00071C161C16901F0C7
:100AC00000710491816941F0040181618069154CD4
:100AD00000F0040004904FF4006000906946204646
:100AE00000F0DCF8A0140090022001900320039095
:100AF0006946204600F0D2F800221146132000F08B
:100B0000F1FC132000F0E0FC00221146142000F05C
:100B1000E9FC142000F0D8FC06B010BD00640040D1
:100B2000001002400008014070477047704770474E
:100B30007047000070B5044690F82000012804D0EA
:100B4000606A40F40020606218E0022084F820000F
:100B50002068016821F00101016000F095F9054667
:100B60000EE000BF00F090F9401B0A2808D9606A27
:100B700040F400306062052084F82000012070BD40
:100B800020684068C007EDD1606270BD7047704753
:100B90007047704770477047704710B590F8211044
:100BA0000022022905D00421816380F82020012041
:100BB00010BD01680B6823F00E030B6001680B6821
:100BC00023F001030B6090F84030C46B012101FA5F
:100BD00003F3636080F8211080F82020104610BDD8
:100BE00010B590F821100024022903D0042181635C
:100BF00001243DE001680A6822F00E020A600168E3
:100C00000A6822F001020A601A4A0168914201D181
:100C1000012121E0174A1432914201D110211BE039
:100C2000144A2832914201D1891515E0114A3C320B
:100C3000914201D189140FE00E4A5032914202D103
:100C40004FF4803108E00B4A6432914202D14FF4F4
:100C5000801101E04FF08071064A083A516001218D
:100C600080F82110002180F82010416B01B18847E5
:100C7000204610BD0800024070B5044600F004F99B
:100C80000546601C02D004480078044400F0FCF8DB
:100C9000401BA042FAD370BD640000202DE9F84F3C
:100CA000DFF8B8910024A9F1040B23460F2709F1BE
:100CB000040AABF1040EC9E00125A5402A40AA426E
:100CC0007DD1674ED1F804C0ACEB0608B44532D0F4
:100CD00014DCBCF1030F3AD009DCBCF1000F2AD0C0
:100CE000BCF1010F1CD0BCF1020F31D11DE0BCF1F1
:100CF000110F17D0BCF1120F2AD119E0B8F5881FD7
:100D000019D006DCB8F5803F15D0B8F5801F1FD18B
:100D100011E0B8F5001F0ED0B8F5041F18D10AE095
:100D2000CB6815E0CB681B1D12E0CB6808330FE0E1
:100D3000CB680C330CE08B682BB1012B4FF0080310
:100D400003D0456104E0042302E0056100E00023D4
:100D5000FF2A01D8064601E000F104064FEA8405A7
:100D600001D9A5F12005D6F8008007FA05FC28EA8C
:100D70000C0803FA05F548EA0508C6F800804D6836
:100D8000ED0062D5374DAE6946F00106AE61AD6942
:100D900024F0030605F001050095334D06EB050C24
:100DA000DCF80850A607360F07FA06F825EA08050A
:100DB000DFF8B880404503D14FF0000817E044E069
:100DC000DFF8AC80404502D14FF001080FE0DFF8BA
:100DD000A480404502D14FF0020808E0DFF8988077
:100DE000404502D14FF0030801E04FF0040808FA33
:100DF00006F848EA0508CCF808804D68D9F8006084
:100E0000ED024D4601D5164300E096432E604D6835
:100E1000DAF80060AD02554601D5164300E096436E
:100E20002E604D68DBF80060AD035D4601D51643CA
:100E300000E096432E604D68DEF80060ED037546D5
:100E400001D5164300E096432E60641C0D682A46C7
:100E5000E5407FF431AFBDE8F88F000008040140A1
:100E60000000111000100240000001400008014085
:100E7000000C014000100140001401400AB1016162
:100E800070470904FBE700000148806870470000D4
:100E90006400002070B5040025D094F83D000025C2
:100EA00020B984F83C50204600F07EFA242084F8D3
:100EB0003D002068016821F001010160206801689F
:100EC00041F4004101602068016821F400410160A3
:100ED00000F0D0FB4D4A6168914201D84C4900E0D6
:100EE0004C49884201D2012070BD4B492368B0FBB8
:100EF000F1F15E6826F03F060E435E606368934240
:100F000006D94FF4967359434FF47A73B1FBF3F15A
:100F10002368491C1E6A26F03F0631431962616846
:100F2000914210D84900401EB0FBF1F2521CC2F3AE
:100F30000B02042A01D2042022E0B0FBF1F0401C95
:100F4000C0F30B001CE0A268F2B301EBC10303EB9A
:100F50000116431EB3FBF6F35B1C43F480431B05F1
:100F600049D092B301EBC10202EB0111401EB0FB6C
:100F7000F1F0401CC0F30B0040F4804040F400400E
:100F80002168CA694CF6FF739A431043C861D4E9DB
:100F9000071001432068026822F0C002114301607B
:100FA000D4E9030101432068826848F2FF339A4381
:100FB00011438160D4E9050108432168CA6822F021
:100FC000FF021043C86001E00EE016E020680168EF
:100FD00041F0010101602564202084F83D00256373
:100FE00084F83E50002070BD01EB4106431EB3FB68
:100FF000F6F35B1CB3E70120C2E701EB4101401EA1
:10100000B0FBF1F0401CC0F30B00B7E7A086010075
:1010100080841E0000093D0040420F002DE9FF4F73
:1010200083B00025DDE910799A4693460446DDF841
:1010300048800095FFF728FF064694F83D002028D9
:101040007CD11923012288492046009601F08EFDAB
:101050000028F5D194F83C0001286FD0012084F8D5
:101060003C0020680168C90703D1016841F0010113
:1010700001602068016821F400610160222084F889
:101080003D00402084F83E0025646762A4F82A9061
:10109000608D20857548E062CDE9008653465A464A
:1010A0002046049901F064FC00287CD1208DDFF8F3
:1010B000C091202768B1012814D002282068016857
:1010C0001ED041F480610160206841698069009010
:1010D000BCE02068416981690091016841F40071B8
:1010E0000160B3E02068016821F48061016072B69C
:1010F0002068416981690091016841F400710AE04A
:1011000041F40061016072B6206841698169009113
:10111000016821F48061016062B697E0032865D818
:1011200001280CD0022843464FF0000249462046D1
:1011300000960BD001F01AFDA8BB0CE091E03246FE
:101140004146204601F0B8FD68BB72E001F00EFD9B
:1011500048BB72B633E02068016821F48061016009
:1011600072B620680069616A0870606A401C60623B
:10117000208D401E2085608D401E60853D4846F2D2
:10118000A8110068B0FBF1F0C0EBC00000EB8000DC
:101190000090401E009007D020684069C04340077F
:1011A0000DD50098F5E727E044F8305F6773A57325
:1011B000206940F02000206162B625731CE02068A1
:1011C000016841F40071016020680069616A08707B
:1011D000606A401C6062218D491E2185618D491E17
:1011E000618562B621680969017026E03246414690
:1011F000204601F061FD18B1012007B0BDE8F08F75
:1012000020680069616A0870606A401C6062208D15
:10121000401E81B22185608D401E60852068426934
:10122000D243520712D4032903D1016821F480610B
:10123000016020680069616A0870606A401C606231
:10124000208D401E2085608D401E6085208D0028E9
:101250007FF464AF84F83D7084F83E5084F83C50CD
:10126000CBE70220C9E70000020010000000FFFFEA
:1012700004000100700000202DE9FF4F83B09A4662
:10128000DDE9119793460446DDF84080FFF7FCFD49
:10129000054694F83D0020287FD1192301224049BA
:1012A0002046009501F062FC002876D194F83C00BD
:1012B000012872D0012084F83C0020680168C90729
:1012C00003D1016841F0010101602068016821F447
:1012D00000610160212084F83D00402084F83E0038
:1012E00000262664C4F82480A4F82A90608D208506
:1012F0002C48E062CDE9007553465A4620460499D1
:1013000001F0B4FB70B930E02A463946204601F0BE
:101310000BFD58B1206C042804D12068016841F409
:1013200000710160012007B0BDE8F08F606A21689C
:1013300000780861606A401C6062218D491E89B294
:101340002185628D521E628522685369DB435B07EB
:101350000BD469B100781061606A401C6062208D16
:10136000401E2085608D401E6085208D0028CBD1D9
:101370002A463946204601F0CDFB0028CAD154F850
:101380003D0B016841F400710160202004F81E0942
:10139000E67766770020C6E7FFE70220C3E7000094
:1013A000020010000000FFFF10B586B00021009180
:1013B00001910291039100681349884222D1134C94
:1013C000A06940F00800A061A069694600F008002B
:1013D00004904FF44070009012200190032003907D
:1013E0000B48FFF75BFC0B48416841F0E06141F0BE
:1013F00002014160E06940F40010E061E06900F43E
:101400000010049006B010BD0054004000100240CF
:10141000000C01400000014002488168027811443C
:101420008160704764000020074810B5016841F0F2
:1014300010010160032000F075F80F2000F006F89D
:1014400000F024F8002010BD0020024070B50D4DC2
:1014500004464FF47A712878B1FBF0F00A49096824
:10146000B1FBF0F000F0DCFA48B9102C07D20022F2
:101470002146501E00F036F800206C6070BD01203F
:1014800070BD000064000020700000200C4808B50A
:10149000816941F001018161816901F001010091DF
:1014A000C16941F08051C161C06900F08050009075
:1014B0000448416821F0E06141F00071416008BDDD
:1014C0000010024000000140002809DB00F01F026C
:1014D000012191404009800000F1E020C0F8001196
:1014E00070470000F0B40E4B1B680C46C3F3022398
:1014F000C3F10705042D00D90425191D072901D2C0
:10150000002300E0DB1E012606FA05F1491E2140FA
:1015100099409E40761E16403143F0BC02F0A5BAB9
:101520000CED00E0064900F0070208684FF6FF03E3
:10153000184040EA0220034A104308607047000048
:101540000CED00E00000FA052DE9F0470F4605001C
:1015500061D0434E306800F00700B84209D23068CD
:1015600020F0070038433060306800F00700B842D0
:1015700051D128683B4C810712D5400703D56068DC
:1015800040F4E06060602878000703D5606840F4AC
:10159000605060606068A96820F0F00008436060F7
:1015A0002878C00728D06868012810D02168022850
:1015B00010D0890700292EDA616821F00301014368
:1015C0006160FFF761FC804641F288390DE02168D7
:1015D0008903EFE78901EDE7FFF756FCA0EB08016F
:1015E000494502D90320BDE8F0876068696800F0CA
:1015F0000C00B0EB810FEFD1306800F00700B8426B
:101600000BD9306820F0070038433060306800F0B4
:101610000700B84201D00120E5E72878400705D54A
:101620006068E96820F4E06008436060287800079B
:1016300006D56068296920F4605040EAC100606006
:1016400000F038F86168084AC1F30311515CC840E2
:101650000649086006480068FFF7F8FE0020C2E768
:101660000020024000100240CE6C000870000020F4
:10167000680000200448054900684968044AC1F32D
:101680000221515CC84070477000002000100240E9
:10169000DE6C00080448054900684968044AC1F343
:1016A000C221515CC8407047700000200010024009
:1016B000DE6C00080E4A51680E4801F00C03042B42
:1016C00011D0082B0FD10C48C1F38343C903C05C70
:1016D0000AD55168084AC1F34041921E515C054A3F
:1016E0005043B0FBF1F07047044948437047000095
:1016F0000010024000127A00BE6C000800093D0094
:101700002DE9F84F040070D02078C04DC00749D0B3
:101710006868C0F38100012807D06868C0F38100C1
:10172000022809D16868C00306D52868800339D526
:1017300060680028E7D035E06068B0F5803F0BD0E6
:1017400010B1B0F5A02F11D0286820F480302860A7
:10175000286820F4802002E0286840F48030286067
:10176000606890B1FFF790FB06460AE0286840F4F5
:1017700080202860F0E700BFFFF786FB801B64280D
:1017800073D828688003F7D50CE0FFF77DFB064689
:1017900005E000BFFFF778FB801B6428F0D82868BD
:1017A0008003F7D420789A4E80074FF001094FF05C
:1017B000000839D5686810F00C0F07D06868C0F3CE
:1017C0008100022809D16868C00306D42868800710
:1017D00014D52069012808D110E02069B0B1C6F8FD
:1017E0000090FFF751FB074605E00AE1FFF74CFBCD
:1017F000C01B0228C4D828688007F7D5286861690B
:1018000020F0F80040EAC10028600DE0C6F8008032
:10181000FFF73AFB074604E0FFF736FBC01B022840
:1018200023D828688007F7D4207800072CD579487A
:10183000A169D9B1C0F80090FFF726FB074604E084
:10184000FFF722FBC01B02280FD8686A8007F7D574
:1018500071484FF4FA510068B0FBF1F0009000BFFE
:101860000098411E0091FAD20EE080E0C0F800809E
:10187000FFF70AFB074604E0FFF706FBC01B022840
:1018800075D8686A8007F7D42078400760D5E86982
:101890000027C00008D4E86940F08050E861E8699A
:1018A000012700F0805000905C480168C90513D4FE
:1018B0000168834641F480710160FFF7E5FA8246D2
:1018C00006E000BFFFF7E0FAA0EB0A0064284ED85C
:1018D000DBF80000C005F5D5E06801280AD008B1A2
:1018E000052813D0286A20F001002862286A20F019
:1018F000040002E0286A40F001002862E06841F23A
:10190000883B98B1FFF7C0FA82460BE0286A40F0A6
:1019100004002862EEE700BFFFF7B6FAA0EB0A0169
:1019200059455AD8286A8007F6D50CE0FFF7ACFA7B
:10193000824605E0FFF7A8FAA0EB0A0159454CD80A
:10194000286A8007F6D41FB1E86920F08050E8616A
:10195000E06988B36968C1F38101022944D0022893
:10196000C6F8608004D0FFF78FFA044638E034E010
:10197000FFF78AFA074604E0FFF786FAC01B022841
:101980002BD828688001F7D4206AB0F5803F05D1B4
:101990006868A16820F4003008436860D4E9080151
:1019A0000843696821F4741108436860C6F86090C0
:1019B000FFF76AFA044606E025E000BFFFF764FA85
:1019C000001B022809D828688001F7D51BE000BF5A
:1019D000FFF75AFA001B022802D90320BDE8F88F4E
:1019E00028688001F4D40EE00128F7D06868226AE4
:1019F00000F48031914204D1616A00F47010884291
:101A000001D00120EAE70020E8E7000000100240D2
:101A100000004242800442427000002000700040FA
:101A200010B5401EB0F1807F01D3012010BD4FF0F2
:101A3000E02460610F21601702F017F80020A06118
:101A400007202061002010BD7047704710B590F846
:101A50003C20012A22D0012280F83C20CA688C68F0
:101A600022F4407222434C6822F4806222430C68C4
:101A700022F4006222430C6922F4805222434C6912
:101A800022F400522243C969002322F480420A430F
:101A900001684A6480F83C30002010BD022010BD6F
:101AA00070B590F83C20012A26D0012480F83C40F3
:101AB000022280F83D2003685A689D6822F0700673
:101AC0000A6832435A600D4B02689A4208D0B2F15C
:101AD000804F05D00A4B9A4202D00A4B9A4204D159
:101AE000496825F080031943916080F83D4000214A
:101AF00080F83C10084670BD022070BD002C0140EB
:101B0000000400400008004010B5040003D094F821
:101B10003D0010B107E0012010BD002084F83C001A
:101B2000204600F01FF8022084F83D00211D2068A7
:101B300001F00CFD012084F8460084F83E0084F892
:101B40003F0084F8400084F8410084F8420084F8A3
:101B5000430084F8440084F8450084F83D000020E8
:101B600010BD000008B5114A01681148914208D122
:101B7000816941F400618161806900F40060009036
:101B800008BD0C4A9142FBD1C16941F00401C16119
:101B9000C069002200F00400009011461E20FFF7EB
:101BA000A1FCBDE808401E20FFF78EBC002C0140C0
:101BB000001002400008004090F83D10012901D0BB
:101BC00001207047022180F83D100168CA6842F088
:101BD0000102CA6000680B49884208D0B0F1804F0A
:101BE00005D00949884202D00849884204D1816859
:101BF00001F00701062903D0016841F001010160ED
:101C000000207047002C0140000400400008004004
:101C100070B5044690F83C000025012817D0012635
:101C200084F83C60022084F83D002068826822F03D
:101C3000770222F47F4282600868502838D00DDC99
:101C400020284FD005DC90B3102811D14AE00220A3
:101C500070BD302846D040280AD13BE060282FD004
:101C600070280DD0B0F5805F03D0B0F5005F12D0C2
:101C7000012584F83D60002084F83C00284670BDB2
:101C8000CB68D1E90121206801F0A9FC20688168B6
:101C900041F0770109E0CB68D1E90121206801F02A
:101CA0009EFC2068816841F480418160E1E719E091
:101CB000CA684968206801F047FD5021206806E0A5
:101CC000CA684968206801F050FD6021206801F071
:101CD00090FCCEE7CA684968206801F035FD4021D4
:101CE0002068F4E7226801461046F0E72DE9F0414C
:101CF0000D46040003D094F83D0018B108E001201F
:101D0000BDE8F081002084F83C00204600F040F857
:101D1000022084F83D002068816844F20702914364
:101D20008160211D206801F011FC22689068916992
:101D3000166A2B68AF69034340F20330814341EADE
:101D40000721A868EF6908434FF6FC418843E9681A
:101D500040EA0720014328692F6A000140EA073062
:101D6000084369686D6926F0220646EA051529438D
:101D700093602268906154F8460B0162012004F8D8
:101D80001F09E0752076E0762077A0750020B7E780
:101D900000B585B000210091019102910391026884
:101DA00020480121B2F1804F24D01F4B9A421FD10D
:101DB000C26942F00202C261C26902F002020492E8
:101DC000826942F0080282618069029100F0080095
:101DD00004903020009069461448FEF75FFF1448D5
:101DE000416821F4406141F0E06141F400614160EB
:101DF00005B000BDC26942F00102C261C26902F0D1
:101E000001020492826942F00402826180690291B7
:101E100000F0040004900320009069460548FEF796
:101E20003DFFE5E70010024000040040000C0140C7
:101E3000000001400008014070B590F83E60044683
:101E400090F83F5090F8423090F84320022021B1A2
:101E500004290ED0012E1BD114E0012E18D1012B24
:101E600016D184F83E0084F8420001220021206847
:101E700020E0012D0CD1012A0AD184F83F0084F81A
:101E8000430014E0012D03D1012B01D1012A01D01F
:101E9000012070BD84F83E0084F83F0084F84200C1
:101EA00084F8430001220021206801F08BFB01220D
:101EB0000421206801F086FB2068016841F00101DF
:101EC0000160002070BD70472DE9F04104460068B4
:101ED000C66805694FF00007A90713D5B10711D5EA
:101EE000F91E016101202077206880698007204663
:101EF00002D0FFF7E8FF04E000F0A6F8204600F06B
:101F000038F92777680716D5700714D521686FF060
:101F100004000861022020772068806910F4407F67
:101F2000204602D0FFF7CFFF04E000F08DF82046F6
:101F300000F01FF92777280715D5300713D521683A
:101F40006FF008000861042020772068C0698007CE
:101F5000204602D0FFF7B7FF04E000F075F82046F6
:101F600000F007F92777E80616D5F00614D52168A2
:101F70006FF010000861082020772068C06910F415
:101F8000407F204602D0FFF79EFF04E000F05CF89F
:101F9000204600F0EEF82777E80708D0F00706D0D3
:101FA00021686FF001000861204600F031F9280631
:101FB00008D5300606D521686FF0800008612046FC
:101FC000FFF742FD680608D5700606D521686FF058
:101FD00040000861204600F035FAA8060AD5B00690
:101FE00008D521686FF0200008612046BDE8F04167
:101FF000FFF72BBDBDE8F08100B585B00021009151
:1020000001910291039100680C49884213D10C4858
:10201000816941F0040181618069694600F0040032
:1020200004904FF440700090022001900320039030
:102030000448FEF733FE05B000BD0000002C01404F
:102040000010024000080140704770B5044690F847
:102050003C0000260D4601280FD0012084F83C00EA
:102060006AB1042A1DD0082A2FD00C2A3FD001269D
:10207000002084F83C00304670BD022070BD20680E
:1020800001F0C0FA2068816941F00801816120688F
:10209000816921F004018161206881692A69114305
:1020A00011E0206801F0D6FA2068816941F40061EE
:1020B00081612068816921F4806181612068816982
:1020C0002A6941EA02218161D2E7206801F0EEFA33
:1020D0002068C16941F00801C1612068C16921F02F
:1020E0000401C1612068C1692A69114311E02068B7
:1020F00001F008FB2068C16941F40061C1612068FA
:10210000C16921F48061C1612068C1692A6941EA1D
:102110000221C161ACE710B5040003D094F83D0082
:1021200010B107E0012010BD002084F83C002046DB
:1021300000F01EF8022084F83D00211D206801F007
:1021400005FA012084F8460084F83E0084F83F0038
:1021500084F8400084F8410084F8420084F8430089
:1021600084F8440084F8450084F83D00002010BD48
:102170007047704710B50446022249B104290ED0B9
:10218000082913D094F84100012816D0012010BD71
:1021900094F83E000128F9D184F83E200FE094F82D
:1021A0003F000128F2D184F83F2008E094F8400075
:1021B0000128EBD184F8402001E084F8412001227D
:1021C000206801F0FFF90F492068884203D1426C72
:1021D00042F4004242642068884208D0B0F1804F47
:1021E00005D00949884202D00849884204D1816853
:1021F00001F00701062903D0016841F001010160E7
:10220000002010BD002C01400004004000080040E8
:102210002DE9F04F00687E4991B088427ED1DFF809
:10222000F4A1DAF80000406A7B4CDFF8F0B160629C
:10223000DBF800104D6A47F23058A562404503DBD9
:10224000A0F57F40FF38606248F6A04148434FF454
:10225000DD6990FBF9F004F09DFA206104F05EFA6C
:10226000E06203F008FE6E4A6E4B03F01BFE06466A
:102270000F46E06B03F0FFFD32463B4603F07CFB6C
:1022800003F0CAFDE063454503DBA5F57F45FF3D4F
:10229000A562A06A48F6A041484390FBF9F004F01B
:1022A00079FA606104F03AFA206403F0E4FD5C4AD4
:1022B0005C4B03F0F7FD05460E46206D03F0DBFD99
:1022C0002A46334603F058FB03F0A6FD2065E0697B
:1022D000554D00F11E01554F00263C2902D83868A3
:1022E000466337E004F056FA02460021504801F0F8
:1022F0004BF804F013FA606304F04CFA8046E06A8D
:1023000004F048FA01464A484246483001F03CF899
:1023100004F004FAA06300280DDD00E074E001225F
:1023200080212846FEF7AAFD002240212846FEF71C
:10233000A5FDA06B0CE0002280212846FEF79EFD43
:10234000012240212846FEF799FDA06B4042A06380
:1023500039684863206A00F11E013C2902D83868B8
:10236000866336E004F016FA0246314800219030C8
:1023700001F00AF804F0D2F9A06404F00BFA8046E8
:10238000206C04F007FA014629484246D83000F094
:10239000FBFF04F0C3F9E06400280BDD01222021DB
:1023A0002846FEF76BFD002210212846FEF766FD49
:1023B000E06C0CE0002220212846FEF75FFD0122A0
:1023C00010212846FEF75AFDE06C4042E06439686F
:1023D0008863DAF800004662DBF800004662206C91
:1023E000002811D0E06C009012A101A8236CA26C0F
:1023F000FDF7EEFE01A8FDF79BFF82B24FF0FF3321
:1024000001A90F4800F04AFA11B0BDE8F08F0000B2
:1024100000080040A802002000000020F002002078
:102420007B14AE47E17A843F00080140600200203F
:10243000AC00002025642C25642C25640A000000D3
:10244000C80300207047704770470000F8B5016866
:1024500004460868CA684B6910F00F0F4FF000057A
:1024600059D003F0010602F49077374365D0C107D5
:1024700005D0D10503D5616C41F0010161644107CC
:1024800005D5D90703D0616C41F002016164810771
:1024900005D5D90703D0616C41F0040161640107DF
:1024A00007D502F02001314303D0616C41F00801EF
:1024B0006164616C00293AD0800604D5900602D58B
:1024C000204601F093F920684069616CC0F38010E8
:1024D000090700D460B3204601F061F92068406923
:1024E000400621D52068143050E8001F21F040013B
:1024F00040E80012002AF5D1E06BA8B16D494163B4
:10250000E06BFEF76DFB002811D0E06B416B01B072
:10251000BDE8F040084783060FD593060DD5204649
:10252000BDE8F84001F062B92046FFF78DFFF8BD25
:102530002046FFF789FF6564F8BD266B2023012E36
:102540007CD1C6067AD5D60678D50868486800904A
:1025500048694FF00206400640D5E16B08684068C4
:102560000004000CE8D0A28D8242E5D9E08588699C
:1025700020282DD020680C3050E8001F21F48071F5
:1025800040E80012002AF5D12068143050E8001FFE
:1025900021F0010140E80012002AF5D12068143032
:1025A00050E8001F21F0400140E80012002AF5D158
:1025B00084F84230256320680C3050E8001F21F079
:1025C000100140E80012002AF5D1E06BFEF7E5FAB1
:1025D0006663A08DE18D401A81B22AE0A08DE18D65
:1025E000401A81B2E08D0028A6D00029A4D022682C
:1025F0000C3252E8000F20F4907042E80007002FE0
:10260000F5D12068143050E8002F22F0010240E894
:102610000027002FF5D184F84230256320680C3064
:1026200050E8002F22F0100240E80023002BF5D1E3
:1026300066632046FFF707FFF8BDFFE705062BD5C9
:10264000150629D594F841002128F5D1A068B0F5E8
:10265000805F01D12069B0B1206A411C21622168EC
:1026600000784860E08C401E0004000CE084E3D158
:102670002068C16821F08001C1602068C16841F014
:102680004001C160D8E7206A0088C0F308004860B4
:10269000206A801C2062E5E74006CDD55006CBD5E8
:1026A000CA68204622F04002CA6084F8413000F037
:1026B00045F9C1E78F37000870B5040004D094F8DD
:1026C0004100002510B106E0012070BD84F84050A3
:1026D000204600F023F8242084F841002068C168D7
:1026E00021F40051C160204601F0E2F82068016940
:1026F00021F4904101612068416921F02A01416182
:102700002068C16841F40051C1606564202084F8EC
:10271000410084F842006563002070BD70B586B04A
:1027200000240094019402940394444E03684449A5
:1027300002200322434DB3422DD18B6943F48043E1
:102740008B618B6903F4804304938B6943F0080326
:102750008B618969039201F0080104914021CDE960
:10276000001069462846FEF799FA8020CDE900045A
:10277000694628460294FEF791FA3348416841F0D1
:10278000E06141F004014160002211462520FEF77E
:10279000A9FE25204EE02D4EB34222D1CB6943F451
:1027A0000033CB61CB6903F4003304938B6943F0AE
:1027B00004038B618969264D01F004010491042111
:1027C000CDE90010039269462846FEF767FA082013
:1027D000CDE90004694628460294FEF75FFA06B088
:1027E00070BD1C4EB342FAD1CB6943F48023CB6158
:1027F000CB6903F4802304938B6943F008038B6156
:102800008969039201F0080104913115CDE90010A6
:1028100069462846FEF742FAF014CDE900046946FD
:1028200028460294FEF73AFA002211462720FEF7C6
:1028300059FE2720FEF748FED1E70000003801408E
:1028400000100240000C0140000001400044004024
:10285000000801400048004090F84230202B01D091
:102860000220704721B11AB10023036301F07CB844
:102870000120704700680649884207D105490120B8
:1028800008700246891C0448FFF7E6BF7047000045
:102890000038014000000020800300202DE9F843AB
:1028A000044690F84100984616460D46202802D06E
:1028B0000220BDE8F88385B17EB10020606421204C
:1028C00084F84100FEF7E0FAA6848146E684A06819
:1028D0002027B0F5805F02D003E00120E9E72069FE
:1028E00010B12E4600250EE000260CE08021204687
:1028F00001F055F8A8B9C6B116F8010B2168486077
:10290000E08C401EE084E08C4B464FF00002CDF896
:1029100000800028EAD14FF04001204601F03FF846
:1029200040B184F841700320C3E735F8020BC0F3CF
:102930000800E3E784F841700020BAE77047FEE73B
:1029400001684A69D24352050FD46FF480624A612C
:10295000002140F8301F202242738173026942F047
:1029600004020261017301207047002070470000DB
:102970002DE9F84F0446006889460B9D016898468A
:10298000174641F4806101602068016841F480715C
:10299000016000954FF0011B0022594620460A9B1A
:1029A00000F0E4F84FF4007A40B120680068C005F8
:1029B00001D5C4F840A00320BDE8F88F216809F0D4
:1029C000FE0008612B46284920460A9A00F016F9B5
:1029D000F0BB20684169806900902A4620460A9928
:1029E00000F0A2F940B1206C04283AD120680168B7
:1029F00041F40071016034E0FEB2B8F1010F09D07A
:102A00002168380A08612A4620460A9900F08CF9A4
:102A10000028E8D1206806612A4620460A9900F07D
:102A200083F90028DFD12068016841F480710160DA
:102A300000950022594620460A9B00F097F800288E
:102A4000B3D1216809F0FF0040F00100086100E007
:102A500007E02B46044920460A9A00F0CFF80028E8
:102A6000AAD00120A8E70000020001002DE9F843E8
:102A7000044600680D46DDE9089701689846164649
:102A800041F4807101604B4600224FF00111204655
:102A9000009700F06BF848B120680068C00502D5C7
:102AA0004FF4007020640320BDE8F883216805F02E
:102AB000FE0008613B464A461549204600F09EF854
:102AC00088B920684169806900903A4649462046A5
:102AD00000F02AF948B1206C042804D1206801686C
:102AE00041F4007101600120DEE7F5B2B8F1010F99
:102AF00009D02168300A08613A464946204600F06C
:102B000013F90028E7D1206805610020CCE7000018
:102B10000200010070B516460D4604461EE0204630
:102B2000FFF70EFF08B1012070BD681C16D0FEF73C
:102B3000ABF9801BA84200D885B920684069C04322
:102B400040070BD5002044F8300F20216173A0739B
:102B5000216941F0200121612073E4E72068406988
:102B6000C0434007DBD4002070BD00002DE9F047D2
:102B7000984617460D460446C1F30746DDF82090F7
:102B80002AE000BFB8F1FF3F26D0FEF77DF9A0EBA9
:102B90000901414502D8B8F1000F1DD12068012E6E
:102BA00016D0806925EA00000004000C12D0002035
:102BB000B84211D1002044F8300F20216173A07376
:102BC000216941F02001216120730120BDE8F087D7
:102BD0004069E7E70120EBE72068012E0AD0806911
:102BE00025EA00000004000C06D00020B842C9D03D
:102BF0000020EBE74069F3E70120F7E72DE9F04714
:102C0000984616460D4604464FF000094FF0200A3C
:102C1000C1F3074723E020684069C043400515D44D
:102C20002068016841F40071016021686FF48060E0
:102C30004861C4F8309084F83DA084F83E90216C3F
:102C400041F00401216484F83C9021E0701C06D01E
:102C5000FEF71AF9A0EB0800B04203D816B1012F15
:102C60001FD021E02068012F15D0806925EA0000DF
:102C70000004000C18D000BF44F8309F84F80DA069
:102C800084F80E90216941F02001216184F80C90B4
:102C90000120BDE8F087406925EA00000004000C2F
:102CA000EAD12068406901E02068806925EA0000D7
:102CB0000004000CAFD1ECE72DE9F041002590466F
:102CC0000E460446202728E04069C043C0060CD4C5
:102CD00054F8301B6FF01000486144F810596777C2
:102CE000A577206A2062257714E0FEF7CDF8A0EBE7
:102CF0000800B04200D886B920684069C043400649
:102D00000BD544F8305F6773A573206940F020004D
:102D1000206125730120BDE8F08120684169C94325
:102D20004906D1D40020F6E770B516460D46044694
:102D30001EE02046FFF704FE08B1012070BD681CAC
:102D400016D0FEF7A1F8801BA84200D885B92068EC
:102D50004069C04300060BD5002044F8300F202105
:102D60006173A073216941F0200121612073E4E7C0
:102D700020684069C0430006DBD4002070BD00001D
:102D80002DE9F74F8EB00CA902A8CDE900010BABDD
:102D900003AA09A907A801F047FB20B14FF0FF30B3
:102DA00011B0BDE8F08FBDF80800C0057ED50398CE
:102DB00003F0F0FC6FF01D04214603F028FF82466B
:102DC000049803F0E7FC214603F021FF81460598B3
:102DD00003F0E0FC214603F01AFF8046069803F05A
:102DE000D9FC214603F013FF05460121504603F0AC
:102DF0000EFF0646414603F02DFD07464FF04041C9
:102E0000484603F027FD0446294603F023FD3946D2
:102E100003F04EFB03F020FB00F0A0FE4FF0663BFA
:102E20005A463D4B03F03EF802F074FD0E990860DF
:102E30000121404603F0EBFE4146009003F00AFDFD
:102E400007462046494603F005FD394603F00AFED1
:102E50004FF07E5103F02CFB03F0FEFA07460C46C0
:102E60003046494603F0F6FC06462946009803F032
:102E7000F1FC314603F01CFB03F0EEFA3A46234620
:102E800001F0B4F85A46244B03F00CF802F042FD6E
:102E90000F9908602946084603F0DCFC07464146C6
:102EA000084603F0D7FC0646494600E031E00846F4
:102EB00003F0D0FC04465146084603F0CBFC214603
:102EC00003F0F6FA314603F0CDFD394603F0CAFDB2
:102ED00003F0C2FA06460C464146484603F0BAFCE7
:102EE00007462946504603F0B5FC394603F0E0FAA0
:102EF000012103F08CFE03F0AFFA3246234601F0C5
:102F000075F85A46044B02F0CDFF02F003FD10990C
:102F10000860002044E7000066A64C4038B56846CB
:102F200001F01AFF10B14FF0FF3038BD782002F0E9
:102F3000E5FB10B16FF0010038BD782001F0C4FE50
:102F400010B16FF0020038BD642002F08BFB10B1AD
:102F50006FF0030038BD01F05DFA10B16FF00400AE
:102F600038BD1648044601F0E9FC0546E01C01F0B6
:102F7000E5FC45EAC005A01D01F0E0FC45EA801033
:102F800080B201F037FB10B16FF0050038BD40F2A0
:102F9000731001F017F910B16FF0060038BD64200E
:102FA00001F0F6FA10B16FF0070038BD012002F011
:102FB00055FA0028F9D06FF0090038BDA0000020B4
:102FC0000F4810B50D4901600921416000214FF4FF
:102FD00080228160C0E9031292004261017641764D
:102FE0008176C17601774177FDF7CAFC002803D0CE
:102FF000BDE81040FDF7D1BA10BD000000640040EC
:10300000E401002030B585B00020009001900290CE
:1030100003901B48816941F020018161816901F0C1
:1030200020010491816941F004018161816901F00D
:1030300004010491816941F0080181618069114DA9
:1030400000F0080004900122F0212846FDF716FF49
:1030500030200124CDE900040220CDE90240694678
:103060002846FDF71BFEC020CDE900040320CDE972
:10307000024069462846FDF711FE05B030BD00004C
:1030800000100240000801400D4810B50B490160D6
:103090000C49416000214FF480428160C0E9031275
:1030A00041618161C1610162FDF7F4FE002803D036
:1030B000BDE81040FDF771BA10BD0000005400409B
:1030C0000C020020801A060010B596B000240F9460
:1030D00010941194129413941C2168461494FDF7D3
:1030E0004EF9202107A8FDF74AF92C482A4901602A
:1030F0004721C0E901146321C0E9031444618461DC
:10310000FEF702FD08B1FDF748FA4FF480500F902A
:103110000FA92248FEF77CFD08B1FDF73EFA1F48D3
:10312000FEF7F9FF08B1FDF738FA139413A91B480D
:103130001494FEF7B5FC08B1FDF72FFA6020CDE935
:1031400000040294039404940594002269461348F1
:103150000694FEF77AFF08B1FDF71FFA04226946CC
:103160000E48FEF772FF08B1FDF717FA07940894AE
:1031700009944FF400500A94CDE90B4007A9074881
:103180000E94FEF763FC08B1FDF707FA0348FEF75B
:1031900033FF16B010BD0000002C0140600200207B
:1031A00010B58CB024216846FDF7E9F800241548D5
:1031B00009944FF080410A94C0E900144FF6FF7162
:1031C000C0E90241046184610320CDE900040120CB
:1031D000CDE902040494CDE9054007946946094805
:1031E0000894FEF783FD08B1FDF7D7F9099409A902
:1031F00004480A94FEF754FC002801D0FDF7CDF9ED
:103200000CB010BDA802002010B58CB02421684677
:10321000FDF7B5F800241648099414490A94C0E94A
:1032200000144FF6FF71C0E902410461846103207C
:10323000CDE900040120CDE902040494CDE9054064
:10324000079469460A480894FEF750FD08B1FDF757
:10325000A4F9099409A906480A94FEF721FC00285C
:1032600001D0FDF79AF90CB010BD00000004004039
:10327000F002002010B586B0002417480094019495
:1032800002940394049413490594016041F61F418C
:10329000C0E901146321C0E903148461FEF734FC22
:1032A00008B1FDF77AF94FF48050009069460A485A
:1032B000FEF7AEFC08B1FDF770F9049404A90648C6
:1032C0000594FEF7EDFB002801D0FDF766F906B086
:1032D00010BD000000080040380300200C4810B565
:1032E0000A4901604FF416514160002181600C22AF
:1032F000C160C0E904128161C161FFF7DDF90028F6
:1033000003D0BDE81040FDF748B910BD00380140BA
:10331000800300200C4810B50A4901604FF4E131E8
:103320004160002181600C22C160C0E9041281610A
:10333000C161FFF7C1F9002803D0BDE81040FDF7D7
:103340002CB910BD00440040C80300200C4810B543
:103350000A4901604FF4E1314160002181600C2293
:10336000C160C0E904128161C161FFF7A5F90028BD
:1033700003D0BDE81040FDF710B910BD0048004073
:1033800010040020FEE7FEE72DE9F047040011D00D
:10339000206C60648146E06B2064C4E906218046AD
:1033A000104603F05FFB0546E063207828B1012852
:1033B0003BD038E00020BDE8F0872946606803F084
:1033C00049FA60622946A06803F044FAA16A03F052
:1033D0006FF80646A062606BA063206B6063414695
:1033E000284603F03FFB01462063E06803F032FA11
:1033F000E0623046616903F0F9FA606908D380F051
:103400000040A16A03F0F2FA03D2606980F0004044
:10341000A062D4E9090103F04BF8E16A31E02069C8
:1034200080F000402062206AC5E74146284603F04C
:1034300019FB616803F00EFA074660622946A0682E
:1034400003F008FA0646A062606BA063206B60631D
:103450000121404603F0DBFB294603F0F8FA494618
:1034600003F026F801462063E06803F0F3F905460F
:10347000E0623146384603F01BF8294603F018F89D
:10348000216A03F015F82062216903F0AFFA206980
:10349000C8D380F00040216A03F0A8FAC3D2BEE787
:1034A00010B50028029C16D0002A14D001701168B3
:1034B00041605168816000F10C0C91688CE81A0041
:1034C00000218163416301630162C16281624162E3
:1034D00041640164C16310BD70477047FDF79CBF34
:1034E00030B58FB028216846FCF749FF14210AA89F
:1034F000FCF745FF01210804CDE9001000240294E7
:1035000002250491CDE907504FF4E0100990684678
:10351000FEF7F6F808B172B6FEE70F20CDE90A050E
:103520004FF48060CDE90C4002210AA80E94FEF70A
:103530000BF8002801D072B6FEE70FB030BD70471F
:103540000148FEF7C1BC000038030020F0B5026856
:10355000194B1A4C1A4D4FF08047984205D0B8428B
:1035600003D0A04201D0A84203D122F070064A68DD
:103570003243984205D0B84203D0A04201D0A842BD
:1035800003D122F44074CA6822434C6922F08002BD
:10359000224302608A68C2620A688262984201D14C
:1035A00009690163012141610169C90703D001690A
:1035B00021F001010161F0BD002C01400004004038
:1035C0000008004010B501F01F030121046A994072
:1035D0008C430462016A9A401143016210BD10B528
:1035E000846842EA032224F47F440A43224382602F
:1035F00010BD826822F070020A4342F00701816028
:103600007047000030B5036A026A22F001020262CC
:103610004268846924F073050C682C4323F002058A
:103620008B682B430A4DA8420BD123F00805CB68C9
:1036300022F440722B434D6923F0040315438A6939
:103640002A434260846149684163036230BD0000DF
:10365000002C014030B5026A036A23F010030362B4
:10366000436884690D6824F4E64444EA05248D68BF
:1036700022F0200242EA05120B4DA8420ED1CD687D
:1036800022F0800242EA05124D6923F4406343EAC6
:1036900085038D6922F0400243EA8503436084611B
:1036A00049688163026230BD002C014030B5036A75
:1036B000026A22F4807202624268C46923F40073D1
:1036C00024F073050C682C438D6843EA05230C4DE8
:1036D000A8420ED1CD6823F4006343EA05234D6967
:1036E00022F4405242EA05128D6923F4806342EAD3
:1036F00005124260C4614968C163036230BD0000C5
:10370000002C014030B5046A026A22F48052026241
:103710004268C3690D6823F4E64343EA05238D68D4
:1037200024F4005444EA0534064DA84204D14D69FE
:1037300022F4804242EA85124260C3614968016412
:10374000046230BD002C014010B5036A046A24F005
:1037500001040462846924F0F00444EA021423F0B2
:103760000A020A438461026210BD10B5036A046A4A
:1037700024F010040462846923F0A00324F470444C
:1037800044EA023243EA01118261016210BD10B5C0
:10379000406A0021C185C184FEF756FE10BD016854
:1037A0000C3151E8002F22F4907241E80023002BE5
:1037B000F5D10168143151E8002F22F0010241E8EF
:1037C0000023002BF5D1016B012909D101680C31CF
:1037D00051E8002F22F0100241E80023002BF5D120
:1037E000202180F8421000210163704708B590F84D
:1037F0004210222901D0022008BD82684FF4805374
:103800009A4201D1016921B1816A9A421BD04AB121
:103810000AE00268816A5268C2F308020A80816A7B
:10382000891C08E0026972B10268526802F07F02E6
:103830000A70816A491C8162C18D491E0904090C04
:10384000C18503D01BE002685268F1E70168CA68CD
:1038500022F02002CA600168CA6822F48072CA603D
:1038600001684A6922F001024A61202180F8421071
:1038700000214163026B012A03D0FEF7FBFF002009
:1038800008BD016301680C3151E8002F22F01002DD
:1038900041E80023002BF5D101680A68D20602D561
:1038A0000A6849680091818DFEF7CDFDE7E70000C9
:1038B00070B5044600680169E26821F44051114383
:1038C00001612169A0680843616908432168CA68E9
:1038D00041F20C639A430243CA6020684169A269BD
:1038E00021F44071114341611E492068884202D190
:1038F000FDF7D0FE01E0FDF7BDFE00EBC00101EBDE
:103900000012606864218000B2FBF0F3B3FBF1F3B6
:103910006FF018067343B2FBF0F5B2FBF0F605EB5F
:103920008305322303EB0515B5FBF1F5B6FBF1F684
:1039300005F0F00505EB0615B2FBF0F6B2FBF0F072
:10394000B0FBF1F06FF01802504306EB800003EB80
:103950000010B0FBF1F0216800F00F0028448860EF
:1039600070BD00000038014081628285C28500215F
:103970004164222180F84210016921B10168CA68BE
:1039800042F48072CA6001684A6942F001024A61E9
:103990000068C16841F02001C160002070472DE936
:1039A000F843984617460D460446089E24E0701CCE
:1039B00022D0FDF769FAA0EB0800B0421AD8CEB1C8
:1039C0002068C168490717D5802D15D0402D13D028
:1039D0000168C94309070FD40168002540680090B9
:1039E0002046FFF7DCFE0820606484F84050012088
:1039F000BDE8F8830320FBE72068006835EA000093
:103A000004D00020B842D2D00020F1E70120F9E72D
:103A10000148FEF71BBD0000800300200148FEF7AF
:103A200015BD0000100400200148FCF7ABBE0000EB
:103A3000E40100200148FCF7A5BE0000E4010020DD
:103A4000FEE7490050EAC12018BF04204A0D18BF04
:103A500040F0010040F2FF72B2EB515F08BF40F04E
:103A60000200012808BF052070470907090E002839
:103A700004DB00F1E02080F80014704700F00F0034
:103A800000F1E02080F8141D70472DE9F0414F1E31
:103A900000EBC7010446D1E9000115461E4637F088
:103AA00006020DD02A46334602F0FCF97F1E04EBD5
:103AB000C703D3E9002301F05FFF37F00602F1D11D
:103AC000022F25D0042F13D0062F18BFBDE8F08198
:103AD0002A46334602F0E6F9D4E90A2301F04CFF06
:103AE0002A46334602F0DEF9D4E9082301F044FF08
:103AF0002A46334602F0D6F9D4E9062301F03CFF0A
:103B00002A46334602F0CEF9D4E9042301F034FF0B
:103B10002A46334602F0C6F9D4E9022301F02CFF0D
:103B20002A46334602F0BEF9D4E90023BDE8F0414D
:103B300001F022BF012203F03CB801F01DBF0022BA
:103B400013461046114601F0D3BF0000024A002080
:103B5000110703F02EB8000001FDFFFF2DE9F04D25
:103B60008D4F21F0004A86B005460C46BA452ADB47
:103B7000AAEB070028430AD08848824501DC1AD105
:103B8000CDB106B02846BDE8F04DFFF7D3BF844A5B
:103B9000844B284602F086F907460E46824A834B3C
:103BA0002846214602F07EF906B03A463346BDE883
:103BB000F04D01F0E1BE0120FCF710FC06B0BDE8BD
:103BC000F04DFFF7BCBF7A48824542DABAF1795F1F
:103BD0000BDA2846FFF735FF042808BFFFF7B6FFCA
:103BE000284606B02146BDE8F08D2A460B46104611
:103BF00002F058F9834602466E480E460B460621EF
:103C00007844FFF742FF5A46334602F04BF98046AC
:103C100069488A465A46334604217844FFF735FFFF
:103C20005A46334602F03EF900223B4601F0A4FE1C
:103C300002460B464046514601F05AFF2A462346AB
:103C400002F030F906B02A462346BDE8F04D01F0F7
:103C500093BE284624F0004100223D463B4602F038
:103C60001FFA4FF0FF3202F0A4FF06460246534807
:103C70000F460B4606217844FFF707FF32463B46C6
:103C800002F010F9CDE900014D4832463B460421CF
:103C90007844FFF7FAFE32463B4602F003F9002271
:103CA0002B4601F069FE834602913046394601F009
:103CB0000BFE804643480D46504517DCDDE9000108
:103CC0005A46029B01F014FF42462B4602F0EAF8E6
:103CD00042462B4601F050FE012202F06AFF304AB4
:103CE000304B02F0CFFA304A304B4CE04FF0000A34
:103CF00052460B46404601F03FFECDE903105246C6
:103D00002B461046194602F0CDF832463B4602F0EB
:103D1000C7F9DDE9033201F0EBFE06460F46DDE9A7
:103D200000015A46029B01F0E3FE83460091012206
:103D30003046394602F03DFF194A1A4B02F0B0F9FD
:103D400006460F4601224046294602F032FF5A46F7
:103D5000009B02F0A7F832463B4602F093FA064673
:103D60000F4601225046294602F023FF0E4DDFF890
:103D700058802A46434602F093F932463B4602F009
:103D80008FF92A46434602F08BF9002CD8BF81F008
:103D9000004106B0BDE8F08D0000F03F0000F07F6C
:103DA000075C143326A6913C182D4454FB21F93F9F
:103DB0000000E03F2C3D0000423D0000B63C00000A
:103DC000CC3C00003333EF3FFB21E93F2DE9F84FB6
:103DD00004460D4621F0004000917349814211DCF8
:103DE0007249884201DC06D12CB120462946BDE843
:103DF000F84FFFF79FBE6E48002DCCBF6D496E494E
:103E0000BDE8F88F6D49814211DD6D498142D8BF0F
:103E10004FF0FF366DDD20462946FFF712FE0428DD
:103E200008BFFFF793FE20462946BDE8F88F654995
:103E3000654F25F00045814233DD6449814219DD3B
:103E4000002632464FF080432046294601F094FD7B
:103E500080468A4601222046294602F0AAFE002218
:103E60003B4602F00FFA4246534601F041FE04463B
:103E70000D463EE001260022BA463B462046294632
:103E800001F07AFD80460F4600225346204629461F
:103E900002F0F8F942463B4601F02AFE04460D4680
:103EA00027E04B4981421BDDDFF828A102260022D2
:103EB00053462046294601F0F5FF00223B4601F01B
:103EC0005BFD80460F46002253462046294602F0FD
:103ED000D9F942463B4601F00BFE04460D4608E088
:103EE000032622462B4600203B4901F001FE0446F2
:103EF0000D4622462B461046194601F0D3FF8B464D
:103F0000824602460B4601F0CDFF07460246334883
:103F100088460B4606217844FFF7B7FD52465B46BC
:103F200001F0C0FF82462E488B463A4643460521A3
:103F30007844FFF7AAFD3A46434601F0B3FF024634
:103F40000B46002E504659460CDA01F015FD22466C
:103F50002B4601F0A7FF01B022462B46BDE8F04FEB
:103F600002F09EB801F008FD22462B4601F09AFFB0
:103F70001C4A7A4402EBC603D3E9002302F082F91B
:103F800022462B4602F07EF9174A7A4402EBC6031A
:103F9000D3E9002302F084F8009A002AB8BF81F028
:103FA0000041BDE8F88F0000000010440000F07FE1
:103FB000182D4454FB21F93FFB21F9BF0000DC3FE1
:103FC0000000203E0000F33F0000F03F0000E63F0D
:103FD000008003400000F83F0000F0BFCE3A000030
:103FE0008C3A00002A3A0000F23900002DE9F04D29
:103FF0009446CCF1000423F000464CEA0404594FE7
:1040000046EAD4749A46884621F00042BC4206D85B
:10401000454240EA050442EAD474BC4204D9BDE8F2
:10402000F04D6246FFF789BDAAF14055A5F17F65C5
:1040300055EA0C040BD0022404EAAA744A4DDFF8B6
:104040002CE144EAD87452EA000B04D00CE0BDE83D
:10405000F04DFFF7BBBE002C14BF012CBDE8F08D66
:10406000022C30D0032C32D056EA0C0B0AD0BE42C0
:1040700020D1BA4209D126F0804622F08042334650
:10408000114617E000291ADB25E0DFF8E4B0FB4415
:10409000002C04BFDBE90001BDE8F08D012C02BF5C
:1040A000DBE9000181F00041BDE8F08D022C0AD06F
:1040B000032C0CD0BA4212D1B8F1000F0BDA2A4807
:1040C0002C49BDE8F08D28462B49BDE8F08D2846E7
:1040D0007146BDE8F08D24482849BDE8F08D921B5B
:1040E00012153C2AC4BF204F244E10DCBAF1000F39
:1040F000BEBF12F13C0F00273E4608DB624601F0CE
:10410000F7FC21F00041FFF761FE07460E4694B12F
:10411000012C08BF86F000460DD0194A194B022C1D
:104120003846314615D002F0ADF82A46BDE8F04DCC
:10413000114B02F0A7B8002213463846314601F071
:104140002FFE04BF0220FCF749F938463146BDE88E
:10415000F08D02F097F82A46BDE8F04D064B01F0CD
:104160009FBF00000000F07F182D4454FB2109C0C0
:1041700086390000FB21F9BFFB210940FB21F93FF3
:10418000075C143326A6A13C08B560B120208DF849
:10419000000028208DF8010030208DF80200382022
:1041A0008DF8030004E0A32204216846FCF7DFF841
:1041B0006A46042140F69E2001F00EFB00F096FFB7
:1041C00008BD00003EB5044602208DF80000CA205C
:1041D0008DF80100E3208DF8020009208DF803001E
:1041E0006A460421682001F0F7FAA3208DF8000048
:1041F000610609D5C0218DF80110C8218DF8021083
:10420000C2218DF8031005E08DF801008DF8020041
:104210008DF8030014F4C07F09D0C4218DF8041078
:10422000CC218DF80510C6218DF8061005E08DF81B
:1042300004008DF805008DF806008DF808008DF853
:1042400007008DF809006A460A2140F6A72001F010
:10425000C3FAA0074FF0D80503D020208DF8000046
:1042600001E08DF800506A46012140F6B62001F0C9
:10427000B3FAA00601D5012000E0002000F08EF87E
:1042800014F4C07F1ED0E0050AD5B2208DF80000DE
:104290008B208DF80100B6208DF802009B2009E0EC
:1042A000B0208DF8000080208DF80100B4208DF83A
:1042B000020090208DF803006A46042140F6A220F7
:1042C00001F08AFAE1074FF40B6022D0F8218DF853
:1042D00000106A46012101F07FFAFA21072000F060
:1042E00079FA072000F044FA012000F061FA642016
:1042F00000F004FB4FF4FA7000F010FBC8212548D1
:1043000000F0FEF9282000F013FA0A2000F020FA4D
:1043100005E08DF800506A46012101F05DFAA00722
:1043200003D5D9208DF8000001E08DF800506A46D1
:10433000012140F23D7001F04FFA600701D50120E4
:1043400000E0002000F048F8E00601D5012000E080
:104350000020FFF719FF104D44F00800688100F0BD
:10436000C5FE0020A873600601D50620A87314F4CA
:10437000C07F02D0A87B801DA87314F0140F02D058
:10438000A87B1030A873A00702D0A87B001DA873DB
:1043900000203EBD09E3CA02580400200EB54FF4C8
:1043A000976310B106A107C901E008A207CA8DE80A
:1043B00007006A460921184601F00EFA0EBD0000FA
:1043C000B8AAB38DB4980D355D000000B8AAAAAAAA
:1043D000B088C3C5C700000008B560B1C0208DF823
:1043E0000000C2208DF80100C4208DF80200C62014
:1043F0008DF8030004E08B2204216846FBF7B7FF29
:104400006A46042140F6982001F0E6F900F06EFEBD
:1044100008BD0000C8234FF48062024940F6F63020
:1044200000F008BD386D00082DE9FF4F89B0174630
:10443000DDE916520024554E884681462C80A2465E
:10444000B07B694600F0B8FD4FF0FF3B18B158460D
:104450000DB0BDE8F08F708910F0140F4CD0BDF88E
:1044600000109DF8022049BA090441EA02239DF890
:1044700003100B433B60BDF804109DF8062049BAB9
:10448000090441EA02229DF807101B140A437A60CE
:10449000BDF808109DF80A4049BA090441EA042110
:1044A0009DF80B4012142143B960BDF80C409DF8F3
:1044B0000EC064BA240444EA0C2C9DF80F40091481
:1044C0004CEA040CC7F80CC04FEA2C475B43494345
:1044D00002FB023207FB071111441024A1F17061A5
:1044E000B1F1007F04D900F001FEA5F800A0AEE70D
:1044F000298841F4807129804206694611D50A193C
:10450000A41D13885BBAA8F8003053885BBAA8F8DA
:104510000230928852BAA8F804202A8842F0080291
:104520002A8010F4C07F11D00A19A41D13885BBA29
:10453000A9F8003053885BBAA9F80230928852BAC1
:10454000A9F804202A8842F070022A80800716D039
:104550000C44E07800F0C00500F03F016078C0072F
:1045600006D0C80801F007013268491C02B1904723
:104570006078000703D5716809B1A8098847FCF77E
:1045800083FC0C990860002062E7000058040020BA
:1045900030B5044613A285B007CA8DE807004FF076
:1045A000FF35C82C16D8C820B0FBF4F1491E080A04
:1045B0008DF80C008DF80D1003AA022140F2162090
:1045C00001F00AF930B96A460C2140F6C12001F029
:1045D00003F910B1284605B030BD0548848100209C
:1045E000F9E70000FEF2ABC4AAF1DFDFBBAFDFDF0B
:1045F000580400202DE9FF4104463CA004F00303C9
:10460000006802903AA0006803903AA006683AA0B9
:10461000056802A8C15C8DF80010C4F3C101425CBA
:104620008DF80120C4F38112805C8DF8020003A88C
:10463000C35C8DF80430415C8DF80510805C8DF80A
:1046400006006A46032140F2264001F0C5F84FF00B
:10465000FF37E0BB01AA032140F22A4001F0BCF879
:10466000A8BBCDE9006560070BD59DF8000040F0C0
:1046700001008DF800009DF8040040F001008DF865
:104680000400A0060BD59DF8010040F001008DF854
:1046900001009DF8050040F001008DF80500E005DF
:1046A0000BD59DF8020040F001008DF802009DF846
:1046B000060040F001008DF806006A4603214FF421
:1046C000886001F089F810B901AA032100E004E034
:1046D00040F2314001F080F818B1384604B0BDE82E
:1046E000F081064804810020F8E700004CCD6C0002
:1046F0000CC92C0036567600264666005804002069
:104700004FF47A7290FBF2F008B54843010E8DF831
:104710000010010C8DF80110010A8DF802108DF8BF
:1047200003006A4604214FF4AE7001F055F808BD4D
:104730000521B0FBF1F008B5010A8DF800108DF8E5
:1047400001006A4602214FF4AD7001F045F808BD42
:104750000521B0FBF1F008B5010A8DF800108DF8C5
:1047600001006A4602214FF4AC7001F035F808BD33
:1047700008B500218DF80010C10702D030218DF856
:104780000010810705D59DF8001041F00C018DF84F
:104790000010400705D59DF8000040F003008DF89B
:1047A00000006A4601214FF4A47001F015F808BD1D
:1047B00008B560B1042800D90420401E8DF800001F
:1047C0006A46012140F24F1001F006F808BD0120B1
:1047D000F3E700002DE9FC41054640074FF0FF36A6
:1047E0007CD0B1F5C86F79D8084601F0EBFF3E499F
:1047F00001F0D2FE074601A800F090FA9DF80400EF
:10480000022806D004280DD008282ED0102865D103
:1048100034E00E21384602F0FAF901F09BFF84B231
:10482000324907E00D21384602F0F1F901F092FF1C
:104830002F4984B2384602F00DF801F08BFF210AAF
:104840008DF8001080B28DF80140010A8DF8021039
:104850008DF80300E8076C4620D0224602214FF471
:10486000EA7000F0B9FFC8BB11E00C21384602F035
:10487000CEF901F06FFF84B21E49DBE70B21384609
:1048800002F0C5F901F066FF84B21B49D2E7A21C11
:1048900002214FF4927000F09FFFF8B9A8070DD5E0
:1048A0006A4602214FF4EC7000F096FFB0B9A21CEA
:1048B00002214FF4947000F08FFF78B9680710D58B
:1048C0006A4602214FF4EE7000F086FF30B9A21C58
:1048D00002214FF4967000F07FFF10B13046BDE822
:1048E000FC810020FBE70000000048430000404638
:1048F0000000C045000040450000C0440521B0FB59
:10490000F1F008B5010A8DF800108DF801006A4633
:1049100002214FF4EF7000F05FFF08BD0521B0FBEE
:10492000F1F008B5010A8DF800108DF801006A4613
:1049300002214FF4ED7000F04FFF08BD90F9001018
:10494000002902DD4FF00000704702DA4FF004004A
:10495000704790F90110002902DD4FF00100704707
:1049600002DA4FF00500704790F90200002802DDDE
:104970004FF00200704702DA4FF0060070474FF028
:10498000070070478CB0FCF74FFDFEF7A9FDFEF75E
:1049900039FBFEF779FBFEF797FBFEF701FCFEF70C
:1049A00033FCFEF767FCFEF799FCFEF7CFFCFEF741
:1049B000B1FCFEF705FBB44CFEF7B0FAA06100288D
:1049C000FAD10021B148FDF7D5FB0421AF48FDF72E
:1049D000D1FB3C21AE48FDF72FFA3C21AD48FDF755
:1049E0002BFAAD48FDF7E8F8A948002500684562B4
:1049F000A84800684562AA4FA84E3B46A94A2946E6
:104A0000A9480096FEF74CFDDFF8A082A54AA6480B
:104A100043460C3A002148300096FEF741FDA14A7A
:104A2000A1483B461832002190300096FEF738FD31
:104A30009C4A9D4843460C320021D8300096FEF730
:104A40002FFD91490122891C9948FDF705FF019529
:104A5000029503950495059501260695CDE907561F
:104A60000E20CDE9096001A99248FBF713FE914899
:104A7000FCF760F802218F48FBF791FD8E4840F269
:104A800023118F07C56006618560016005754FF0D1
:104A900003094FF05A0B6FF0590A7B4A0C32111F71
:104AA000081FFEF76DF9E06DB0B1E068B84213D8A9
:104AB000B0F1804F10DCE565C4E9155925636564E4
:104AC0006563714BA564E5636033A3F15F027A49C6
:104AD00078482565FBF775FD207800286FD0257094
:104AE000A078FF280CD1E665E068B84201D3052024
:104AF00003E0B0F1804F02DB0620A07000E0A5705B
:104B0000A07800287ED0A07801287CD0A078F12859
:104B100036D0A078022838D0A078F22840D0A078EB
:104B200003287FD0A078F3282AD0A07804282CD09E
:104B3000A078F42834D0A078052835D0A078F528BE
:104B40003ED0A07806283ED0A078F62846D0A0789F
:104B5000072867D0A078F72812D0A07808286DD051
:104B6000A078F8286AD0A078092867D0A078F9281A
:104B700064D0A0780A2808D0A078FA2810D034E0B1
:104B80004FF4B460206340422BE04C48656560639D
:104B900040422563C4E91150E563022025651BE00E
:104BA0004748206340421CE04FF4FA706565C4E951
:104BB0000C50C4E91150E563042025650CE027E0A2
:104BC0004FF434700CE03D486565C4E90C50C4E90D
:104BD0001150E56305202565A06506E03748DC38FF
:104BE0002063E5636064C4E9145627494FF0FF3839
:104BF00043460122891C2E48FDF750FE4346012200
:104C0000214901E01AE00DE0891C2E48FDF746FE1F
:104C1000606DE8B1E16B206B401AE061216D606C62
:104C2000401A23E04FF4FA706565606340422563E3
:104C3000C4E91150E563A6652565D6E7656525637A
:104C400065646563A564E563C4F858902565CCE7A1
:104C5000A06D01280CD002280DD003280ED0042806
:104C60000FD005287FF419AF5046E061206214E7A9
:104C7000C4E907BA11E7C4E907AB0EE7E5612562AD
:104C80000BE75846F1E7000000000020600200201A
:104C9000A8020020F00200203803002000007A441F
:104CA0000000FA43986C0008AC0000200000F041BE
:104CB00080030020E4010020CC0100200CFEFFFF57
:104CC00060FAFFFF100400202DE9F041124C20F0A3
:104CD0000101002594F8240010B10020BDE8F08106
:104CE000A07A4FF0FF3668B10840277C20748842D4
:104CF00000D0354641B1012000F0A8FD00F0F6F9E2
:104D000038B127743046E9E7207D00B1012000F07A
:104D10009DFD2846E2E70000740000200D494A7A14
:104D200042B1012A08D0022A0FD0032A0FD04FF037
:104D3000FF307047022200E004220270C97C11B1EA
:104D40001106C90D0170002070470822F5E71022F6
:104D5000F3E70000740000202DE9F04385B08020C7
:104D60008DF80C0047000DF10C08012640462F4C31
:104D70008DE8C10020683346427D606801782C4888
:104D8000FCF77AFA4FF0FF39F0BB6420FBF774FFB1
:104D900000258DF80C50CDF80080CDE90167206822
:104DA0000123427D606801782148FCF765FA58BB11
:104DB000E574FF2004F80A0F4FF6FF7104F8020CA7
:104DC00004F8010C6070A180A0712072A670267694
:104DD0006576E572A572E56025616561A576E57683
:104DE000A5834FF4FA6000F083FB68B9022000F05D
:104DF0005DFA48B92A2000F0F5FB28B9322000F00E
:104E000031FC08B9002000E006E0FFF75DFF18B9AB
:104E1000002000F087FA18B1484605B0BDE8F083DD
:104E2000002000F06BFC0020F7E700007400002079
:104E30000C0200202DE9FF4FDFF8A080064689B064
:104E400098F8250015460F464FF0FF39E0BBDFB359
:104E5000002420E0301B102800DD102080B28346A3
:104E60003A1901469246204600F0B6FC60BB03AA00
:104E70005946204600F000F930BB50465A4603A977
:104E8000FBF72AFA20B16FF001000DB0BDE8F08FFA
:104E900004EB0B0084B2B442DCD3280A8DF81C006A
:104EA0008DF81D504FF48072022107A88DE807008D
:104EB000D8F8000044460123427FD8F80400017866
:104EC0000748FCF7D9F908B14846DEE7012084F825
:104ED00025000C98E0840020D7E700007400002033
:104EE0000C0200202DE9FF5F0546282851D8002636
:104EF0002F4C0DF10C094FF007084FF4807A022770
:104F00007DB1012000F034FB20208DF80C004FF023
:104F1000010B012D1BD0052D1CD88DF80DB00520DF
:104F200022E0002000F024FBCDE900978DF80C6012
:104F30008DF80D80CDF808A020680123427D6068BF
:104F400001781C48FCF798F918BB26752EE08DF8FF
:104F50000D60E4E7142D03D88DF80D700A2003E0EE
:104F600003208DF80D00142000F03CFB9DF80D107F
:104F7000CDE9009708EB81108DF80D00CDF808A061
:104F800020680123427D606801780A48FCF774F9C3
:104F900020B14FF0FF3004B0BDE8F09F0820A072B0
:104FA000267384F814B00020FFF78EFE0020F2E78D
:104FB000740000200C0200202DE9FF5F2C4C0646F7
:104FC000904694F824008B464FF0FF3AC0B3A07A85
:104FD000B0B30DF10C094FF48077022148468DE8FB
:104FE000830020680123027B606801782148FCF778
:104FF00015F828BBBDF80C0045BAB54203D2002114
:1050000088F800102AE060684188B5EB510F18D984
:105010000122CDF80090CDE9012721680123CA7C47
:1050200001781448FBF7FAFF50B99DF80C00C00650
:1050300007D500F05BF86FF0010004B0BDE8F09F09
:105040000CE0CDF800B0CDE9016720680123427B78
:10505000606801780748FBF7E1FF08B15046ECE7CC
:10506000B5FBF6F0401E88F800000020E5E70000E0
:10507000740000200C0200202DE9FF4115000E46AF
:105080004FF0FF3729D0174CA17A31B3010A8DF8C0
:105090000C10C0B28DF80D008119606842899142F0
:1050A0001BD8022203ABCDE900324FF48078CDF853
:1050B000088021680123CA7E01780B48FCF7DCF8E0
:1050C00058B98DE8600120680123027E606801788C
:1050D0000548FBF7A3FF002800D0384604B0BDE820
:1050E000F0810000740000200C0200202DE9FF4731
:1050F0006C4C4FF0FF3AA07A00287CD000270DF1CD
:105100000C088DF80C704FF48076012540468DE830
:10511000610020682B46427C606801786248FCF799
:10512000ABF8002867D1CDF80080CDE901562168A1
:10513000606801234A7901785B48FCF79DF80028F4
:1051400059D1CDF80080CDE901562168606801236E
:105150000A7901785448FCF78FF800284BD194F86D
:10516000240088B30C208DF80C00CDF80080CDE928
:105170000156206801230279606801784A48FCF7EB
:105180007BF8002837D13220FBF776FDC0208DF860
:105190000C00A07AC00702D0E0208DF80C00CDF8FA
:1051A0000080CDE901562068C1460123027960687C
:1051B00001783D48FCF760F800286ED1607C20B192
:1051C00002208DF80C0002E019E08DF80C70CDE99A
:1051D0000095B046CDF8088020684E460123427CF9
:1051E000606801783048FCF747F820B98DF80C70FA
:1051F000CDF8088000E050E0CDE9006543E00420F0
:105200008DF80C00CDF80080CDE90156206801230F
:105210000279606801782448FCF72EF8E8BBA07C8E
:10522000A0B9A07AC00711D05FF060008DF80C0023
:10523000CDF80080CDE9015620680123027960682D
:1052400001781948FCF718F838BB01E04020EDE779
:105250003220FBF711FD607C10B18DF80C5001E09D
:105260008DF80C70CDF80080CDE90156206801233F
:10527000427C606801780C48FBF7FEFF68B909487A
:1052800010308DE861002068012342796068017860
:105290000548FBF7F1FF002800D0504604B0BDE8F8
:1052A000F0870000740000200C0200207FB51B4C2A
:1052B0004FF0FF35A17A51B3022806D0042806D05A
:1052C00008280ED0102822D10DE0002000E0082090
:1052D0008DF80C00607A9DF80C10B0EBD10F04D063
:1052E00006E01020F4E71820F2E7002004B070BDBB
:1052F0004FF48072012103A88DE807002068012384
:10530000C279606801780648FBF7B6FF08B1284605
:10531000ECE79DF80C00C0086072E6E7740000201E
:105320000C0200202DE9FF474A4C0746A07CB842FA
:1053300003D1002004B0BDE8F08746484FF0FF3AA3
:105340004FF48075D0E900104FF0010803AECFB3E1
:105350000096CDE901850A79017801233E48FBF7E3
:105360005DFE002871D19DF80C00CDE9006820F0A9
:105370002000A9468DF80C00CDF80890206845461D
:1053800001230279606801783348FBF775FFE8BBB9
:105390000320FBF771FC02208DF80C0094F822002A
:1053A00010B182208DF80C0094F8230028B19DF8EC
:1053B0000C0040F030008DF80C00CDE90065CDF810
:1053C000089039E0FFE7CDE9006802950A79017895
:1053D00001232148FBF722FEC0B9A07AC0079DF83F
:1053E0000C0002D040F0200001E020F02000A9468F
:1053F0008DF80C0035468DE82003206801230279E2
:10540000606801781448FBF737FF00E01DE0E0B961
:105410000320FBF731FC94F8220000B180208DF8C6
:105420000C0094F8230028B19DF80C0040F03000E7
:105430008DF80C008DE8200320680123C27D606890
:1054400001780548FBF718FF08B1504672E7A774CA
:105450006FE70000740000200C0200202DE9FF41DE
:10546000214C94F82410814224D000264FF48077F8
:10547000012530B394F8250000B3002000F0E6F9D0
:105480000020FFF74FFFE08C00F0ECF88DF80C6087
:1054900003A88DE8A1006068012323220178134846
:1054A000FBF7EAFE84F82450012000F0CFF900BF9A
:1054B000FFF71CFE002004B0BDE8F0814FF0FF3084
:1054C000F9E7002000F0C2F9207C8DF80C0003A859
:1054D0008DE8A10060680123232201780348FBF7CF
:1054E000CBFE84F82460E3E7740000200C02002067
:1054F0007FB51D4C4FF0FF35A17A69B3FA2809D06A
:10550000B0F5FA7F08D0B0F57A7F0FD0B0F5FA6F1A
:1055100022D10DE0002000E008208DF80C00207A58
:105520009DF80C10B0EBD10F04D006E01020F4E78A
:105530001820F2E7002004B070BD4FF48072012102
:1055400003A88DE80700206801238279606801784C
:105550000648FBF791FE08B12846ECE79DF80C00E1
:10556000C0082072E6E70000740000200C02002052
:105570007FB51A4C054694F82300A84202D10020BA
:1055800004B070BD0DB1302000E000208DF80C009B
:10559000A07C28B19DF80C0040F002008DF80C00B2
:1055A00094F8220028B19DF80C0040F080008DF89E
:1055B0000C004FF48072012103A88DE807002068D9
:1055C0000123C27D606801780548FBF755FE10B1E4
:1055D0004FF0FF30D4E784F82350D0E77400002068
:1055E0000C0200207FB51D4C4FF0FF35A17A79B336
:1055F0000121BC2802D38DF80C1012E0622801D3DF
:1056000002200CE02A2801D3032008E0142801D34B
:10561000042004E00A2801D3052000E006208DF8CC
:105620000C00E07A9DF80C20904202D1002004B0DA
:1056300070BD03AA4FF480700092CDE9011020687C
:1056400001238278606801780548FBF715FE08B1F0
:105650002846ECE79DF80C00E072E7E774000020B4
:105660000C0200202DE9FF41224D04464FF0FF3788
:10567000A87A78B395F8240060BB287D4FF47A7639
:1056800048B164B1282C03D82046FFF72BFC2EE04C
:105690000020FFF727FC042C05D2042406E000209C
:1056A000FFF720FCF9E7B44200D93446B6FBF4F02A
:1056B000401E8DF80C004FF48072012103A88DE884
:1056C0000700286801234278686801780A48FBF7D8
:1056D000D3FD18B1384604B0BDE8F0819DF80C0048
:1056E000401CB6FBF0F0E8814008FFF77BFF00208C
:1056F000F1E70000740000200C0200202DE9FF47B4
:10570000054610F0700F4FF001074FF0000602D071
:105710008DF80C7006E015B18DF80C6002E04020A9
:105720008DF80C000DF10C094FF480784946284C97
:105730008DE8820120680123427D60680178254858
:10574000FBF79AFD4FF0FF3A80BB9DF80C0020F06C
:10575000400020738DF80C60680602D404208DF898
:105760000C00A80605D49DF80C0040F002008DF84E
:105770000C00E80605D49DF80C0040F001008DF8FF
:105780000C00280705D49DF80C0040F038008DF877
:105790000C00CDF80090CDE9017820680123827DCE
:1057A000606801780B48FBF767FD20B1A672504690
:1057B00004B0BDE8F08725B1082D02D00020FFF726
:1057C000D7FEA57226753220FBF756FA0020EFE7C8
:1057D000740000200C0200202DE9FF4115000E4648
:1057E0004FF0FF3729D0174CA17A31B3010A8DF859
:1057F0000C10C0B28DF80D00811960684289914289
:105800001BD8022203ABCDE900324FF48078CDF8EB
:10581000088021680123CA7E01780B48FBF72CFD24
:1058200058B98DE8600120680123027E6068017824
:105830000548FBF721FD002800D0384604B0BDE83C
:10584000F0810000740000200C0200202DE9FF41CF
:105850001B4C0346214694F824C00026D1E90001E0
:10586000751E01224FF48077BCF1000F0FD0BBB141
:1058700002238DF80C3003ABCDE900320297427C55
:10588000097801230F48FBF7F7FC78B912E094F888
:105890000AC0BCF1000F09D013B1637C6BB902E000
:1058A0008DF80C60E7E78DF80C20E4E7284604B09B
:1058B000BDE8F0819DF80C0060740020F7E700005F
:1058C000740000200C0200202DE9F04106460F462E
:1058D00000F0F2FB041E0D4618BF0120284320F003
:1058E0000040C0F17F6000F1E040C00F0ED0301CDE
:1058F00018BF0120384320F00040C0F17F6000F164
:10590000E040C00F04BF0120FAF768FD2046294699
:10591000BDE8F08121F00042A2F16052B2F5801F93
:1059200001F0004328BFD2F17F6C0BD95FEA001C65
:1059300043EAC20242EB507018BF704728BF20F004
:1059400001007047B2F5801FBCBF184670474FEA90
:10595000410C1CF5001F02D2084601F042B870B598
:1059600000F04AFB00000089FFF7F6BF4FF000404F
:10597000A0F580007047000010B591EA030F48BF02
:1059800083F0004300F18684841A71EB030C05D286
:10599000121943EB0C03001B61EB0C01DFF824E14F
:1059A0004FEA1154A4EB135C1EEA430F18BF9EEAA2
:1059B000445F73D023EA0E03DCF1200E21EA045188
:1059C00043F4801332D322FA0CFE10EB0E0023FABC
:1059D0000CFE41EB0E01CCF1200E03FA0EFE10EB93
:1059E0000E0051F10001B1F5801FCCF1200E32D232
:1059F00001EB045112FA0EF2BDE8104058BF704797
:105A0000401C38BF5FEA420218BF7047002814BF2D
:105A100020F0010041F100014FEA410313F5001F9E
:105A200038BF7047A1F1C04100F034BB012A43EBFD
:105A30000302ACF1200CDCF11F0E32BF4FF0000E60
:105A400023FA0CF310EB030041EB0451B4EB115FAC
:105A5000D0D0A1EB045101F5801149085FEA300074
:105A600001EB04510ED350F1000038BF12FA0EFEC4
:105A700008D1BDE81040C9E7401C38BF5FEA4202C8
:105A8000CAD1C3E7BDE810404FEA410313F5001F38
:105A900038BF7047A1F1C04100F0FCBA9EEA445FF4
:105AA00008D011EA5E0FBDE8104004BF01F00041CC
:105AB00000207047BDE8104070B500F09DFA00BFAF
:105AC00064FBBE3E0000E0FF02494FF0000001F021
:105AD0003EB800BF0000F87F491058BFC1F14041F7
